:020000040800F2
:10000000781700202D030008EB360008ED320008B9
:10001000E936000877170008893F00080000000053
:100020000000000000000000000000004D02000879
:100030007917000800000000A9020008153A00081E
:100040004703000847030008470300084703000868
:100050004703000847030008470300084703000858
:100060004703000847030008470300084703000848
:100070004703000847030008470300084703000838
:100080004703000847030008470300084703000828
:100090004703000847030008470300084703000818
:1000A00047030008DD3A000847030008470300083B
:1000B000470300080000000000000000470300089C
:1000C000470300080000000000000000470300088C
:1000D00000000000470300087D3F0008000000000A
:1000E000470300084703000800000000000000006C
:1000F0000000000000000000000000000000000000
:10010000000000000000000000000000470300089D
:10011000000000000000000047030008470300083B
:100120004703000847030008470300084703000887
:10013000470300080000000000000000000000006D
:100140004703000847030008470300084703000867
:100150004703000847030008470300084703000857
:100160004703000847030008470300080000000099
:1001700047030008470300080000000000000000DB
:1001800047030008470300084703000800F002F88F
:1001900000F04CF80AA090E8000C82448344AAF1D5
:1001A0000107DA4501D100F041F8AFF2090EBAE8D3
:1001B0000F0013F0010F18BFFB1A43F0010318479B
:1001C000CC570000EC570000103A24BF78C878C123
:1001D000FAD8520724BF30C830C144BF04680C604D
:1001E000704700000023002400250026103A28BF95
:1001F00078C1FBD8520728BF30C148BF0B60704799
:10020000662905F00983782900F064810020704791
:100210001FB505F0FCFA00F071FD0400002000217C
:1002200005F068FAE0601FBD10B510BD00F066FE75
:100230001146FFF7EDFF03F0DDFE00F084FE03B48E
:10024000FFF7F2FF03BC00F0C7FE00002C4B19685B
:10025000086800F05AB880F30988BFF36F8F4FF039
:10026000000080F311887047000000000848006813
:10027000006880F308884FF0000080F3148862B6AD
:1002800061B6BFF34F8FBFF36F8F00DF00BF00BFBA
:1002900008ED00E0DFF80C00016841F47001016036
:1002A000704700BF88ED00E0EFF30980BFF36F8F68
:1002B000134B1A681EF0100F08BF20ED108A20E9BA
:1002C000F04F106009B44FF0500080F31188BFF375
:1002D0004F8FBFF36F8F04F075FC4FF0000080F379
:1002E000118809BC1968086800F014B81EF0100FD6
:1002F00008BF00F014B880F30988BFF36F8F704710
:1003000028000020EFF30580704730C8B0E8C04FE8
:10031000FFF7A1BF30C8B0E8C04FFFF7E7BFB0ECB0
:10032000088AB0EC08CAFFF7E6BF0000094880471A
:1003300009480047FEE7FEE7FEE7FEE7FEE7FEE7C7
:10034000FEE7FEE7FEE7FEE704480549054A064BDF
:1003500070470000CD3A00088D0100087811002098
:1003600078170020781300207813002053EA020C3D
:1003700000F069802DE9F04B4FF00006002B1FBF05
:10038000B3FA83F503FA05F424FA05F65E4012BFCA
:100390001643B2FA82F502FA05F4C5F120051EBF34
:1003A00022FA05FC44EA0C04203556EA044C4FEAD4
:1003B000144418BF641C4FF000084FF0000990422D
:1003C00071EB030C39D3002919BFB1FA81F701FA97
:1003D00007F6B0FA80F700FA07F6C7F120071EBF4C
:1003E00020FA07FC46EA0C062037B6FBF4FCA7EB24
:1003F0000507103F07F01F0BCBF120060CFA0BFB93
:100400002CFA06F644BFB3460026202FA4BF5E4652
:100410004FF0000B5BEA060C08BF4FF0010B19EB25
:100420000B09ABFB027C48EB0608C01B06FB02CCA9
:100430000BFB03CC71EB0C01C1E70B4602464146B6
:100440004846BDE8F08B13B54FF000004FF00001B7
:10045000AFF30080BDE81C40704700000FB41CB52E
:10046000074B06AA7B4469460090059800F02DFCD6
:100470000020694600F03CFC1CBC5DF814FB000049
:100480008908000070B5044685690068C10601D579
:10049000302600E02026C00707D070BDD4E9012136
:1004A00030469047206A401C20626D1EF6D570BD14
:1004B00070B5044685690078C00707D170BDD4E9DE
:1004C000012120209047206A401C20626D1EF6D535
:1004D00070BD000070B504460D4621461068AFF3AC
:1004E00000802188090502D50F4A7A4402E00E4AAD
:1004F0007A440E32002104F1240305E000F00F06D7
:100500000009965D5E54491C0028F7D1207800232D
:10051000000704D5702D02D009B102231132204604
:10052000BDE8704000F061B9AE5300002DE9F05F06
:10053000894604464FF0000ADFF824B1FB44C0F8B6
:1005400020A02046E168884700287DD0252806D0D5
:10055000D4E901219047206A401C2062F1E7002580
:100560005F462046E16888472028064607DB312E93
:1005700005D2B81910F8200C08B10543F1E7A80717
:1005800001D525F00405C4F81CA00027C4F818A064
:100590002A2E09D0304603F020FD38B304EB87083B
:1005A000303EC8F8186019E059F8041B204604EBE7
:1005B00087029161E1688847012F064618D1E069FA
:1005C000002820DA25F020051DE0D8F8180000EBFF
:1005D000800006EB40003038C8F818002046E1687B
:1005E0008847064603F0F9FC0028EED1012F0AD017
:1005F0002E2E08D12046E16888477F1C0646022F30
:1006000045F02005C4DBA069002803DA404245F02C
:100610000105A061E80701D025F01005A6B1A6F1FB
:100620004100192802D8203645F400654A46314673
:10063000204625604D46FFF7E3FD60B1012807D055
:10064000ED1D25F0070000E007E000F1080978E75C
:1006500005F1040975E730467AE7206A00F002B830
:100660008453000030BCBDE8C09F10B5431C02E0BD
:1006700010F8011B71B18107FAD14FF0013202C8A5
:100680008C1A8C4314EAC211F9D0C01A0A0603D09E
:10069000C01E10BDC01A10BD0A0401D0801E10BDBE
:1006A0000902FCD0401E10BD032A40F2308010F039
:1006B000030C00F0158011F8013BBCF1020F6244FD
:1006C00098BF11F801CB00F8013B38BF11F8013B8E
:1006D000A2F1040298BF00F801CB38BF00F8013B3B
:1006E00011F0030300F02580083AC0F0088051F8AB
:1006F000043B083A51F804CBA0E80810F5E7121DB6
:100700005CBF51F8043B40F8043BAFF30080D207D4
:1007100024BF11F8013B11F801CB48BF11F8012BA0
:1007200024BF00F8013B00F801CB48BF00F8012BC3
:10073000704710B5203AC0F00B80B1E81850203A4D
:10074000A0E81850B1E81850A0E81850BFF4F5AF71
:100750005FEA027C24BFB1E81850A0E8185044BFFB
:1007600018C918C0BDE810405FEA827C24BF51F868
:10077000043B40F8043B08BF7047D20728BF31F85C
:10078000023B48BF11F8012B28BF20F8023B48BFAD
:1007900000F8012B70474FF0000200B51346944655
:1007A0009646203922BFA0E80C50A0E80C50B1F1C9
:1007B0002001BFF4F7AF090728BFA0E80C5048BFDD
:1007C0000CC05DF804EB890028BF40F8042B08BF7B
:1007D000704748BF20F8022B11F0804F18BF00F877
:1007E000012B70477047704770472DE9F0470D4661
:1007F00099469246044600F124080168880604D50B
:10080000E06921F01001216000E00120A84201DD33
:10081000471B00E00027A1697A1902EB0900081ABA
:10082000A0612078C00602D42046FFF72BFE0026E8
:1008300008E0D4E901211AF806009047206A401C1C
:10084000761C20624E45F4DB2078C0060AD520468F
:10085000FFF718FE06E0D4E9012130209047206A16
:10086000401C2062381EA7F10107F4DC07E0D4E940
:10087000012118F805009047206A401C2062281EBC
:10088000A5F10105F3DC2046FFF712FE20780006F3
:1008900002D50220BDE8F0870120FBE770472DE973
:1008A000FF4F0C461E464FF0FF378BB0D2E90001D8
:1008B000DDF860800A908A46C1F30A5505B93D46C5
:1008C000002108464FF00000BAF1000F00F440008C
:1008D00005DA00EB80004FF4400101EA50004FEAD6
:1008E0009059B9F1010F00DDB9460A9850EA4A0063
:1008F0000ED044F61050A5F2FF3545432F14B8F141
:10090000000F1ED07542291E1EDDC9F100021CE039
:10091000B8F1010F4FF0000001D0302103E0F243A5
:1009200005E02154401CB042FBDB30460022002190
:1009300021540B99C1F80880C1E900200FB000F0E4
:10094000BCB9BD1B6D1CDEE74A4600DA694206A849
:1009500000F05EFA06AB93E8070003AB83E80700FC
:1009600050460A9900F03FFB8DE80700A0F50050C3
:100970001F3800900398002D0ADD42F21F014A46FD
:100980000844002303A90390684600F0A8FD09E08D
:10099000A0F500504A461F38002303A9039068467B
:1009A00000F0B2FD8DE807000004000C03D04FF00A
:1009B000FF30410800E01046B8F1000F03D00022DC
:1009C000009215461EE0751E05D400F09BF93032EA
:1009D00062556D1EF9D5B3460122084302D00022AC
:1009E0007F1C04E02078302801D100227F1E002ADD
:1009F000099784D01DE0112D07DA00F083F9303219
:100A000062556D1C50EA0102F5D1084302D00098EE
:100A1000C8B10EE00021681E05E0235C625C6354EF
:100A20002254401E491C8142F7DBAB46A81B401EE6
:100A30000990002004F80B000B98099AC0F8088070
:100A4000C0E9002B7AE711264FF0000857E72DE99F
:100A5000F04F88460446D21D22F0070191B0D1E93B
:100A60000001CDE90A0103F090FA02460B98C00F8D
:100A700001D02D2007E02068810701D52B2002E05E
:100A8000202101EAC000032A099001D0072A05DBD2
:100A900003464146204600F07BF90BE120788006B2
:100AA00001D5E06900E00620B8F1650F814606D067
:100AB000B8F1660F18D0B8F1670F70D131E000209F
:100AC000B9F1110F009001DB112301E009F10103DD
:100AD0000AAA01A90CA8FFF7E2FEDDE90C700026C6
:100AE00009F10105834647E001204B4600904FF095
:100AF00000470AAA01A90CA8FFF7D1FEDDE90DB055
:100B00000C995D46002610B909F101000D18B9EBEA
:100B1000050003D4C0F1FF3609F10105A5EB09007A
:100B20002BE0B9F1010F01DA4FF001090020B9F112
:100B3000110F0090484601DD112300E003460AAA88
:100B400001A90CA8FFF7ABFEDDE90C704D460026AD
:100B50008346207800070AD4AB4500DA5D4601A839
:100B6000012D04DD411911F8011C302907D04F4532
:100B700002DA17F1040F04DA012082460FE06D1E3D
:100B8000EEE7002F02DCED1B3E4403E0781CA84298
:100B900000DD7D1CB81B00F1010A4FF000472078F2
:100BA000000703D4AA4501DB4FF0FF3A0021B7F15B
:100BB000004F0DF143088DF8431024D002202B2361
:100BC000002F01DA7F422D230A21021EA0F101002D
:100BD00000DC5FB197FBF1FC97FBF1F201FB1C7CA1
:100BE00017460CF1300C08F801CDEEE7A8F1010032
:100BF00003702188090501D5452100E06521A0F198
:100C0000010800F8011C09980FA9A1EB0807FF1DB6
:100C100000B10120411901EBEA70A1693844081ABA
:100C2000401EA0612078C00602D42046FFF72AFCAF
:100C3000099828B1D4E901219047206A401C20621C
:100C40002078C00622D52046FFF71CFC1EE0002EAF
:100C500004DBB34502DD01A8805D00E03020D4E96B
:100C600001219047206A401C2062761CAAF10100F5
:100C70005FEA000A0AD100F041F8C0680168405CF0
:100C8000D4E901219047206A401C2062281EA5F16A
:100C90000105DCDC07E0D4E9012118F8010B9047DD
:100CA000206A401C2062381EA7F10107F3DC2046B1
:100CB000FFF7FEFB032011B041E630BCBDE8C08F5A
:100CC00001694A1C02610878704700B58FB0CDE910
:100CD00001310021059105497944CDE90310114600
:100CE0006846FFF723FC0FB000BD0000E5FFFFFFE3
:100CF0000A6802F8010B0A6070470000004870475C
:100D00003411002030B5B0F10A024FEA900E71F1B3
:100D100000034EEA817EB0EB0E0061EB91014FEAD9
:100D2000101E4EEA017E10EB0E0041EB11114FEA4E
:100D3000102E4EEA016E10EB0E0041EB11214FEA2E
:100D4000104E4EEA014E10EB0E0041EB11414018DF
:100D500041F100014FEAD00040EA41704FEAD10171
:100D600010EB80054FEA810444EA907444EB0104DF
:100D70006D1944EB0404521BA3414FF0000348BF1C
:100D80000A3200D530BD401C41F1000130BD0000E9
:100D90002DE9F0411F46044603260168072A01F4A5
:100DA000006004DB08B116A505E016A503E008B154
:100DB00015A500E015A521F010002060A069C01E57
:100DC000A0610FB1401EA0612046FFF75BFB4FB151
:100DD000D4E9012138469047206A401C2062C01C9B
:100DE000206206E0206AFAE7D4E9012115F8010B38
:100DF0009047761EF8D22046FFF75AFBBDE8F081F7
:100E00004E414E006E616E00494E4600696E6600AE
:100E10002DE9F047814616468AB0354878440DC81A
:100E20008DE80D0032487844801C03AC0DC884E87E
:100E30000D0041F69B300844372190FBF1F290FB06
:100E4000F1F5A5F1800501FB12041B3C02D56442BB
:100E5000012000E00020DFF898A080460027FA4437
:100E6000AAF1BE0A0EE0E0070AD03246684607EB58
:100E7000470101230AEB810100F046FB8DE80700E2
:100E800064107F1C002CEED1194F7F44AE3F19E057
:100E9000E80715D007EB04100DF1180A90E80E00D2
:100EA0008AE80E00C068F04201D1981908903246D5
:100EB000012306A903A800F027FB03AB83E8070082
:100EC0006D10641C002DE3D14FF0010332466946DA
:100ED000B8F1000F03A802D000F001FB01E000F020
:100EE00013FBC9E90001C9F808200AB0BDE8F08782
:100EF000344B000000487047141100207546FFF77E
:100F0000F9FFAE4605006946534620F007008546C6
:100F100018B020B5FFF718FABDE820404FF00006E2
:100F20004FF000074FF000084FF0000B21F00701D1
:100F3000AC46ACE8C009ACE8C009ACE8C009ACE814
:100F4000C0098D46704710B50446AFF300802046B7
:100F5000BDE81040FFF773B94FF0013C50F8042B87
:100F600051F8043B9A4221D1A2EB0C03934313EABC
:100F7000CC1317D150F8042B51F8043B9A4215D1E9
:100F8000A2EB0C03934313EACC130BD150F8042BC0
:100F900051F8043B9A4209D1A2EB0C03934313EAA4
:100FA000CC13DBD04FF00000704700BFD01A01BA5D
:100FB000B1FA81F101F0180122FA01F0CB40C1F140
:100FC0002001DBB2C0B2C01A2CFA01F3D11A91434E
:100FD00011EAC311E6D1704701491820ABBEFEE704
:100FE0002600020070475FEA400C08BF91F0000F36
:100FF0004FEA8C234FEAC12243EA51514FEA1C5079
:1010000018BF00F5F0404FEA300018BF41F0004132
:101010005FEA6C5C00F02980BCF1FF3F08BF40F044
:1010200080407047130C06BF12044FF0100C4FF0B5
:10103000000C130E04BF12020CF1080C130F04BFB6
:1010400012010CF1040C930F04BF92000CF1020C7E
:10105000D30F04BF52000CF1010C11464FF00002F7
:10106000A0F11F00A0EB0C00704711F0004F08BF6B
:10107000704731F000413FF4D5AF0B0C06BF0904B7
:101080004FF0100C4FF0000C0B0E04BF09020CF1D6
:10109000080C0B0F04BF09010CF1040C8B0F04BFEB
:1010A00089000CF1020CCB0F04BF49000CF1010CBC
:1010B000CCF12003A0EB0C0022FA03F302FA0CF2AD
:1010C00041EA030100F10100704720F07F4C80EA03
:1010D000030023F07F47ACEB070303F57C5300F0DC
:1010E000004003F1FF032DE980494FEA154B09B495
:1010F0004FEA144325EA0B4E24EA03480FF2042674
:1011000006EB132749083E785FEA320203FB0667C5
:10111000C7F5000707FB06F64FEA54374FEAD646F5
:1011200006F1020607FB066CCCF1005C4FEA1C4797
:101130002CEA074C07FB06F40CFB06F504EB1546FE
:101140004FEA961634BF00204FF000404FEAD137E7
:1011500006FB07FC4FEA1C4C0CFB0BF7D21B03FBF6
:101160000CF761EB07010CFB0EF7B0EB074072EBDD
:1011700017420CFB08F734BFA2EB0742B2EB074261
:1011800061EB17414FEA0C444FEA910706FB07FC5D
:101190004FEA1C4C0CFB0BF7B0EBC74072EB57321D
:1011A00003FB0CF734BFA2EBC742B2EBC74261EBC3
:1011B00057310CFB0EF7B0EBC70072EB57720CFB0C
:1011C00008F734BFA2EBC702B2EBC70261EB57715D
:1011D000039F4FEA816141EA921104EBCC044FEA8C
:1011E000D1374FEA826206FB07FC42EA90124FEACF
:1011F00080604FEA1C4C0CFB0BF7D21B03FB0CF777
:1012000061EB07010CFB0EF7B0EB074072EB1742E6
:101210000CFB08F734BFA2EB0742B2EB074261EBCD
:1012200017414FEA8C554FEA910704EB9C2406FBCB
:1012300007FC4FEA1C4C0CFB0BF7B0EBC74072EB02
:10124000573203FB0CF734BFA2EBC742B2EBC742E5
:1012500061EB57310CFB0EF7B0EBC70072EB577226
:101260000CFB08F734BFA2EBC702B2EBC70261EB7D
:10127000577115EB4C254FEA816141EA92114FEA13
:1012800082624FEAD13742EA901206FB07FC44F132
:1012900000044FEA80604FEA1C4C0CFB0BF7D21B9A
:1012A00003FB0CF761EB07010CFB0EF7B0EB0740FB
:1012B00072EB17420CFB08F734BFA2EB0742B2EB0C
:1012C000074261EB174115EB1C154FEA813141EAEA
:1012D00092414FEA823242EA90424FEA80304FEA2E
:1012E0000C7644F1000448EA03434EEA0B484FF001
:1012F000000EB2EB080C71EB030724BF62463946BF
:101300004EEB0E0E4FF0000B0018524149414BEBD3
:101310000B0BB2EB080C71EB03077BF1000B24BF46
:10132000624639464EEB0E0E4FF0000B001852414C
:1013300049414BEB0B0BB2EB080C71EB03077BF154
:10134000000B24BF624639464EEB0E0E51EA0207EF
:1013500018BF46F0010616EB0E7655F1000254F167
:10136000000103D5BDE88901BDE80088BDE8890119
:10137000BDE80048B619524141EB0101A3F1010358
:10138000704780807F7E7D7C7B7A797877767675F2
:101390007473727171706F6E6E6D6C6C6B6A6A696A
:1013A0006868676666656464636362616160605F04
:1013B0005F5E5E5D5D5C5C5B5B5A5A59595858577D
:1013C00057565655555554545353525252515150E5
:1013D00050504F4F4F4E4E4D4D4D4C4C4C4B4B4B38
:1013E0004A4A4A494949484848474747474646467E
:1013F00045454544444444434343434242424241B9
:101400004141002B9C4630D477002BD01CB54FEACD
:10141000370703B44FF010004FF01001BAF1000F7E
:1014200006D0BCF1000FDCBF40F0080040F008011E
:101430004FF000000FBCBDE810400BF1010BBBF1F9
:10144000010F08BF5FEA170722BF12F1010211F175
:1014500001014FF0004143F1000300F0004043EA76
:1014600000007047F9D35708D0E746EA064613F163
:10147000400F4FEA16461FDD13F1200FDFBF164362
:101480000A46002120335B42BED0C3F1200746EA62
:10149000064602FA07F74FEA164646EA0706C3F180
:1014A000200722FA03F201FA07F721FA03F14FF0BD
:1014B000000342EA0702A7E746EA020646EA0646B2
:1014C0004FEA164646EA0106BCBF46EA0646360C17
:1014D0004FF000034FF000024FF0000194E72DE9B8
:1014E000804C9A46934670B491E8380007C831EAB8
:1014F000400C48BF34EA430C03D5FFF7E6FDFFF785
:1015000080FFF0BCBDE8008C2DE9804C9A469346E4
:1015100070B491E8380007C810F0804F08BF13F08E
:10152000804F03D100F005F8FFF76BFFF0BCBDE87A
:10153000008C20F07F4780EA030023F07F4C07EB0C
:101540000C03A3F57C5300F00040A3F1FE0392F0DE
:10155000000F00F0B38095F0000F00F077802DE9C8
:1015600001494FEA11404FEA144621EA004800FBC6
:1015700006FC24EA064708FB06F607FB08F800FB12
:1015800007F718EB06484CEB164C4FEA124B18EBDA
:1015900007484FEA15464CEB174022EA0B4E0BFB6F
:1015A00006FC25EA06470EFB06F607FB0EFE0BFBC4
:1015B00007F71EEB064E4CEB164C4FF000061EEBE9
:1015C000074E4CEB174B18EB0B0840F1000018EBE3
:1015D0000E0B58EB000840F100008F1A4FF000018D
:1015E0003CBFC943661B14BFB5EB040C00213CBFD4
:1015F000C943F61B4FEA17444EEA8E0E27EA04450C
:101600004FEA1C4704FB07622CEA074C05FB07F76F
:101610000CFB05F604FB0CFC16EB074642EB1742ED
:1016200016EB0C4642EB1C421BEB060658EB020283
:10163000414146EA9E0601D5BDE80189B6195241ED
:1016400041EB0101A3F10103BDE801894FEA144513
:101650004FEA114724EA054621EA074C05FB07F447
:1016600006FB07F70CFB06F105FB0CFC11EB074131
:1016700044EB17444FEA124711EB0C4144EB1C4476
:1016800022EA074C05FB07F206FB07F70CFB06F600
:1016900005FB0CFC16EB074642EB174216EB0C461B
:1016A00042EB1C456A1854F1000148BF7047B61957
:1016B000524141EB0101A3F10103704795F0000F86
:1016C00037D04FEA11424FEA144721EA024624EA92
:1016D000074C02FB07F106FB07F70CFB06F402FBC5
:1016E0000CFC14EB074441EB17414FEA154714EB90
:1016F0000C4441EB1C4125EA074C02FB07F506FBB5
:1017000007F70CFB06F602FB0CFC16EB074645EB55
:10171000174516EB0C4645EB1C42121951F100011E
:1017200048BF7047B619524141EB0101A3F10103D3
:1017300070474FEA14454FEA114724EA054621EA6B
:10174000074C05FB07F106FB07F70CFB06F24FF011
:10175000000605FB0CFC12EB074241EB174112EBB4
:101760000C4251EB1C4148BF7047921841EB0101FC
:10177000A3F101037047FEE7704772B6FEE710B5AC
:1017800090F825100022022905D00421C16380F8B9
:101790002420012010BD01680B6823F00E030B60AC
:1017A00001680B6823F001030B6090F84410046C8F
:1017B00001F01C03012101FA03F3636080F8251096
:1017C00080F82420104610BD10B590F82510002494
:1017D000022903D00421C16301241AE001680A68C8
:1017E00022F00E020A6001680A6822F001020A6013
:1017F00090F84410036C01F01C02012101FA02F27E
:101800005A6080F82510002180F82410816B01B106
:101810008847204610BD000070B5044600F01CF952
:101820000546601C02D004480078044400F014F916
:10183000401BA042FAD370BD180000202DE9F04FE4
:10184000DFF8E091002301270326A9F1040B85B0FE
:101850000F2509F1040AABF1040EDBE007FA03FCE3
:1018600012EA0C027ED00C7904F00304012C01D0A2
:10187000022C20D1846800945C0006FA04F80494D9
:10188000009C24EA08040094D1F80C80049C08FA17
:1018900004F8009C48EA0408C0F80880446824EA78
:1018A0000C0491F804C0CCF3001C0CFA03FC4CEAC5
:1018B000040CC0F804C00C79E443A4070DD0D0F8A0
:1018C0000CC04FEA430806FA08F42CEA040C8C68B2
:1018D00004FA08F444EA0C04C4600C7904F003042C
:1018E000022C19D1DC0800EB84040294246A4FEA2C
:1018F000437C4FEADC6CCDF810C005FA0CFC24EAFE
:101900000C04D1F81080DDF810C008FA0CF848EA91
:101910000408029CC4F8208004684FEA430806FAD1
:1019200008FC24EA0C0491F804C00CF0030C0CFA37
:1019300008FC4CEA040CC0F800C04C6814F4403FAA
:1019400067D0394CD4F860C04CF0010CC4F860C0CA
:10195000246E23F0030C04F001040094334C64441F
:10196000029400E055E0A4684FEA837C4FEA1C78BB
:1019700005FA08FC24EA0C04B0F1904F06D0DFF819
:10198000B0C0604505D14FF0010C0BE04FF0000CEA
:1019900008E0DFF8A0C0604502D14FF0020C01E082
:1019A0004FF0070C0CFA08FC4CEA040C029CC4F83B
:1019B00008C0D9F80040CC46D1F8048094435FEACF
:1019C000C82800D51443CCF80040DAF80040D446CB
:1019D000D1F8048094435FEA882800D51443CCF8FA
:1019E0000040DBF80040DC46D1F8048094435FEA15
:1019F000883800D51443CCF80040DEF80040F446A7
:101A0000D1F8048094435FEAC83800D51443CCF879
:101A100000405B1C0C682246DC407FF41FAF05B021
:101A200000F00AB808040140001002400000014024
:101A3000000400480008004830BCBDE8C08F42697F
:101A400021EA02030A4043EA0241816170470AB178
:101A5000816170478162704701488068704700006B
:101A60001800002090F84120202A24D190F840202E
:101A7000012A20D0012280F84020242280F8412031
:101A80000268136823F0010313600268136823F4EB
:101A900080531360026813680B43136001680A687F
:101AA00042F001020A60202180F84110002180F8F4
:101AB0004010084670470220704790F84120202AC5
:101AC00022D190F84020012A1ED0012280F8402027
:101AD000242280F841200268136823F00103136078
:101AE0000268136823F4706343EA012111600168FE
:101AF0000A6842F001020A60202180F841100021AA
:101B000080F84010084670470220704770B5040006
:101B100004D094F84100002510B106E0012070BD0A
:101B200084F84050204600F00FFA242084F8410049
:101B30002068016821F0010101606068216820F0DF
:101B4000706008612068816821F400418160E0686C
:101B50000128A06807D040F4044021688860E0684C
:101B6000022803D006E040F40040F6E721684FF475
:101B70000060486020684168114A11434160206854
:101B8000C16821F40041C160D4E904010843A1699E
:101B900040EA01202168C860D4E9070108432168B0
:101BA00008602068016841F001010160656420203F
:101BB00084F84100256384F84250002070BD000085
:101BC000008000022DE9FC4700260446019690F8AB
:101BD00041001F469246894620287ED120688069B0
:101BE000C043000479D594F84000012875D0012045
:101BF00084F84000242084F8410066644FF02008F7
:101C0000E068012809D029F4544040F420502168AC
:101C10004860FFF721FF05460DE0314949EA010020
:101C200030490840F3E7781C05D0FFF715FF401B4B
:101C3000B84219D8C7B1216888698969C0F34010D2
:101C4000C1F300110843EED0206880693B46C043D1
:101C5000C0064FF000024FF020012046009517D536
:101C600001F0FEFB68BB09E084F8418054F8440FA2
:101C700040F0200044F80409267022E02168C1F8F1
:101C80001C8084F8418084F84060002000F02CB86B
:101C900001F0E6FBA8B921681020C8612168C1F8ED
:101CA0001C800198504512D12068416841F4804160
:101CB00041603B46002220212046009501F0D0FBE8
:101CC00010B10120E2E708E02168C1F81C8001980A
:101CD000401C0190504593D3C6E70220D6E7000090
:101CE00000200002FF2300020CBCBDE8F0870000CA
:101CF0002DE9F84F044690F84100DDF828A01F4672
:101D000090468B4620287ED194F8400001287AD056
:101D1000012084F84000FFF79FFE06460122009054
:101D20001923D103204601F09BFBE0BB222084F85D
:101D30004100102084F8420000256564C4F8248026
:101D400067856563618D3148FF274FF080784FF0DC
:101D50000079FF2903D927853A46009039E0618D43
:101D6000218500903AE05946204601F061FB13E0DE
:101D700001F0A2FBB8B92068406A616A0870606A25
:101D8000401C6062208D401E80B22085618D491EFE
:101D90006185618D01B168B1608D32460028514680
:101DA0002046E5D100E002E001F0D4FBD0B10120F3
:101DB00000F030B85346002280212046009601F002
:101DC0004FFB0028F3D1608DFF2804D927853A46C0
:101DD00000954346C7E7608D2085009594F828203C
:101DE0004B46C0E721682020C86121684A68084B3B
:101DF0001A404A6084F8410084F8425084F8405008
:101E00000020D5E7FFE70220D2E700000024008091
:101E100000E800FE18BCBDE8E08F00002DE9F84F97
:101E2000044690F84100DDF828A01F4690468B46F6
:101E300020287ED194F8400001287AD0012084F82F
:101E40004000FFF709FE0646012200901923D10346
:101E5000204601F005FBE0BB212084F84100102062
:101E600084F8420000256564C4F8248067856563B2
:101E7000618D3148FF274FF080784FF00079FF29BE
:101E800003D927853A46009039E0618D218500907D
:101E90003AE05946204601F0CBFA13E001F080FB0E
:101EA000B8B9606A216800788862606A401C606224
:101EB000608D401E6085208D401E80B22085618D22
:101EC00001B168B1608D3246002851462046E5D107
:101ED00000E002E001F03EFBD0B1012000F030B89C
:101EE0005346002280212046009601F0B9FA0028CE
:101EF000F3D1608DFF2804D927853A4600954346E3
:101F0000C7E7608D2085009594F828204B46C0E7F0
:101F100021682020C86121684A68084B1A404A603D
:101F200084F8410084F8425084F840500020D5E7FE
:101F3000FFE70220D2E700000020008000E800FE5A
:101F400018BCBDE8E08F000030B59BB004461421FA
:101F500015A8FEF720FC54216846FEF71CFC184922
:101F60002068884229D14020002500900B956846C2
:101F700000F02EF908B1FFF700FC124CE06C40F0C5
:101F80000100E064E06C15A900F001001A904FF424
:101F9000C06015901220CDE916050320189004208A
:101FA00019904FF09040FFF749FCA06D40F40010ED
:101FB000A065A06D00F400101A901BB030BD0000A9
:101FC0000054004000100240024881680278114429
:101FD000816070471800002010B50024032000F035
:101FE00099F80F2000F008F808B1012401E000F092
:101FF00049F8204610BD000030B505461C4887B0A2
:10200000016E41F400610166006E06A900F40060F3
:10201000009001A800F0C4FA00F0F4FA1549164A3D
:10202000B0FBF1F11548491E0260416040F2E73211
:102030000021C0E903218160816100F0FAFD040004
:1020400012D10E4800F028FE04000DD1192000F036
:1020500033F8102D07D200222946192000F03AF853
:102060000748056000E0012407B0204630BD0000AD
:102070000010024040420F00002C014020040020CC
:102080001C0000200B4882B0016E41F00101016686
:10209000016E01F001010091816D41F08051816577
:1020A000806D002200F0805000900F21901E02B041
:1020B00000F010B800100240002809DB00F01F02F9
:1020C000012191404009800000F1E020C0F800119A
:1020D00070470000F0B40E4B1B680C46C3F302239C
:1020E000C3F10705042D00D90425191D072901D2C4
:1020F000002300E0DB1E012606FA05F1491E2140FF
:1021000099409E40761E16403143F0BC01F055BF09
:102110000CED00E0064900F0070208684FF6FF03E7
:10212000184040EA0220034A10430860704700004C
:102130000CED00E00000FA051649B0F5007F0868D4
:10214000C0F3412009D0022805D0086820F4C060FF
:1021500040F480600860002070470128FBD00868C8
:1021600020F4C06040F4007008600B483222006820
:1021700050430A4AB0FBF2F0401C00E0401E4A699E
:10218000520501D50028F9D148694005E3D503205F
:1021900070470000007000402400002040420F0003
:1021A0000248006800F4C060704700000070004002
:1021B0000248016841F4807101607047007000407E
:1021C0000248016841F004010160704700100240BC
:1021D0002DE9F84F0446002700889C4D3E46000537
:1021E00015D5E06B60B1B0F5000F04D0B0F5400F2D
:1021F0002BD001270AE0E86840F48030E86024E052
:102200000021201D01F072FA07001ED03E46206812
:10221000800338D5A86D4FF00008C00009D4A86D20
:1022200040F08050A865A86D4FF0010800F0805084
:102230000090DFF81CA2DAF8001041F48071CAF8AF
:102240000010FFF709FC814610E0D5F88800E16B2B
:1022500020F440000843C5F88800D8E7FFF7FCFBEE
:10226000A0EB0900022801D9032704E0DAF80000F6
:10227000C005F3D5EFB33E46B8F1000F03D0A86D0B
:1022800020F08050A8652078C00707D0D5F88800D6
:10229000216A20F003000843C5F8880020788007F1
:1022A00007D5D5F88800616A20F00C000843C5F80E
:1022B00088002078800607D5D5F88800A16A20F428
:1022C00040600843C5F888002088800507D5D5F808
:1022D0008800616B20F440200843C5F888002088FE
:1022E000400509D5D5F88800A16B20F440100843BB
:1022F00000E02EE0C5F888002078400607D5D5F824
:102300008800E16A20F440500843C5F8880020881E
:10231000C00507D5D5F88800216B20F4403008436C
:10232000C5F8880020884FF0006780044FF080686F
:102330004ED5D5F88800216C20F040600843C5F8E0
:102340008800206CB8423BD1E86840F48010E86017
:102350003EE0D5F8900010F4407014D0216D814219
:1023600011D0D5F89000D5F8901020F4407041F4C9
:102370008031C5F89010D5F8901021F48031C5F85F
:102380009010C5F89000C00711D0FFF765FB074615
:1023900041F2883907E000BFFFF75EFBC11B4945EA
:1023A00001D9032668E7D5F890008007F4D5D5F861
:1023B0009000216D20F440700843C5F890005BE761
:1023C000404505D10121201D01F090F900B10646DC
:1023D0002068400317D5D5F88800616C20F0406074
:1023E0000843C5F88800606CB84204D1E86840F43E
:1023F0008010E86007E0404505D10121201D01F073
:1024000075F900B106462088400411D5D5F888003A
:10241000A16C20F040500843C5F88800A06CB0F1D2
:10242000805F05D10221201D01F060F900B1064650
:102430002088000406D555F8880FE16C20F0804014
:1024400008432860304600F005B800000010024044
:102450000070004018BCBDE8E08F00002DE9F04797
:102460000F4605006BD0494E306800F00700B842B7
:1024700009D2306820F0070038433060306800F03F
:102480000700B8425BD12878414C80070AD5A8687C
:10249000A16801F0F001884204D9A16821F0F0019F
:1024A0000143A1602878C0072CD06868032811D0A8
:1024B000022812D0216898B1490500293FDAA168A5
:1024C00021F003010143A160FFF7C6FA804641F203
:1024D000883910E021688901EFE721688903ECE77A
:1024E0008907EAE7FFF7B8FAA0EB0801494502D9E6
:1024F0000320BDE8F087A068696800F00C00B0EB2D
:10250000810FEFD1287880070AD5A868A16801F06B
:10251000F001884204D2A16821F0F0010143A160DA
:10252000306800F00700B8420BD9306820F007008F
:1025300038433060306800F00700B84201D0012015
:10254000D7E72878400705D5A068E96820F4E0605F
:102550000843A0602878000706D5A068296920F400
:10256000605040EAC100A06000F05EF8A168094A2E
:10257000C1F30311515C01F01F01C8400649086016
:1025800006480068BDE8F047FFF736BD002002406E
:102590000010024054580008240000201C000020B5
:1025A0000F2202600C4A936803F0030343609368B0
:1025B00003F0F0038360936803F4E063C360926800
:1025C0004FF4E06303EAD20202610448006800F0BD
:1025D0000700086070470000001002400020024021
:1025E0000548064900688968054AC1F30221515C23
:1025F00001F01F01C8407047240000200010024075
:10260000945800080548064900688968054AC1F3DE
:10261000C221515C01F01F01C84070472400002016
:10262000001002409458000870B525490023184650
:102630008A68CC6812F00C0204F00306214C4FEAC1
:10264000640509D00C2A05D0042A32D0082A00D10A
:10265000284670BD012E10D10B681B0704D4D1F899
:102660009430C3F3032302E00B68C3F30313164E45
:1026700056F82330DAB10C2AEBD1C86800F0030019
:10268000022818D0032818D01846CA68CB68C2F3AD
:102690000212C3F306234343521CB3FBF2F2C86891
:1026A000C0F34160401C4000B2FBF0F070BD184622
:1026B00070BD204670BD2046E7E72846E5E70000EC
:1026C000001002400024F400645800082DE9F8438B
:1026D00004006FD0FA4DA86800F00C06E86800F01E
:1026E00003072078C00664D576B10C2E01D1012FE6
:1026F0000AD0A069002828687AD040F0010028603C
:10270000FFF7AAF980465DE02868800702D5A06936
:102710000028DED0216A2868000703D5286800F069
:10272000F00004E0D5F89400F02202EA1010814293
:1027300016D9084601F070F800283BD1286840F00F
:10274000080028602868216A20F0F000084328600B
:102750006868E16920F47F4040EA0120686016E083
:10276000286840F0080028602868216A20F0F000FE
:10277000084328606868E16920F47F4040EA01204E
:10278000686026B9206A01F047F80028D5D1FFF724
:102790004BFFA968CB4AC1F30311515C01F01F0143
:1027A000C840C9490860C9480068FFF725FC0028EF
:1027B0007ED12EE0CAE000BFFFF74EF9A0EB080083
:1027C000022876D828688007F6D5286840F00800E7
:1027D00028602868216A20F0F000084328606868B3
:1027E000E16920F47F4040EA0120686011E0FFE7E2
:1027F00020F001002860FFF72FF9804606E000BFB7
:10280000FFF72AF9A0EB08000228DAD82868800729
:10281000F6D42078C00740D0082E18D00C2E01D155
:10282000032F14D06068B0F5803F17D0B0F5A02F0B
:10283000286817D020F480302860286820F4802091
:1028400028606068E0B1FFF707F9804614E0286867
:10285000800322D56068002878D01EE0286840F404
:102860008030EDE740F480202860F7E7FFF7F4F8C8
:10287000A0EB08006428A4D828688003F6D50CE0F3
:10288000FFF7EAF8804605E0FFF7E6F8A0EB08005E
:10289000642896D828688003F6D4207880073BD532
:1028A000042E11D00C2E01D1022F0DD0E06801E0D2
:1028B000AAE1FFE0002828681ED040F4807028605C
:1028C000FFF7CAF807460CE0286840050CD5E06819
:1028D0000028C1D008E000BFFFF7BEF8C01B0228E7
:1028E00093D828684005F7D56868217C20F0F85017
:1028F00040EA016068600FE020F480702860FFF714
:10290000ABF8074605E000BFFFF7A6F8C01B02289A
:10291000B1D828684005F7D42078000729D5606928
:102920000028D5F8940012D040F00100C5F89400BA
:10293000FFF792F8074604E0FFF78EF8C01B022865
:1029400099D8D5F894008007F6D512E02BE120F055
:102950000100C5F89400FFF77FF8074605E000BFC7
:10296000FFF77AF8C01B022885D8D5F894008007B5
:10297000F6D42078400766D5A86D0027C00008D49B
:10298000A86D40F08050A865A86D012700F0805028
:1029900000904F480168C90512D40168814641F48E
:1029A00080710160FFF758F8804605E0FFF754F8A2
:1029B000A0EB080002287DD8D9F80000C005F5D5A5
:1029C000A068012816D00528D5F8900017D020F06F
:1029D0000100C5F89000D5F8900020F0040000BF79
:1029E000C5F89000A06841F28839C0B1FFF734F80B
:1029F00080460FE0D5F8900040F00100F0E740F08D
:102A00000400C5F89000F5E7FFF726F8A0EB0801F1
:102A100049454FD8D5F890008007F5D50EE0FFF76F
:102A20001BF8804606E000BFFFF716F8A0EB080190
:102A300049453FD8D5F890008007F5D41FB1A86D5F
:102A400020F08050A8652078800628D5606A00288C
:102A5000D5F8980012D040F00100C5F89800FEF7B4
:102A6000FBFF074605E000BFFEF7F6FFC01B02288C
:102A700020D8D5F898008007F6D510E020F00100A6
:102A8000C5F89800FEF7E8FF074604E0FEF7E4FF0C
:102A9000C01B02280ED8D5F898008007F6D4A06A8B
:102AA000F0B3022816D00C2E7DD0286820F080705C
:102AB000286000E0A7E0FEF7CFFF0446A6E0000094
:102AC0000010024054580008240000201C00002080
:102AD00000700040E868E26A00F00301914228D1EA
:102AE000216B00F0700209011039914221D1626B13
:102AF00000F4FE41B1EB022F1BD194F8382000F016
:102B00007841B1EBC26F14D1A18F00F4C002490823
:102B10004905A1F5001191420BD194F8401000E055
:102B20006AE04908490600F0C060A1F100718142E5
:102B30004BD00C2E73D02868400170D4286820F048
:102B400080702860FEF788FF064604E0FEF784FFE9
:102B5000801B022857D828688001F7D4F4E90B01BC
:102B60006FF00F0202EB01110843218A5204490859
:102B700002EB4151A26841EA02210843217D4FF056
:102B80007E42490802EB41610843217B40EAC16073
:102B9000E968244A11400843E860286840F08070E2
:102BA0002860E86800E03AE040F08070E860FEF7F6
:102BB00053FF044605E000BFFEF74EFF001B02284E
:102BC00021D828688001F7D527E02868800124D41F
:102BD000286840F080702860E86840F08070E86005
:102BE000FEF73AFF044604E0FEF736FF001B02281A
:102BF00009D828688001F7D50FE000BFFEF72CFF49
:102C0000001B022802D90320BDE8F8832868800150
:102C1000F4D4E86804490840E8600020F4E70120A3
:102C2000F2E700008C809D01FCFFEEFE70477047CC
:102C3000704710B5040003D094F83D0010B107E0D0
:102C4000012010BD002084F83C00204600F022F84E
:102C5000022084F83D00211D206800F045FF01207E
:102C600084F8480084F83E0084F83F0084F840006F
:102C700084F8410084F8420084F8430084F844005A
:102C800084F8450084F8460084F8470084F83D0045
:102C9000002010BD7047000090F83D10012901D0C0
:102CA00001207047022180F83D100168CA6842F097
:102CB0000102CA6000680B49884205D0B0F1804F1C
:102CC00002D00949884207D18168084A1140062983
:102CD00006D0B1F5803F03D0016841F001010160E9
:102CE00000207047002C0140004001400700010017
:102CF000704770B50446006801694FF00005C9438C
:102D0000890715D4C168C943890711D4E91E016137
:102D100001202077206880698007204602D0FFF7D5
:102D2000E7FF04E000F0A7F8204600F0A5F82577BB
:102D300020680169C943490717D4C168C9434907D5
:102D400013D46FF0040101610220207720688069AC
:102D500010F4407F204602D0FFF7CAFF04E000F0E5
:102D60008AF8204600F088F8257720680169C94371
:102D7000090716D4C168C943090712D46FF00801C6
:102D80000161042020772068C0698007204602D0B6
:102D9000FFF7AEFF04E000F06EF8204600F06CF89C
:102DA000257720680169C943C90617D4C168C9439A
:102DB000C90613D46FF01001016108202077206844
:102DC000C06910F4407F204602D0FFF791FF04E075
:102DD00000F051F8204600F04FF82577206801698F
:102DE000C943C90708D1C168C943C90704D1891EAD
:102DF0000161204600F042F820680169C9430906D4
:102E000009D4C168C943090605D46FF08001016186
:102E10002046FFF70CFF20680169C943C90509D4A2
:102E2000C168C943090605D46FF480710161204669
:102E3000FFF7FCFE20680169C943490609D4C1684F
:102E4000C943490605D46FF040010161204600F0F6
:102E50001FF820680169C94389060BD4C168C943BA
:102E6000890607D46FF0200101612046BDE870405B
:102E7000FFF7DEBE70BD7047704700000068034971
:102E8000884201D1FFF7A0B870470000002C014034
:102E900070477047704770472DE9F041026804465B
:102EA000D0691168936840F60F0528424FF000057D
:102EB00005D186067ED58E067CD5616E1BE1994FC5
:102EC00003F001060F40374374D0C70709D0CF0580
:102ED00007D501271762D4F8802042F00102C4F818
:102EE000802082070AD5DA0708D0276802223A62D2
:102EF000D4F8802042F00402C4F8802042070AD5AA
:102F0000DA0708D0236804221A62D4F8802042F03D
:102F10000202C4F8802002070CD501F020023243DF
:102F200008D0236808221A62D4F8802042F00802F0
:102F3000C4F8802002050BD54A0109D523684FF457
:102F400000621A62D4F8802042F02002C4F8802087
:102F5000D4F88020002A35D0800605D5880603D510
:102F6000616E09B120468847D4F8800021688968DD
:102F7000490602D410F0280F26D0204600F086FE25
:102F80002068806840061AD52068083050E8001F85
:102F900021F0400140E80012002AF5D1206F70B105
:102FA00061498163206FFEF70FFC00280AD0206F73
:102FB000816B01E00EE02046BDE8F0410847204665
:102FC000FFF769FFBDE8F0812046FFF764FFC4F812
:102FD0008050F7E7276E2026012F7BD1C70679D5D1
:102FE000CF0677D51020106220688068400641D552
:102FF000216F086840680004000CE3D0B4F8582042
:103000008242DFD9A4F85A000868006880062AD4F2
:10301000206850E8001F21F4807140E80012002A67
:10302000F6D12068083050E8001F21F0010140E887
:103030000012002AF5D12068083050E8001F21F066
:10304000400140E80012002AF5D1E66725662168B4
:1030500051E8000F20F0100041E80002002AF6D1EC
:10306000206FFEF78CFBB4F85800B4F85A10401AE1
:1030700081B22AE0B4F85800B4F85A10401A81B26C
:10308000B4F85A0000289DD000299BD0226852E84D
:10309000000F20F4907042E80003002BF6D1206866
:1030A000083050E8002F22F0010240E80023002BF6
:1030B000F5D1E66725666566226852E8000F20F0C4
:1030C000100042E80003002BF6D12046FFF7E1FE96
:1030D00078E7FFE7C70209D55B0207D54FF48010F8
:1030E00010622046BDE8F041FFF7D4BE020606D5C7
:1030F0000A0604D5A16E00297FF45DAF62E74006A1
:10310000E6D54806E4D52046026852E8001F21F0C3
:10311000400142E80013002BF6D18667856600F077
:10312000E4F84FE720010004793C000810B50400E2
:1031300002D0A06F10B107E0012010BD002084F87C
:103140007400204600F026F82420A067206801685B
:1031500021F001010160204600F0BEFD0128ECD005
:10316000606A10B1204600F0F5FC2068416821F447
:10317000904141602068816821F02A0181602068C7
:10318000016841F0010101602046BDE8104000F0F7
:1031900045BD0000F0B59BB00446142115A8FDF70D
:1031A000FAFA54216846FDF7F6FA20492068884269
:1031B0003AD102240026684609960094FFF708F8E1
:1031C00008B1FEF7DAFA1A48816D41F400318165E1
:1031D000816D01F400311A91C16C41F00101C164AB
:1031E000C06C15A900F001001A90042081E851007C
:1031F00003250720CDE918504FF090473846FEF7D9
:103200001DFBCDE917654FF400401995CDE9150474
:1032100015A93846FEF712FB002205212620FEF7ED
:1032200059FF2620FEF748FF1BB0F0BD00440040C8
:10323000001002402DE9F8430446806F1F461646F1
:103240000D4620284FD1CDB1C6B194F874000128A5
:1032500049D0012084F874004FF00008C4F8808041
:103260002120A067FEF7F8FBA4F850608146A4F87F
:103270005260A068B0F5805F03D004E00120BDE893
:10328000F883206928B12E465FF0000584F8748029
:1032900010E00026FAE78021204600F00BFEB8B9C6
:1032A000C6B116F8010B21680885B4F85200401E1B
:1032B000A4F85200B4F852004B464FF000020097B9
:1032C0000028E8D14FF04001204600F0F3FD30B176
:1032D0000320D4E735F8020BC0F30800E3E7202011
:1032E000A0670020CBE70220C9E77047FEE701682E
:1032F0008A69D243920701D400228A6200688169F8
:10330000C943C90703D0816941F001018161704758
:103310002DE9F047044600688A4617468169002572
:103320002E46C906A9464FF0200849D51021C16193
:1033300037E000BFBAF1FF3F33D0FEF78DFBC11B72
:10334000514502D8BAF1000F2BD12068416894F89A
:10335000422001F480418369DB431B041CD4B1F596
:10336000804F19D0202A17D0416841F48041416034
:10337000FEF772FB07460FE0FEF76EFBC01B192835
:103380000AD9606C40F02000606484F8418084F8C1
:10339000429084F84090012520688069C0438006EF
:1033A000EAD420688069C043800602D5002DC1D0D0
:1033B00003E015B92168C1F81C8046F00406012518
:1033C00021688869C20505D54FF4807246F0010670
:1033D000CA610125410509D522684FF4806146F094
:1033E0000806D1610125800502D40AE0800507D5D1
:1033F00021684FF4007046F00206C861012500E024
:103400008DB12046FFF773FF54F8240B4168074A3B
:1034100011404160206A3043206284F81D8084F8A6
:103420001E9084F81C902846BDE8F08700E800FE56
:1034300010B5C1F3090141EA02410268029C194337
:103440002143506821F000414FF4806303EA545354
:10345000024C234398430843506010BDFF63FF03B1
:103460002DE9F0411D4617460E460446DDF818804A
:1034700008E0681C06D0FEF7EFFAA0EB0800A842AF
:103480000BD855B12068806936EA000012D00020C0
:10349000B842EED00020BDE8F08154F8440F40F06F
:1034A000200044F80409202060700020A0702070E3
:1034B0000120F0E70120EBE72DE9F04120269046BE
:1034C0000F460446002530E0424639462046FFF7C5
:1034D0001FFF10BB20688069C04380061ED420688F
:1034E0008169C943490701D4218D19BB8169C94349
:1034F000C90604D41021C1610420606400E0656441
:103500002068C66120684168114A1140416084F812
:10351000416084F8425084F8405016E0FEF79CFA6F
:10352000A0EB0800B84208D83FB120688069C043CA
:103530004007C9D40020BDE8F08154F8440F40F0A2
:10354000200044F80409667025700120F3E70000AC
:1035500000E800FE70B516460D4604460DE0324602
:1035600029462046FFF7D4FE08B1012070BDFEF7C2
:1035700073FA801BA84207D835B120688069C04320
:103580008006ECD4002070BD54F8440F40F02000B9
:1035900044F80409202060700020A0702070E4E747
:1035A00070B516460D4604460FE0324629462046C1
:1035B000FFF7AEFE08B1012070BD681C05D0FEF714
:1035C0004BFA801BA84207D835B120688069C043F8
:1035D0008007EAD4002070BD54F8440F40F020006A
:1035E00044F80409202060700020A0702070E2E7F9
:1035F00010B586B014216846FDF7CDF81548C16CAA
:1036000041F00401C164C16C01F004010591C16C79
:1036100041F00101C164C16C01F001010591C16C6F
:1036200041F00201C164C06C0B4C00F00200059037
:10363000002208212046FEF70AFA08200090012007
:103640000021CDE90101039169462046FEF7F6F815
:1036500006B010BD0010024000040048124810B52A
:10366000104901601149416000210122C0E90212A4
:10367000016141618161C1610162FEF747FA08B1F0
:1036800072B6FEE700210848FEF7ECF908B172B601
:10369000FEE700210448FEF710FA002801D072B6B8
:1036A000FEE710BD0054004090000020BB7C70007D
:1036B0000C4810B50A4901604FF4E1314160002126
:1036C00081600C22C160C0E904128161C1610162A4
:1036D0004162FFF72BFD002801D072B6FEE710BD56
:1036E00000440040E4000020FEE7FEE72DE9F04141
:1036F000444C05468846E0680026810728680DD0BE
:10370000E16801F00301814216D1A8B1E06869685F
:10371000C0F30210401C88420ED120E0012804D0E2
:10372000022805D0032807D108E02168890701E0B5
:1037300021684905002907DB01265FE0216889032C
:1037400002D421684903F5E7E1686A686FF00F0366
:1037500021F0730103EB021211430143E160206881
:1037600020F080602060FEF777F9074605E000BF93
:10377000FEF772F9C01B022837D820680001F7D481
:10378000B8F1000F18D0B8F1010F1DD0287D4FF00F
:103790007E41400801EB4060A96840EA01202169B0
:1037A000194A114008432061206840F08060206081
:1037B000FEF752F907461AE0A868297B000240EAA2
:1037C000C1602169114AECE7288A1149400801EBE0
:1037D0004050A96840EA012021690E4AE1E700BF94
:1037E000FEF73AF9C01B022801D9032606E020683B
:1037F0000001F5D52069A969084320613046BDE87C
:10380000F081000000100240FF80FFF9FF80FF07F9
:103810000000E0FFFF809FFFF8B51C4D0646002426
:10382000A86DC00002D5FEF7BBFC0DE0A86D40F00E
:103830008050A865A86D00F080500090FEF7B0FCA5
:10384000A96D21F08051A965B0F5007F04D0802ECC
:1038500007D94FF003040AE0802E08D9A02E01D822
:1038600004E001D1022402E0702E00D101240848B6
:10387000016821F0070121430160006800F00700A2
:10388000A04201D00120F8BD0020F8BD0010024088
:103890000020024070B54FF0FF330A22D0210948C2
:1038A000FEF790F900280BD1074D00240821284687
:1038B000FEF7C5F8C820FDF7AFFF641C062CF5DB4A
:1038C00070BD00009000002000040048F8B51A4DBB
:1038D00011200A24287001232A46D0211748009479
:1038E000FEF79CFA01236A1CD12114480094FEF7CC
:1038F000FFF995F90160AD1C1220287001232A46BA
:10390000D0210E480094FEF789FA01236A1CD121C8
:103910000A480094FEF7ECF96878B5EE001A8009C1
:1039200000EE100AF8EE400A00EE106AB8EEC00A87
:1039300000EE810AF8BD0000060000209000002083
:1039400038B51C4D00200A24287001232A46D021B6
:1039500019480094FEF762FA01236A1CD121164827
:103960000094FEF7C5F90120AD1C034628702A46D5
:10397000D02111480094FEF751FA01236A1CD1218D
:103980000D480094FEF7B4F9AD1C02202870012305
:103990002A46D02108480094FEF740FA01236A1C09
:1039A000D12105480094FEF7A3F9687800F03F00A4
:1039B000687038BD00000020900000207CB50646ED
:1039C00000208DF804000D468DF805200A240223FE
:1039D00001AAD0210E480094FEF720FA01208DF8AC
:1039E00004008DF80550022301AAD0210848009454
:1039F000FEF714FA02208DF8040003468DF80560E6
:103A000001AAD02102480094FEF708FA7CBD00000C
:103A10009000002010B5502080F31188BFF34F8F25
:103A2000BFF36F8F01F0D2FC18B104494FF0805002
:103A30000860002080F3118810BD000004ED00E054
:103A400010B596B044216846FCF7A5FE142111A8D4
:103A5000FCF7A1FE4FF40070FEF76EFB08B172B6E2
:103A6000FEE7FEF7A5FB184850F8901F21F018015B
:103A70000160142000900120029000246021069033
:103A8000CDE907410221CDE90A100C9010200D90DC
:103A90000720CDE90E0168461091FEF717FE08B128
:103AA00072B6FEE70F2011900320CDE912041494A2
:103AB000012111A81594FEF7D1FC08B172B6FEE7FA
:103AC000FEF77EFB16B010BD0010024002480168F0
:103AD00041F470010160704788ED00E00148FFF794
:103AE00008B900002004002070B50268164B4FF0A2
:103AF0008046984201D0B04203D122F070044A6857
:103B00002243124C124D984205D0B04203D0A0423D
:103B100001D0A84203D122F44076CA6832434E69EC
:103B200022F08002324302608A68C2620A688262BE
:103B3000984203D0A04201D0A84201D10969016393
:103B40000121416170BD0000002C01400040014096
:103B50000044014090F82410C90706D001684A6863
:103B6000836A22F400321A434A6090F824108907CD
:103B700006D501684A68C36A22F480321A434A6053
:103B800090F82410490706D501684A68036B22F4AF
:103B900080221A434A6090F82410090706D501686C
:103BA0004A68436B22F400421A434A6090F824109A
:103BB000C90606D501688A68836B22F480521A43CD
:103BC0008A6090F82410890606D501688A68C36B5C
:103BD00022F400521A438A6090F82410490611D545
:103BE00001684A68036C22F480121A434A60016C2F
:103BF000B1F5801F06D101684A68436C22F4C00207
:103C00001A434A6090F82410090606D501684A68EC
:103C1000806C22F4002202434A607047F8B5002607
:103C20000446C0F88060FDF717FF0546206800686D
:103C30006FF07E47000708D52B4600224FF4001195
:103C40002046009700F036F960B920680068400708
:103C50000AD52B4600224FF480012046009700F041
:103C600029F908B10320F8BD2020A067E067266687
:103C700084F874600020F8BD10B5806A0021A0F8B7
:103C80005A10A0F85210FFF706F910BD016851E86C
:103C9000002F22F4907241E80023002BF6D1016836
:103CA000083151E8002F22F0010241E80023002BE7
:103CB000F5D1016E012908D1026852E8001F21F0F8
:103CC000100142E80013002BF6D12021C16700212A
:103CD00001664166704700002DE9F0410446016825
:103CE00080682269E6691043626900253243104307
:103CF000694B0A68694E324002430A602068416895
:103D0000E26821F44051114341602168A069994261
:103D100001D0226A10438A6822F4306202438A602A
:103D20005F4927685F488F420DD1D0F8880010F0B6
:103D3000030006D0012838D0022834D0032821D12E
:103D400035E001211FE058498F420BD1D0F888009F
:103D500010F00C0025D0042827D0082823D00C28E8
:103D600010D124E09F420DD1D0F8880010F44060BB
:103D700017D0B0F5806F18D0B0F5006F13D0B0F544
:103D8000406F14D01021494A00264FF400409F4252
:103D90002FD171B102290FD004290FD0082973D176
:103DA0000FE00021EFE70221EDE70421EBE7082116
:103DB000E9E7FEF715FC03E0104602E0FEF734FCED
:103DC000F0B3626802EB420181425DD8B0EB023F82
:103DD0005AD8010E03025008181871410023FCF74D
:103DE000C5FA334AA0F5407191424DD82168C860A8
:103DF0004BE0E3694FF6EF77834228D1092943D29C
:103E0000DFE801F005080B420D4242421000FEF7C8
:103E1000E7FB06E0FEF7F6FB03E0104602E0FEF7E4
:103E200003FC68B14100606801EB5001B1FBF0F0A8
:103E3000A0F11001B94227D84FF6F071014000E01F
:103E400023E0C0F3420001432068C1601DE009295E
:103E50001AD2DFE801F005080B190D191919100025
:103E6000FEF7BEFB06E0FEF7CDFB03E0104602E0E6
:103E7000FEF7DAFB48B1616800EB5100B0FBF1F0EE
:103E8000A0F11001B94205D9012566662846A6664B
:103E9000BDE8F08180B2A9E700800040F369FFEF40
:103EA0000038014000100240004400400024F400AB
:103EB000FFFC0F002DE9F0479A4617460E460446D0
:103EC0004FF000094FF02008089D4AE0681C48D0D8
:103ED000FDF7C2FDA0EB0A00A8422AD84DB3206826
:103EE000016849073DD5C069C043000539D4216840
:103EF0004FF400600862206850E8001F21F4D07180
:103F000040E80012002AF6D12068083050E8001F6F
:103F100021F0010140E80012002AF5D1C4F87880B0
:103F2000C4F87C80C4F8808084F874900320BDE8D5
:103F3000F087216851E8000F20F4D07041E80002BA
:103F4000002AF6D12068083050E8001F21F0010156
:103F500040E80012002AF5D1C4F87880C4F87C80CB
:103F6000E2E72068C06936EA000004D00020B842C9
:103F7000ACD00020DBE70120F9E700000148FEF7A4
:103F80008BBF0000E4000020FEE703B4019841006D
:103F9000009850EAC12018BF04204A0D18BF40F015
:103FA000010040F2FF72B2EB515F08BF40F0020027
:103FB000012808BF052002B070470907090E002834
:103FC00004DB00F1E02080F80014704700F00F00DF
:103FD00000F1E02080F8141D704730380A2801D223
:103FE0000120704700207047EFF30580002800D0C3
:103FF0000120704790B0FDF7EFFFFFF721FDFFF7BD
:10400000F7FAFFF755FBFFF729FBFFF743FC002208
:1040100030211420FFF7D2FC00200E900F900EA844
:1040200000F030F80C4C1C220C4960616846FCF72B
:1040300080FB0021684600F087F80849E0601C22F8
:104040001C3107A8FCF775FB002107A800F07CF8DD
:10405000206100F012F8FEE7000000201C58000864
:1040600001460020842900D0C81C704710B500B953
:10407000012000F0CDFC002010BD10B500F064FD63
:10408000002010BD41684FF0010009B100F04DBEA5
:1040900000F040BE38B5002405460094FFF7A4FFA9
:1040A00090B16946284600F095FF012801D0FF2015
:1040B00038BD009888B10A494FF080500860BFF3BE
:1040C0004F8FBFF36F8F08E000231A46194628462A
:1040D00000F0D0FE012800D0FF24204638BD0000AB
:1040E00004ED00E038B505004FF0000000900FD05F
:1040F0000024481C0ED001B10C46FFF775FFB8B183
:104100006A460021284600F0B3FF012816D104E0DA
:10411000802038BD4FF0FF34EFE7009880B10949A7
:104120004FF080500860BFF34F8FBFF36F8F07E0F1
:104130002146284600F0EAFF012801D0FF2038BDC3
:10414000002038BD04ED00E07FB50D46044641690E
:10415000B0F9080081B1A16971B1FFF781FFD4E91D
:1041600005128DE80700D4E900102B46226901F002
:10417000F3F8039004B070BDFFF772FF03A9CDE917
:104180000001208A2B4682B2D4E9001001F0B4F875
:10419000012801D00020EDE70398EBE72DE9F0417D
:1041A000184C0F460546E6682068001D00F03EFBEF
:1041B00038B9206890F82C1001208840216981438B
:1041C0002161681C07D137B12168BDE8F0410E4874
:1041D000091D00F06FBB20683544B5424560216879
:1041E00005D2A06BBDE8F041091D00F04BBB606B30
:1041F000091D00F047FBA06A854200D2A562BDE818
:10420000F081000028000020480500202DE9F04141
:10421000054600F05BFB2E4CA068401CA0602068A7
:104220002C4F10B1606940B32DE02560A0680128D3
:1042300029D1002606EB860007EB800000F014FB76
:10424000761C072EF6D323488C3000F00DFB214856
:10425000A03000F009FB1F48B43000F005FB1D48FA
:10426000C83000F001FB1B48DC3000F0FDFA1948B3
:104270008C3060631430A06305E02068E96AC06A8E
:10428000884200D82560606A401C6062E96A0120AB
:10429000226988401043206101EB810007EB800018
:1042A000291D00F007FB00F031FB606900280CD0ED
:1042B0002068E96AC06A884207D207494FF08050F7
:1042C0000860BFF34F8FBFF36F8FBDE8F081000030
:1042D000280000206C04002004ED00E030B4026CE3
:1042E0000B46002A0BD0C1681144C1608468A1420A
:1042F00001D30168C16030BC1846FCF7D5B930BCA9
:1043000070472DE9F041856B174604460026026C84
:1043100082B1C7B1E068FCF7C7F9E168206C091AFF
:10432000E1602268914202D2A168081AE060022F7F
:1043300016D017E02068A8B9A06801F0ADF80646CD
:104340000020A0600EE06068FCF7AEF9216C6068A8
:1043500008446060A168884204D32068606001E07E
:1043600005B16D1E6D1CA5633046BDE8F08110B52A
:10437000044690F8510058B101280CD002280FD003
:10438000502080F31188BFF34F8FBFF36F8FFEE78C
:10439000206B00F0CFFA2046BDE8104000F0CABA0A
:1043A00010BD00000F4840F6B831420705D0C01DCF
:1043B0000C4A20F00700821A891A0B4A0023014494
:1043C000C2E900030839183A21F0070111604B6077
:1043D0000B600B1AC0E9001393604FF0004053606C
:1043E000506170475C0500207C000020144E154C85
:1043F000A6F1C8074FF08058DFF84C9012E000BFDC
:1044000000F064FAF068C568281D00F00FFAA06893
:10441000401EA0606068401E606000F077FA284689
:10442000FFF7A5FF60680028EAD138680128F9D9AC
:10443000C9F80080BFF34F8FBFF36F8FF2E7000022
:10444000340500202800002004ED00E0002807D0FB
:104450000021816001600B460A46C16000F00ABD80
:1044600070470346009829B10260C0E90F3101216D
:1044700000F0BCBC0060F8E72DE9F0479A46DDE9A2
:10448000098481466FF00303206B03EB8202104422
:10449000089E20F00707780707D0502080F3118886
:1044A000BFF34F8FBFF36F8FFEE7002561B1002090
:1044B00023180A5C83F834200A5C12B1401C1028CF
:1044C000F6D384F8435001E084F83450072E00D32B
:1044D0000626E662C4E91165201D00F0D0F904F15A
:1044E000180000F0CCF92461C6F107006462A061F5
:1044F000E56484F8505052464946384600F010F9B9
:104500002060B8F1000F01D0C8F80040BDE8F08786
:1045100030B5114900E011460A688242FBD34B686E
:104520005C18844203D140681844486008464368D8
:104530001C18944209D1084C183C2468A24209D0A6
:1045400052681A4442600A6812680260814200D0D0
:10455000086030BD0460F9E77C00002010B5044617
:1045600000F0B4F9A06B28B15FF0000400F0CEF9C0
:10457000204610BD0124F9E70648416B096829B1BE
:10458000416BC968C9684968816270474FF0FF3163
:10459000FAE700002800002008484068401C4FF05F
:1045A000500080F3118804D0BFF34F8FBFF36F8F9B
:1045B000FEE7BFF34F8FBFF36F8FFEE7840000204D
:1045C0002DE9F041044600F081F994F9455004F1D9
:1045D000240609E0606A48B1304600F0EFFF08B1F8
:1045E00000F044FA6D1E6DB2002DF3DC4FF0FF3683
:1045F00084F8456000F08AF900F068F994F94450B5
:1046000004F1100709E0206948B1384600F0D6FFF0
:1046100008B100F02BFA6D1E6DB2002DF3DC84F8AA
:104620004460BDE8F04100F071B900002DE9F041AF
:104630000546002700F0BEFA324E306808B9FFF791
:10464000B1FE706905424ED1C5B3083568070ED07A
:1046500005F00700C0F108000544680707D05020A6
:1046600080F31188BFF34F8FBFF36F8FFEE72DB339
:104670007068854237D82348183001460C6801E03D
:1046800020460C466168A94202D221680029F7D170
:1046900031688C4227D0076821680160606808375C
:1046A000411B10290FD96019420708D0502080F310
:1046B0001188BFF34F8FBFF36F8FFEE713E04160A8
:1046C0006560FFF725FF61687068401A7060B26826
:1046D000904200D2B060706901430020C4E900013B
:1046E000F068401CF06000F0A3FF780707D050206E
:1046F00080F31188BFF34F8FBFF36F8FFEE738460B
:10470000BDE8F081640000200449086818B1086819
:10471000826C521C826408687047000028000020E8
:1047200010B5031F4FF080741C601B1F21F00101A6
:104730001960191F044B0B6014390A60091F6FF0D0
:10474000020244380A6010BD994500084FF0FF345A
:10475000134D4FF4FA6600BFFFF7B8F810EE100AD9
:1047600000F0E4FF41EC100B0EA153EC102B1148AC
:10477000FBF774FE21466869FFF7B4FC0D48FBF7B0
:1047800074FF0C4982B22346A1F1B600FEF752FD38
:104790006869FFF77FFC3046FFF768FCDCE7000044
:1047A0000000002054656D703A20252E3266B0431B
:1047B0000D0A00009A01002008B5144E4FF0FF3595
:1047C000B71C06F1040834464FF47A79FFF7B8F8BD
:1047D000707800907B7898F801200DA11248FBF7C3
:1047E0003DFE29466069FFF77DFC0F48FBF73DFF62
:1047F0000D4982B22B46A1F18400FEF71BFD6069D2
:10480000FFF748FC4846FFF731FCDFE700000020D7
:1048100054696D653A20253032783A253032783A3D
:10482000253032780D0A000068010020D0E90132FD
:1048300001699A60D0E901235A604A68824201D135
:1048400082684A60002202610868401E08600868A9
:1048500070470000034B036003F1540008608020A0
:1048600010607047CC01002000F108014FF0FF32CA
:10487000C0E90112C160016100210160704700219F
:104880000161704730B50B685A1C02D000F1080274
:1048900002E0026904E02246546825689D42FAD984
:1048A00053684B6099608A60516008610168491CD7
:1048B000016030BD42684A6093688B6093685960BC
:1048C000916008610168491C01607047502080F3C5
:1048D0001188BFF34F8FBFF36F8F0A494868401CA0
:1048E000486001280CD10848006810F0FF0F07D07D
:1048F000502080F31188BFF34F8FBFF36F8FFEE717
:10490000704700008400002004ED00E0084948687A
:1049100028B1401E486001D180F3118870475020B3
:1049200080F31188BFF34F8FBFF36F8FFEE7000056
:104930008400002070B500282AD0164DA0F108048C
:1049400060686969084207D1502080F31188BFF37D
:104950004F8FBFF36F8FFEE722683AB1502080F38C
:104960001188BFF34F8FBFF36F8FFEE788436060FE
:1049700000F020F960686968084468602046FFF725
:10498000C7FD2869401C2861BDE8704000F050BE9A
:1049900070BD0000640000204FF0E02000210161A4
:1049A000816105494FF47A720968B1FBF2F1491E41
:1049B00041610721016170472400002010B5FBF719
:1049C000A1FC114910280ED300F1E02090F8F0036B
:1049D0000A78904207D2502080F31188BFF34F8F9E
:1049E000BFF36F8FFEE709480068896800F4E06054
:1049F000884207D9502080F31188BFF34F8FBFF34F
:104A00006F8FFEE710BD0000840000200CED00E079
:104A100010B5020014D00F48006B38B1502080F35D
:104A20001188BFF34F8FBFF36F8FFEE700F0C2F81E
:104A300000211046FFF7B2FB00F0FAFD002807D175
:104A400005494FF080500860BFF34F8FBFF36F8F61
:104A500010BD00002800002004ED00E002490A6AB1
:104A60000260C968416070472800002001490120A8
:104A7000C86170472800002010B50C4650B10949A4
:104A800009681831FFF7FEFE2046BDE810400121FD
:104A9000FFF784BB502080F31188BFF34F8FBFF323
:104AA0006F8FFEE72800002070B5040047D0A26C8D
:104AB000A2B1606C884200D30146E06A88423ED0D1
:104AC000012A3CD11E4D2A6894420FD1502080F318
:104AD0001188BFF34F8FBFF36F8FFEE7502080F335
:104AE0001188BFF34F8FBFF36F8FFEE7E162A269BA
:104AF000002A02DBC1F10701A161124E00EB800028
:104B0000616906EB8000814219D1201DFFF78EFEFE
:104B1000012130B994F82C002A6901FA00F082438F
:104B20002A61E06A2A6981401143296100EB800013
:104B300006EB8000211DBDE87040FFF7BBBE70BDD5
:104B4000280000206C04002010B586B000240394D7
:104B500005AA04A903A80494FFF77CFEDDE903017C
:104B60000094CDE9011000230EA11048059A00F031
:104B7000F3FB0F490028C86211D0502080F3118840
:104B8000BFF34F8FBFF36F8F4FF0FF30886201206C
:104B90004861CC6006B0BDE8104000F041B806B0F6
:104BA00010BD000049444C4500000000ED430008E2
:104BB000280000200248016B491C01637047000077
:104BC000280000201448016B11B10121C161704718
:104BD0000021C1610169B1FA81F1C1F11F0101EB4D
:104BE00081020E4951F822306BB101EB820101F1D3
:104BF00008034A6852684A609A4201D152684A6082
:104C0000D16801607047502080F31188BFF34F8F47
:104C1000BFF36F8FFEE70000280000206C04002027
:104C20001CB537480168374A914207D1502080F3BC
:104C30001188BFF34F8FBFF36F8FFEE700683149D4
:104C4000491E884207D1502080F31188BFF34F8F4F
:104C5000BFF36F8FFEE72C4908780190FF200870A2
:104C600008788DF800009DF800009DF8002000F005
:104C7000F000904207D0502080F31188BFF34F8F8F
:104C8000BFF36F8FFEE79DF80000204C00F050004E
:104C900020700720A06005E09DF8002052008DF8EC
:104CA0000020401E9DF800201206F5D4A0600328C5
:104CB00007D0502080F31188BFF34F8FBFF36F8F61
:104CC000FEE74FF44070A060019808700C48203057
:104CD000016841F470010160016841F070410160B8
:104CE000FFF75AFE00206060FBF7D4FA084801681D
:104CF00041F040410160FBF7B9FA00201CBD000003
:104D000000ED00E071C20F4100E400E084000020EB
:104D100034EF00E010B502460021012000F012F847
:104D20000446FFF793FB204610BD38B50B46002222
:104D300000901146012000F026F80446FFF786FB9C
:104D4000204638BDF8B517460E46050013D005FBC2
:104D500006F04830FFF76AFC04000AD0002084F80F
:104D6000460004F148023B46314628460094FFF7CE
:104D700078FB2046F8BD502080F31188BFF34F8F99
:104D8000BFF36F8FFEE738B5049D18B153B1CAB1B8
:104D900081B120E0502080F31188BFF34F8FBFF323
:104DA0006F8FFEE7502080F31188BFF34F8FBFF362
:104DB0006F8FFEE7502080F31188BFF34F8FBFF352
:104DC0006F8FFEE739B1502080F31188BFF34F8F0A
:104DD000BFF36F8FFEE748241C46012384F846305A
:104DE0002B460094FFF73DFB204638BD70B50D46BD
:104DF000040025D0FFF76AFDD4E90F20216802FBEB
:104E00000011A1600021A163216861600A46D4E914
:104E10000F01401E00FB0121E16021464FF0FF30F1
:104E200001F8440F487004F110008DB1FFF71CFD2C
:104E300004F12400FFF718FDFFF768FD012070BDA5
:104E4000502080F31188BFF34F8FBFF36F8FFEE7C1
:104E500021690029F0D000F0B1FB0028ECD0044912
:104E60004FF080500860BFF34F8FBFF36F8FE3E7C1
:104E700004ED00E02DE9FF4782B01D468A464FF061
:104E80000008040003D0BAF1000F08D011E0502050
:104E900080F31188BFF34F8FBFF36F8FFEE7206C55
:104EA00038B1502080F31188BFF34F8FBFF36F8F5D
:104EB000FEE7022D0AD1E06B012807D0502080F3D5
:104EC0001188BFF34F8FBFF36F8FFEE700F070FACA
:104ED0003F4F4FF000094FF0805648B9049838B161
:104EE000502080F31188BFF34F8FBFF36F8FFEE721
:104EF000FFF7ECFCA06BE16B884207D3022D05D0D5
:104F00000498D0B1B8F1000F1AD01EE02A465146DD
:104F10002046FFF7F6F9616A19B104F1240000F0A8
:104F20004DFB20B13E60BFF34F8FBFF36F8FFFF794
:104F3000EDFC012006B0BDE8F087FFF7E7FC22E0BA
:104F40006846FFF78BFD4FF00108FFF7DFFCFFF726
:104F500031FEFFF7BBFC94F94400401C01D184F8FA
:104F6000449094F94500401C01D184F84590FFF726
:104F7000CDFC04A9684600F085F930B12046FFF762
:104F80001FFB00F055FB0020D4E7FFF79FFCA06B50
:104F9000E16B884213D1FFF7B9FC04F110000499CA
:104FA000FFF76AFD2046FFF70BFB00F041FB0028EE
:104FB0009ED13E60BFF34F8FBFF36F8F98E7FFF72F
:104FC000A5FC2046FFF7FCFA00F032FB90E700005A
:104FD00004ED00E070B50E46040009D0206C78B1F5
:104FE000502080F31188BFF34F8FBFF36F8FFEE720
:104FF000502080F31188BFF34F8FBFF36F8FFEE710
:10500000206848B9A06838B1502080F31188BFF3F8
:105010004F8FBFF36F8FFEE7FFF7D0FC5020EFF309
:10502000118580F31188BFF34F8FBFF36F8FA16B92
:10503000E06B884218D994F94500491CA163411CD2
:1050400004D0401C84F8450001200EE0606A00286E
:10505000FAD004F1240000F0B1FA0028F4D0002EB8
:10506000F2D001203060EFE7002085F3118870BD99
:105070002DE9F04790468946040003D0B9F1000FAE
:1050800008D011E0502080F31188BFF34F8FBFF399
:105090006F8FFEE7206C38B1502080F31188BFF38A
:1050A0004F8FBFF36F8FFEE7FFF788FC5020EFF3C1
:1050B000118680F31188BFF34F8FBFF36F8FA76BFB
:1050C000F7B194F9445049462046FFF707F97F1E8F
:1050D000A763681C04D06D1C84F84450012010E0C4
:1050E00020690028FAD004F1100000F067FA0028C7
:1050F000F4D0B8F1000FF1D00121C8F80010EDE7AD
:10510000002086F31188BDE8F08700002DE9F34305
:10511000002683B00400354609D0206C78B15020B9
:1051200080F31188BFF34F8FBFF36F8FFEE75020DE
:1051300080F31188BFF34F8FBFF36F8FFEE700F04E
:1051400037F9DFF83C814FF000094FF0805748B93C
:10515000049838B1502080F31188BFF34F8FBFF30C
:105160006F8FFEE7FFF7B2FBA06BC8B1401EA063D4
:10517000206810B9FFF7C8FAA060206950B104F1A7
:10518000100000F01BFA28B1C8F80070BFF34F8F71
:10519000BFF36F8FFFF7BAFB012005B0BDE8F083C6
:1051A000049808B166B10FE03DB1502080F311883A
:1051B000BFF34F8FBFF36F8FFEE7FFF7A7FB5DE0F5
:1051C0006846FFF74BFC0126FFF7A0FBFFF7F2FC58
:1051D000FFF77CFB94F94400401C01D184F8449013
:1051E00094F94500401C01D184F84590FFF78EFBEF
:1051F00004A9684600F046F80028204612D0FFF7C0
:10520000DFF900F015FA2046FFF7A8F90028A9D029
:105210009DB3FFF75BFB606A50B3206B0068C0F181
:10522000070126E0FFF79AF9E0B1206838B9FFF7E7
:105230004DFBA06800F07CF90546FFF767FB04F121
:1052400024000499FFF718FC2046FFF7B9F900F095
:10525000EFF9002886D1C8F80070BFF34F8FBFF375
:105260006F8F7FE72046FFF7ABF900F0E1F979E7B0
:105270000021A068FFF718FC9FE7FFE700208CE7FC
:1052800004ED00E02DE9F0410C46050011D0C4B159
:10529000FFF71CFB174BDA686E682068911B471CF0
:1052A00017D02F681B6A9F4219D0964217D8012445
:1052B00010E0502080F31188BFF34F8FBFF36F8F42
:1052C000FEE7502080F31188BFF34F8FBFF36F8F3D
:1052D000FEE70024FFF71AFB2046BDE8F081884274
:1052E00005D9401A20602846FFF7B8FBF1E70020F7
:1052F0002060DCE7280000202DE9FF5F8346DDE920
:105300000E87994616468A469000FFF78FF90500EA
:105310001CD05420FFF78AF9040014D00020256324
:1053200084F85100CDE90240CDE900874B46324672
:1053300051465846FFF7A0F82046FEF767FF0120C8
:1053400004B000F006B82846FFF7F4FA4FF0FF303B
:10535000F6E730BCBDE8C09FF0B585B0DDE90B6471
:105360000A9DA6B1DCB1542700972663022684F873
:105370005160002604AFCDE90246CDE90057FFF7A2
:105380007BF82046FEF742FF049805B0F0BD5020A0
:1053900080F31188BFF34F8FBFF36F8FFEE750206C
:1053A00080F31188BFF34F8FBFF36F8FFEE70000CC
:1053B0000548416919B1006B18B100207047012000
:1053C0007047022070470000280000202DE9F041BE
:1053D0002F4C0026206B28B1A069401CA0613046EC
:1053E000BDE8F081E5686D1CE56013D1606B006875
:1053F00038B1502080F31188BFF34F8FBFF36F8F08
:10540000FEE7606BA16B6163A063206A401C2062B1
:10541000FFF7B2F8A06ADFF87C80854209D3606BA1
:105420000068A0B1606BC068C7687868854211D217
:10543000A0622068C06A00EB800158F821000128B2
:1054400000D90126E0690028C9D00126C7E74FF03E
:10545000FF30EDE7381DFFF7E9F9B86A18B107F139
:105460001800FFF7E3F9F96A012022698840104328
:10547000206101EB810108EB8100391DFFF71AFA69
:10548000F86A2168C96A8842C9D30126C7E70000C3
:10549000280000206C04002070B504004FF00001CB
:1054A00040D0214D2868844207D0502080F31188D5
:1054B000BFF34F8FBFF36F8FFEE7A06C38B1401E74
:1054C000A064636CE26A9A422CD040B12AE050207A
:1054D00080F31188BFF34F8FBFF36F8FFEE7201D5E
:1054E000FFF7A4F9114A012150B9E06A00EB8003EB
:1054F00052F8233023B92B6901FA00F083432B6162
:10550000606CE062C0F10700A061E06A2B69814035
:105510001943296100EB800002EB8000211DFFF799
:10552000C9F90121084670BD280000206C04002044
:1055300070B504004FF0000034D01E4DE16A2A68B7
:10554000D26A91422FD2A069002804DB2868C06A81
:10555000C0F10700A061184E01EB8101606906EB04
:10556000810188421AD1201DFFF760F9012130B96D
:1055700094F82C002A6901FA00F082432A61286815
:10558000C06AE0622A6981401143296100EB800012
:1055900006EB8000211DFFF78DF902E02868C06A44
:1055A000E062012070BD616C2A68D26A9142F8D332
:1055B00070BD0000280000206C0400202DE9F0419F
:1055C000C068C468ACB104F118000746FFF72EF9B3
:1055D000154D286B0126A0B139461448FFF76AF92A
:1055E000E06A2968C96A88421CD90120EE61BDE8D9
:1055F000F081502080F31188BFF34F8FBFF36F8F7E
:10560000FEE7201DFFF712F9E16A2A6906FA01F0A8
:105610001043286101EB81000449B43901EB80009B
:10562000211DDBE70020E2E7280000202005002004
:105630002DE9F0472C4D00242746286B38B1FFF7A1
:1056400045F9286B401E2863286B40B146E0502086
:1056500080F31188BFF34F8FBFF36F8FFEE7A96808
:10566000224E0120D1B3A6F1B40980463068E8B1DA
:10567000F068C46804F11800FFF7D8F8201DFFF7A0
:10568000D5F8E06A2A6908FA00F11143296100EBB4
:10569000800109EB8100211DFFF70CF9E06A296800
:1056A000C96A8842E2D3C5F81C80DFE70CB1FEF777
:1056B00063FFAC6944B14646FFF788FE00B1EE6176
:1056C000641EF9D10020A861E86938B108490127B2
:1056D00038070860BFF34F8FBFF36F8FFFF716F9DE
:1056E0003846BDE8F0870000280000202005002093
:1056F00004ED00E010B500290AD00878002807D092
:1057000005487844FBF728FC002801D0002010BD94
:105710000248784410BD0000AA020000A202000066
:105720000808A0F500114FEA3101704743004FEA25
:10573000D30C4FEA3C0C43401FBF40070CF16051B3
:1057400013F0FE4F70471CF0006F03D100200CF0E7
:10575000004170470CF0004343EA507010B540EA36
:10576000CC0000F00EF800BF000000924FEA0001EC
:10577000FFF7D6BF4FF000414FF00000A1F5002128
:1057800070470EF1020E2EF0030E5EF8044B244219
:1057900004D44FEA4102B2F17F4F11D84FEA4003DF
:1057A000B3F17F4F0CD80ED14FEAD07CB2F17F4FCE
:1057B0000CEB4C0C0CF1020C08BF4CEBD17C04E060
:1057C0004FF0080C01E04FEAD17C0CEB4C0324FABB
:1057D00003F404F00704B4F1040C06D20EEB840CBD
:1057E000BDE810404CF0010C6047DFE80CF0070802
:1057F00002024FF00040A0F5800010BD08464200B4
:1058000018BFD2F1807288BF00F0004010BD4FF089
:105810004070E1EE100A7047FBF719B96C590008A7
:10582000B94700080000000000000000000100006F
:1058300000000000000000007C5900084D470008EF
:105840000000000000000000000100000000000057
:10585000000000000000000000000000010203043E
:1058600006070809A0860100400D0300801A060003
:1058700000350C0040420F0080841E0000093D00EE
:1058800000127A000024F40000366E010048E8019E
:10589000006CDC02000000000102030430313233EE
:1058A0003435363738394142434445464030580054
:1058B0003031323334353637383961626364656686
:1058C00040307800040000080000000000000002E2
:1058D000000100001000000002400000000000A0D5
:1058E0000000000005400000000000C800000000AB
:1058F0000C4000000000409C000000001940000027
:105900000020BCBE0000000034400000BFC91B8E58
:1059100000000004B5400000504BCFD06607E2CF36
:10592000010000006C4100003E8251AADFEEA73466
:1059300001000000D9420000DCB5A0E23A301F9718
:10594000FFFFFFFFB4450000FD25A0C8E9A3C14F3C
:10595000FFFFFFFFFF3F000000000080000000008D
:10596000FF3F0000000000800000000054696D65EA
:10597000446973706C61795461736B0054656D7028
:10598000446973706C61795461736B00C859000885
:105990000000002090000000C8010008585A0008CC
:1059A00090000020E8160000E40100081C00000040
:1059B00043000000F8FFFFFF0C0000000E00000095
:1059C0000F0000002E00000000000000000000009A
:1059D00000000000000000000000000000000000C7
:1059E00001000000100000000000000000093D0060
:1059F00000000000000000000000000000000000A7
:105A00000000000000000000000000000000000096
:105A10000000000000000000000000000000000086
:105A20000000000000000000000000000000000076
:105A30000000000000000000000000000000000066
:105A40000000000000000000000000000000000056
:085A5000AAAAAAAA00000000A6
:040000050800018D61
:00000001FF
