:020000040800F2
:10000000C81600200D030008531D0008A91C000895
:10001000511D0008EF0500086526000800000000DB
:100020000000000000000000000000002D02000899
:10003000F10500080000000089020008FD1E00080C
:1000400027030008270300082703000827030008E8
:1000500027030008270300082703000827030008D8
:1000600027030008270300082703000827030008C8
:1000700027030008270300082703000827030008B8
:1000800027030008270300082703000827030008A8
:100090002703000827030008270300082703000898
:1000A00027030008C51F00082703000827030008CE
:1000B00027030008000000000000000027030008DC
:1000C00027030008000000000000000027030008CC
:1000D0000000000027030008592600080000000067
:1000E00027030008270300080000000000000000AC
:1000F0000000000000000000000000000000000000
:1001000000000000000000000000000027030008BD
:10011000000000000000000027030008270300087B
:100120002703000827030008270300082703000807
:10013000270300080000000000000000000000008D
:1001400027030008270300082703000827030008E7
:1001500027030008270300082703000827030008D7
:1001600027030008270300082703000800000000F9
:10017000270300082703000800000000000000001B
:1001800027030008270300082703000800F002F8EF
:1001900000F03CF80AA090E8000C82448344AAF1E5
:1001A0000107DA4501D100F031F8AFF2090EBAE8E3
:1001B0000F0013F0010F18BFFB1A43F0010318479B
:1001C000283A0000483A0000103A24BF78C878C1A5
:1001D000FAD8520724BF30C830C144BF04680C604D
:1001E000704700000023002400250026103A28BF95
:1001F00078C1FBD8520728BF30C148BF0B60704799
:100200001FB503F08DFC1FBD10B510BD00F0B6F991
:100210001146FFF7F5FF02F037FA00F0D4F903B406
:10022000FFF7F2FF03BC00F0DBF900002C4B19686C
:10023000086800F05AB880F30988BFF36F8F4FF059
:10024000000080F311887047000000000848006833
:10025000006880F308884FF0000080F3148862B6CD
:1002600061B6BFF34F8FBFF36F8F00DF00BF00BFDA
:1002700008ED00E0DFF80C00016841F47001016056
:10028000704700BF88ED00E0EFF30980BFF36F8F88
:10029000134B1A681EF0100F08BF20ED108A20E9DA
:1002A000F04F106009B44FF0500080F31188BFF395
:1002B0004F8FBFF36F8F02F055FF4FF0000080F3B8
:1002C000118809BC1968086800F014B81EF0100FF6
:1002D00008BF00F014B880F30988BFF36F8F704730
:1002E00024000020EFF30580704730C8B0E8C04F0D
:1002F000FFF7A1BF30C8B0E8C04FFFF7E7BFB0ECD1
:10030000088AB0EC08CAFFF7E6BF0000094880473A
:1003100009480047FEE7FEE7FEE7FEE7FEE7FEE7E7
:10032000FEE7FEE7FEE7FEE704480549054A064BFF
:1003300070470000B51F00088D010008C81000209C
:10034000C8160020C8120020C812002053EA020C70
:1003500000F069802DE9F04B4FF00006002B1FBF25
:10036000B3FA83F503FA05F424FA05F65E4012BFEA
:100370001643B2FA82F502FA05F4C5F120051EBF54
:1003800022FA05FC44EA0C04203556EA044C4FEAF4
:10039000144418BF641C4FF000084FF0000990424D
:1003A00071EB030C39D3002919BFB1FA81F701FAB7
:1003B00007F6B0FA80F700FA07F6C7F120071EBF6C
:1003C00020FA07FC46EA0C062037B6FBF4FCA7EB44
:1003D0000507103F07F01F0BCBF120060CFA0BFBB3
:1003E0002CFA06F644BFB3460026202FA4BF5E4673
:1003F0004FF0000B5BEA060C08BF4FF0010B19EB46
:100400000B09ABFB027C48EB0608C01B06FB02CCC9
:100410000BFB03CC71EB0C01C1E70B4602464146D6
:100420004846BDE8F08B13B54FF000004FF00001D7
:10043000AFF30080BDE81C407047032A40F23080D3
:1004400010F0030C00F0158011F8013BBCF1020F15
:10045000624498BF11F801CB00F8013B38BF11F896
:10046000013BA2F1040298BF00F801CB38BF00F8AD
:10047000013B11F0030300F02580083AC0F008802A
:1004800051F8043B083A51F804CBA0E80810F5E70E
:10049000121D5CBF51F8043B40F8043BAFF30080F1
:1004A000D20724BF11F8013B11F801CB48BF11F866
:1004B000012B24BF00F8013B00F801CB48BF00F836
:1004C000012B704710B5203AC0F00B80B1E81850EE
:1004D000203AA0E81850B1E81850A0E81850BFF42E
:1004E000F5AF5FEA027C24BFB1E81850A0E81850CD
:1004F00044BF18C918C0BDE810405FEA827C24BF21
:1005000051F8043B40F8043B08BF7047D20728BFAE
:1005100031F8023B48BF11F8012B28BF20F8023BFD
:1005200048BF00F8012B70474FF0000200B513469A
:1005300094469646203922BFA0E80C50A0E80C5003
:10054000B1F12001BFF4F7AF090728BFA0E80C50B4
:1005500048BF0CC05DF804EB890028BF40F8042BAD
:1005600008BF704748BF20F8022B11F0804F18BF1A
:1005700000F8012B7047704770477047754600F0D0
:100580002BF8AE4605006946534620F00700854625
:1005900018B020B5FFF7C8FEBDE820404FF00006B8
:1005A0004FF000074FF000084FF0000B21F007015B
:1005B000AC46ACE8C009ACE8C009ACE8C009ACE89E
:1005C000C0098D46704710B50446AFF30080204641
:1005D000BDE81040FFF723BE0048704768100020B8
:1005E00001491820ABBEFEE7260002007047FEE777
:1005F000704772B6FEE710B590F825100022022968
:1006000005D00421C16380F82420012010BD0168B9
:100610000B6823F00E030B6001680B6823F00103E5
:100620000B6090F84410046C01F01C03012101FAE6
:1006300003F3636080F8251080F82420104610BD75
:1006400010B590F825100024022903D00421C163BD
:1006500001241AE001680A6822F00E020A600168AB
:100660000A6822F001020A6090F84410036C01F05D
:100670001C02012101FA02F25A6080F825100021C3
:1006800080F82410816B01B18847204610BD00001E
:100690002DE9F04FDFF8E091002301270326A9F1AF
:1006A000040B85B00F2509F1040AABF1040EDBE061
:1006B00007FA03FC12EA0C027ED00C7904F0030462
:1006C000012C01D0022C20D1846800945C0006FA31
:1006D00004F80494009C24EA08040094D1F80C80E7
:1006E000049C08FA04F8009C48EA0408C0F8088052
:1006F000446824EA0C0491F804C0CCF3001C0CFA02
:1007000003FC4CEA040CC0F804C00C79E443A407D1
:100710000DD0D0F80CC04FEA430806FA08F42CEAD2
:10072000040C8C6804FA08F444EA0C04C4600C79E4
:1007300004F00304022C19D1DC0800EB84040294B9
:10074000246A4FEA437C4FEADC6CCDF810C005FA0E
:100750000CFC24EA0C04D1F81080DDF810C008FA73
:100760000CF848EA0408029CC4F8208004684FEAA8
:10077000430806FA08FC24EA0C0491F804C00CF0C3
:10078000030C0CFA08FC4CEA040CC0F800C04C68DE
:1007900014F4403F67D0394CD4F860C04CF0010CE1
:1007A000C4F860C0246E23F0030C04F0010400942C
:1007B000334C6444029400E055E0A4684FEA837C23
:1007C0004FEA1C7805FA08FC24EA0C04B0F1904FBB
:1007D00006D0DFF8B0C0604505D14FF0010C0BE04A
:1007E0004FF0000C08E0DFF8A0C0604502D14FF0E8
:1007F000020C01E04FF0070C0CFA08FC4CEA040C68
:10080000029CC4F808C0D9F80040CC46D1F8048056
:1008100094435FEAC82800D51443CCF80040DAF8C6
:100820000040D446D1F8048094435FEA882800D57C
:100830001443CCF80040DBF80040DC46D1F80480DB
:1008400094435FEA883800D51443CCF80040DEF8C2
:100850000040F446D1F8048094435FEAC83800D5DC
:100860001443CCF800405B1C0C682246DC407FF44B
:100870001FAF05B000F00AB80804014000100240A4
:1008800000000140000400480008004830BCBDE8FA
:10089000C08F0AB1816170478162704701488068EA
:1008A000704700001400002002488168027811445B
:1008B000816070471400002010B50024032000F070
:1008C00099F80F2000F008F808B1012401E000F0C9
:1008D00049F8204610BD000030B505461C4887B0D9
:1008E000016E41F400610166006E06A900F400602B
:1008F000009001A800F0C4FA00F0F4FA1549164A75
:10090000B0FBF1F11548491E0260416040F2E73248
:100910000021C0E903218160816100F0FAFD04003B
:1009200012D10E4800F028FE04000DD1192000F06D
:1009300033F8102D07D200222946192000F03AF88A
:100940000748056000E0012407B0204630BD0000E4
:100950000010024040420F00002C014074030020B0
:10096000180000200B4882B0016E41F001010166C1
:10097000016E01F001010091816D41F080518165AE
:10098000806D002200F0805000900F21901E02B078
:1009900000F010B800100240002809DB00F01F0230
:1009A000012191404009800000F1E020C0F80011D1
:1009B00070470000F0B40E4B1B680C46C3F30223D3
:1009C000C3F10705042D00D90425191D072901D2FB
:1009D000002300E0DB1E012606FA05F1491E214036
:1009E00099409E40761E16403143F0BC01F03BBE5C
:1009F0000CED00E0064900F0070208684FF6FF031F
:100A0000184040EA0220034A104308607047000083
:100A10000CED00E00000FA051649B0F5007F08680B
:100A2000C0F3412009D0022805D0086820F4C06036
:100A300040F480600860002070470128FBD00868FF
:100A400020F4C06040F4007008600B483222006857
:100A500050430A4AB0FBF2F0401C00E0401E4A69D5
:100A6000520501D50028F9D148694005E3D5032096
:100A700070470000007000402000002040420F003E
:100A80000248006800F4C060704700000070004039
:100A90000248016841F480710160704700700040B5
:100AA0000248016841F004010160704700100240F3
:100AB0002DE9F84F0446002700889C4D3E4600056E
:100AC00015D5E06B60B1B0F5000F04D0B0F5400F64
:100AD0002BD001270AE0E86840F48030E86024E089
:100AE0000021201D01F036F907001ED03E46206887
:100AF000800338D5A86D4FF00008C00009D4A86D58
:100B000040F08050A865A86D4FF0010800F08050BB
:100B10000090DFF81CA2DAF8001041F48071CAF8E6
:100B20000010FFF7BBFE814610E0D5F88800E16BAE
:100B300020F440000843C5F88800D8E7FFF7AEFE70
:100B4000A0EB0900022801D9032704E0DAF800002D
:100B5000C005F3D5EFB33E46B8F1000F03D0A86D42
:100B600020F08050A8652078C00707D0D5F888000D
:100B7000216A20F003000843C5F888002078800728
:100B800007D5D5F88800616A20F00C000843C5F845
:100B900088002078800607D5D5F88800A16A20F45F
:100BA00040600843C5F888002088800507D5D5F83F
:100BB0008800616B20F440200843C5F88800208835
:100BC000400509D5D5F88800A16B20F440100843F2
:100BD00000E02EE0C5F888002078400607D5D5F85B
:100BE0008800E16A20F440500843C5F88800208856
:100BF000C00507D5D5F88800216B20F440300843A4
:100C0000C5F8880020884FF0006780044FF08068A6
:100C10004ED5D5F88800216C20F040600843C5F817
:100C20008800206CB8423BD1E86840F48010E8604E
:100C30003EE0D5F8900010F4407014D0216D814250
:100C400011D0D5F89000D5F8901020F4407041F400
:100C50008031C5F89010D5F8901021F48031C5F896
:100C60009010C5F89000C00711D0FFF717FE074697
:100C700041F2883907E000BFFFF710FEC11B49456C
:100C800001D9032668E7D5F890008007F4D5D5F898
:100C90009000216D20F440700843C5F890005BE798
:100CA000404505D10121201D01F054F800B1064650
:100CB0002068400317D5D5F88800616C20F04060AB
:100CC0000843C5F88800606CB84204D1E86840F475
:100CD0008010E86007E0404505D10121201D01F0AA
:100CE00039F800B106462088400411D5D5F88800AF
:100CF000A16C20F040500843C5F88800A06CB0F10A
:100D0000805F05D10221201D01F024F800B10646C4
:100D10002088000406D555F8880FE16C20F080404B
:100D200008432860304600F005B80000001002407B
:100D30000070004018BCBDE8E08F00002DE9F047CE
:100D40000F4605006BD0494E306800F00700B842EE
:100D500009D2306820F0070038433060306800F076
:100D60000700B8425BD12878414C80070AD5A868B3
:100D7000A16801F0F001884204D9A16821F0F001D6
:100D80000143A1602878C0072CD06868032811D0DF
:100D9000022812D0216898B1490500293FDAA168DC
:100DA00021F003010143A160FFF778FD804641F285
:100DB000883910E021688901EFE721688903ECE7B1
:100DC0008907EAE7FFF76AFDA0EB0801494502D968
:100DD0000320BDE8F087A068696800F00C00B0EB64
:100DE000810FEFD1287880070AD5A868A16801F0A3
:100DF000F001884204D2A16821F0F0010143A16012
:100E0000306800F00700B8420BD9306820F00700C6
:100E100038433060306800F00700B84201D001204C
:100E2000D7E72878400705D5A068E96820F4E06096
:100E30000843A0602878000706D5A068296920F437
:100E4000605040EAC100A06000F05EF8A168094A65
:100E5000C1F30311515C01F01F01C840064908604D
:100E600006480068BDE8F047FFF736BD00200240A5
:100E700000100240843B00082000002018000020E1
:100E80000F2202600C4A936803F0030343609368E7
:100E900003F0F0038360936803F4E063C360926837
:100EA0004FF4E06303EAD20202610448006800F0F4
:100EB0000700086070470000001002400020024058
:100EC0000548064900688968054AC1F30221515C5A
:100ED00001F01F01C84070472000002000100240B0
:100EE000C43B00080548064900688968054AC1F303
:100EF000C221515C01F01F01C84070472000002052
:100F000000100240C43B000870B525490023184674
:100F10008A68CC6812F00C0204F00306214C4FEAF8
:100F2000640509D00C2A05D0042A32D0082A00D141
:100F3000284670BD012E10D10B681B0704D4D1F8D0
:100F40009430C3F3032302E00B68C3F30313164E7C
:100F500056F82330DAB10C2AEBD1C86800F0030050
:100F6000022818D0032818D01846CA68CB68C2F3E4
:100F70000212C3F306234343521CB3FBF2F2C868C8
:100F8000C0F34160401C4000B2FBF0F070BD184659
:100F900070BD204670BD2046E7E72846E5E7000023
:100FA000001002400024F400943B00082DE9F843AF
:100FB00004006FD0FA4DA86800F00C06E86800F055
:100FC00003072078C00664D576B10C2E01D1012F1D
:100FD0000AD0A069002828687AD040F00100286073
:100FE000FFF75CFC80465DE02868800702D5A069B9
:100FF0000028DED0216A2868000703D5286800F0A1
:10100000F00004E0D5F89400F02202EA10108142CA
:1010100016D9084600F034FF00283BD1286840F07C
:10102000080028602868216A20F0F0000843286042
:101030006868E16920F47F4040EA0120686016E0BA
:10104000286840F0080028602868216A20F0F00035
:10105000084328606868E16920F47F4040EA012085
:10106000686026B9206A00F00BFF0028D5D1FFF791
:101070004BFFA968CB4AC1F30311515C01F01F017A
:10108000C840C9490860C9480068FFF725FC002826
:101090007ED12EE0CAE000BFFFF700FCA0EB080005
:1010A000022876D828688007F6D5286840F008001E
:1010B00028602868216A20F0F000084328606868EA
:1010C000E16920F47F4040EA0120686011E0FFE719
:1010D00020F001002860FFF7E1FB804606E000BF3A
:1010E000FFF7DCFBA0EB08000228DAD828688007AD
:1010F000F6D42078C00740D0082E18D00C2E01D18D
:10110000032F14D06068B0F5803F17D0B0F5A02F42
:10111000286817D020F480302860286820F48020C8
:1011200028606068E0B1FFF7B9FB804614E02868EA
:10113000800322D56068002878D01EE0286840F43B
:101140008030EDE740F480202860F7E7FFF7A6FB4A
:10115000A0EB08006428A4D828688003F6D50CE02A
:10116000FFF79CFB804605E0FFF798FBA0EB08002B
:10117000642896D828688003F6D4207880073BD569
:10118000042E11D00C2E01D1022F0DD0E06801E009
:10119000AAE1FFE0002828681ED040F48070286093
:1011A000FFF77CFB07460CE0286840050CD5E0689B
:1011B0000028C1D008E000BFFFF770FBC01B022869
:1011C00093D828684005F7D56868217C20F0F8504E
:1011D00040EA016068600FE020F480702860FFF74B
:1011E0005DFB074605E000BFFFF758FBC01B022868
:1011F000B1D828684005F7D42078000729D5606960
:101200000028D5F8940012D040F00100C5F89400F1
:10121000FFF744FB074604E0FFF740FBC01B022832
:1012200099D8D5F894008007F6D512E02BE120F08C
:101230000100C5F89400FFF731FB074605E000BF49
:10124000FFF72CFBC01B022885D8D5F89400800737
:10125000F6D42078400766D5A86D0027C00008D4D2
:10126000A86D40F08050A865A86D012700F080505F
:1012700000904F480168C90512D40168814641F4C5
:1012800080710160FFF70AFB804605E0FFF706FB6F
:10129000A0EB080002287DD8D9F80000C005F5D5DC
:1012A000A068012816D00528D5F8900017D020F0A6
:1012B0000100C5F89000D5F8900020F0040000BFB0
:1012C000C5F89000A06841F28839C0B1FFF7E6FA8E
:1012D00080460FE0D5F8900040F00100F0E740F0C4
:1012E0000400C5F89000F5E7FFF7D8FAA0EB080175
:1012F00049454FD8D5F890008007F5D50EE0FFF7A7
:10130000CDFA804606E000BFFFF7C8FAA0EB08015F
:1013100049453FD8D5F890008007F5D41FB1A86D96
:1013200020F08050A8652078800628D5606A0028C3
:10133000D5F8980012D040F00100C5F89800FFF7EA
:10134000ADFA074605E000BFFFF7A8FAC01B022868
:1013500020D8D5F898008007F6D510E020F00100DD
:10136000C5F89800FFF79AFA074604E0FFF796FAE7
:10137000C01B02280ED8D5F898008007F6D4A06AC2
:10138000F0B3022816D00C2E7DD0286820F0807093
:10139000286000E0A7E0FFF781FA0446A6E000001D
:1013A00000100240843B00082000002018000020AC
:1013B00000700040E868E26A00F00301914228D121
:1013C000216B00F0700209011039914221D1626B4A
:1013D00000F4FE41B1EB022F1BD194F8382000F04D
:1013E0007841B1EBC26F14D1A18F00F4C00249085B
:1013F0004905A1F5001191420BD194F8401000E08D
:101400006AE04908490600F0C060A1F1007181421C
:101410004BD00C2E73D02868400170D4286820F07F
:1014200080702860FFF73AFA064604E0FFF736FAC4
:10143000801B022857D828688001F7D4F4E90B01F3
:101440006FF00F0202EB01110843218A5204490890
:1014500002EB4151A26841EA02210843217D4FF08D
:101460007E42490802EB41610843217B40EAC160AA
:10147000E968244A11400843E860286840F0807019
:101480002860E86800E03AE040F08070E860FFF72C
:1014900005FA044605E000BFFFF700FA001B02282A
:1014A00021D828688001F7D527E02868800124D456
:1014B000286840F080702860E86840F08070E8603C
:1014C000FFF7ECF9044604E0FFF7E8F9001B0228F7
:1014D00009D828688001F7D50FE000BFFFF7DEF9D3
:1014E000001B022802D90320BDE8F8832868800188
:1014F000F4D4E86804490840E8600020F4E70120DB
:10150000F2E700008C809D01FCFFEEFE7047704703
:10151000704710B5040003D094F83D0010B107E007
:10152000012010BD002084F83C00204600F022F885
:10153000022084F83D00211D206800F049FD0120B3
:1015400084F8480084F83E0084F83F0084F84000A6
:1015500084F8410084F8420084F8430084F8440091
:1015600084F8450084F8460084F8470084F83D007C
:10157000002010BD7047000090F83D10012901D0F7
:1015800001207047022180F83D100168CA6842F0CE
:101590000102CA6000680B49884205D0B0F1804F53
:1015A00002D00949884207D18168084A11400629BA
:1015B00006D0B1F5803F03D0016841F00101016020
:1015C00000207047002C014000400140070001004E
:1015D000704770B50446006801694FF00005C943C3
:1015E000890715D4C168C943890711D4E91E01616F
:1015F00001202077206880698007204602D0FFF70D
:10160000E7FF04E000F0A7F8204600F0A5F82577F2
:1016100020680169C943490717D4C168C94349070C
:1016200013D46FF0040101610220207720688069E3
:1016300010F4407F204602D0FFF7CAFF04E000F01C
:101640008AF8204600F088F8257720680169C943A8
:10165000090716D4C168C943090712D46FF00801FD
:101660000161042020772068C0698007204602D0ED
:10167000FFF7AEFF04E000F06EF8204600F06CF8D3
:10168000257720680169C943C90617D4C168C943D1
:10169000C90613D46FF0100101610820207720687B
:1016A000C06910F4407F204602D0FFF791FF04E0AC
:1016B00000F051F8204600F04FF8257720680169C6
:1016C000C943C90708D1C168C943C90704D1891EE4
:1016D0000161204600F042F820680169C94309060B
:1016E00009D4C168C943090605D46FF080010161BE
:1016F0002046FFF70CFF20680169C943C90509D4DA
:10170000C168C943090605D46FF4807101612046A0
:10171000FFF7FCFE20680169C943490609D4C16886
:10172000C943490605D46FF040010161204600F02D
:101730001FF820680169C94389060BD4C168C943F1
:10174000890607D46FF0200101612046BDE8704092
:10175000FFF7DEBE70BD70477047000000680349A8
:10176000884201D1FFF7A0B870470000002C01406B
:1017700070477047704770472DE9F0410268044692
:10178000D0691168936840F60F0528424FF00005B4
:1017900005D186067ED58E067CD5616E1BE1994FFC
:1017A00003F001060F40374374D0C70709D0CF05B7
:1017B00007D501271762D4F8802042F00102C4F84F
:1017C000802082070AD5DA0708D0276802223A6209
:1017D000D4F8802042F00402C4F8802042070AD5E1
:1017E000DA0708D0236804221A62D4F8802042F075
:1017F0000202C4F8802002070CD501F02002324317
:1018000008D0236808221A62D4F8802042F0080227
:10181000C4F8802002050BD54A0109D523684FF48E
:1018200000621A62D4F8802042F02002C4F88020BE
:10183000D4F88020002A35D0800605D5880603D547
:10184000616E09B120468847D4F880002168896814
:10185000490602D410F0280F26D0204600F08AFC5A
:101860002068806840061AD52068083050E8001FBC
:1018700021F0400140E80012002AF5D1206F70B13C
:1018800061498163206FFEF7DBFE00280AD0206FDC
:10189000816B01E00EE02046BDE8F041084720469C
:1018A000FFF769FFBDE8F0812046FFF764FFC4F849
:1018B0008050F7E7276E2026012F7BD1C70679D508
:1018C000CF0677D51020106220688068400641D589
:1018D000216F086840680004000CE3D0B4F8582079
:1018E0008242DFD9A4F85A000868006880062AD42A
:1018F000206850E8001F21F4807140E80012002A9F
:10190000F6D12068083050E8001F21F0010140E8BE
:101910000012002AF5D12068083050E8001F21F09D
:10192000400140E80012002AF5D1E66725662168EB
:1019300051E8000F20F0100041E80002002AF6D123
:10194000206FFEF758FEB4F85800B4F85A10401A49
:1019500081B22AE0B4F85800B4F85A10401A81B2A3
:10196000B4F85A0000289DD000299BD0226852E884
:10197000000F20F4907042E80003002BF6D120689D
:10198000083050E8002F22F0010240E80023002B2D
:10199000F5D1E66725666566226852E8000F20F0FB
:1019A000100042E80003002BF6D12046FFF7E1FECD
:1019B00078E7FFE7C70209D55B0207D54FF480102F
:1019C00010622046BDE8F041FFF7D4BE020606D5FE
:1019D0000A0604D5A16E00297FF45DAF62E74006D8
:1019E000E6D54806E4D52046026852E8001F21F0FB
:1019F000400142E80013002BF6D18667856600F0AF
:101A000052F94FE7200100046121000810B50400DD
:101A100002D0A06F10B107E0012010BD002084F8B3
:101A20007400204600F026F82420A0672068016892
:101A300021F001010160204600F060FC0128ECD09B
:101A4000606A10B1204600F0F9FA2068416821F47C
:101A5000904141602068816821F02A0181602068FE
:101A6000016841F0010101602046BDE8104000F02E
:101A700049BB0000F0B59BB00446142115A8FEF741
:101A800053FD54216846FEF74FFD204920688842E7
:101A90003AD102240026684609960094FFF708F818
:101AA00008B1FEF7A6FD1A48816D41F40031816549
:101AB000816D01F400311A91C16C41F00101C164E2
:101AC000C06C15A900F001001A90042081E85100B3
:101AD00003250720CDE918504FF090473846FEF710
:101AE000D7FDCDE917654FF400401995CDE91504F0
:101AF00015A93846FEF7CCFD002205212620FEF769
:101B000059FF2620FEF748FF1BB0F0BD00440040FF
:101B10000010024030B4C36F202B20D1E1B1DAB104
:101B200090F87430012B1AD0012380F87430002310
:101B300003660C4C0368A3420BD05B681B0208D5FC
:101B4000046854E8003F43F0806344E80035002D0A
:101B5000F6D130BC00F0C0BC012030BC7047022080
:101B6000FBE7000000800040F8B500681D4988428E
:101B700036D11D4C6078A0F13001092905D92B28F8
:101B800003D02D2801D00D2821D1217807291ED27C
:101B9000164D0D2803D06854491C217017E000260B
:101BA00007E00023A9191A46E06801F0CBFC761C77
:101BB000F6B220788642F4D30A208DF80000002384
:101BC0001A466946E06801F0BDFC00202070BDE8BF
:101BD000F840054905480122491C8438FFF79ABF9F
:101BE000F8BD00000044004000000020100100206B
:101BF0002DE9F8430446806F1F4616460D462028FF
:101C00004FD1CDB1C6B194F87400012849D001205C
:101C100084F874004FF00008C4F880802120A06789
:101C2000FEF73CFEA4F850608146A4F85260A0681C
:101C3000B0F5805F03D004E00120BDE8F88320699F
:101C400028B12E465FF0000584F8748010E000266D
:101C5000FAE78021204600F09BFCB8B9C6B116F81F
:101C6000010B21680885B4F85200401EA4F8520008
:101C7000B4F852004B464FF0000200970028E8D11C
:101C80004FF04001204600F083FC30B10320D4E740
:101C900035F8020BC0F30800E3E72020A06700201E
:101CA000CBE70220C9E77047FEE7000010B586B019
:101CB00014216846FEF738FC1548C16C41F0040158
:101CC000C164C16C01F004010591C16C41F00101D6
:101CD000C164C16C01F001010591C16C41F00201C8
:101CE000C164C06C0B4C00F002000590002208217A
:101CF0002046FEF7CEFD0820009001200021CDE90E
:101D00000101039169462046FEF7C2FC06B010BDF2
:101D100000100240000400480C4810B50A49016058
:101D20004FF4E1314160002181600C22C160C0E9C3
:101D300004128161C16101624162FFF767FE002800
:101D400001D072B6FEE710BD004400408C000020B8
:101D5000FEE7FEE72DE9F041444C05468846E06881
:101D60000026810728680DD0E16801F00301814257
:101D700016D1A8B1E0686968C0F30210401C88421F
:101D80000ED120E0012804D0022805D0032807D175
:101D900008E02168890701E021684905002907DB7F
:101DA00001265FE02168890302D421684903F5E731
:101DB000E1686A686FF00F0321F0730103EB021210
:101DC00011430143E160206820F080602060FEF74D
:101DD00065FD074605E000BFFEF760FDC01B022859
:101DE00037D820680001F7D4B8F1000F18D0B8F147
:101DF000010F1DD0287D4FF07E41400801EB40606F
:101E0000A96840EA01202169194A1140084320616C
:101E1000206840F080602060FEF740FD07461AE031
:101E2000A868297B000240EAC1602169114AECE7F9
:101E3000288A1149400801EB4050A96840EA012076
:101E400021690E4AE1E700BFFEF728FDC01B02280A
:101E500001D9032606E020680001F5D52069A969AB
:101E6000084320613046BDE8F081000000100240C8
:101E7000FF80FFF9FF80FF070000E0FFFF809FFF6A
:101E8000F8B51C4D06460024A86DC00002D5FEF72B
:101E9000F7FD0DE0A86D40F08050A865A86D00F03A
:101EA00080500090FEF7ECFDA96D21F08051A965EE
:101EB000B0F5007F04D0802E07D94FF003040AE06C
:101EC000802E08D9A02E01D804E001D1022402E01E
:101ED000702E00D101240848016821F00701214338
:101EE0000160006800F00700A04201D00120F8BDA9
:101EF0000020F8BD001002400020024010B5502024
:101F000080F31188BFF34F8FBFF36F8F01F0BAFCDE
:101F100018B104494FF080500860002080F3118808
:101F200010BD000004ED00E010B596B044216846F5
:101F3000FEF7FAFA142111A8FEF7F6FA4FF4007032
:101F4000FEF76AFD08B172B6FEE7FEF7A1FD18487C
:101F500050F8901F21F0180101601420009001201A
:101F60000290002460210690CDE907410221CDE9CD
:101F70000A100C9010200D900720CDE90E01684644
:101F80001091FFF713F808B172B6FEE70F20119019
:101F90000320CDE912041494012111A81594FEF731
:101FA000CDFE08B172B6FEE7FEF77AFD16B010BDA1
:101FB000001002400248016841F47001016070475E
:101FC00088ED00E00148FFF704BB00007403002027
:101FD00070B50268164B4FF08046984201D0B0426F
:101FE00003D122F070044A682243124C124D9842E9
:101FF00005D0B04203D0A04201D0A84203D122F4C0
:102000004076CA6832434E6922F080023243026051
:102010008A68C2620A688262984203D0A04201D0F4
:10202000A84201D1096901630121416170BD00002D
:10203000002C0140004001400044014090F8241071
:10204000C90706D001684A68836A22F400321A433D
:102050004A6090F82410890706D501684A68C36A67
:1020600022F480321A434A6090F82410490706D5BA
:1020700001684A68036B22F480221A434A6090F890
:102080002410090706D501684A68436B22F4004210
:102090001A434A6090F82410C90606D501688A6878
:1020A000836B22F480521A438A6090F824108906C8
:1020B00006D501688A68C36B22F400521A438A600D
:1020C00090F82410490611D501684A68036C22F47F
:1020D00080121A434A60016CB1F5801F06D1016875
:1020E0004A68436C22F4C0021A434A6090F82410F4
:1020F000090606D501684A68806C22F40022024372
:102100004A607047F8B500260446C0F88060FEF7C4
:10211000C5FB0546206800686FF07E47000708D5BC
:102120002B4600224FF400112046009700F030FAB1
:1021300060B92068006840070AD52B4600224FF49A
:1021400080012046009700F023FA08B10320F8BD73
:102150002020A067E067266684F874600020F8BD40
:1021600010B5806A0021A0F85A10A0F85210FFF7AD
:1021700002FB10BD016851E8002F22F4907241E883
:102180000023002BF6D10168083151E8002F22F01E
:10219000010241E80023002BF5D1016E012908D18D
:1021A000026852E8001F21F0100142E80013002BE2
:1021B000F6D12021C167002101664166704710B544
:1021C000B0F85C20C36F0168222B04D0088B40F06C
:1021D0000800088310BD898C436D11401980416D42
:1021E000891C4165B0F85A10491EA0F85A10B0F881
:1021F0005A100029EED1026852E8001F21F49071B4
:1022000042E80013002BF6D10168083151E8002F95
:1022100022F0010241E80023002BF5D12021C16703
:1022200000214166026E012A02D0FFF79DFC10BD1D
:102230000166026852E8001F21F0100142E8001315
:10224000002BF6D10168CA69D243D20601D410220C
:102250000A62B0F85810FFF78CFA10BD10B5B0F84C
:102260005C20C36F0168222B04D0088B40F008006B
:10227000088310BD898C1140426D1170416D491C5D
:102280004165B0F85A10491EA0F85A10B0F85A101B
:102290000029EED1026852E8001F21F4907142E853
:1022A0000013002BF6D10168083151E8002F22F00D
:1022B000010241E80023002BF5D12021C167002154
:1022C0004166026E012A02D0FFF74EFC10BD016686
:1022D000026852E8001F21F0100142E80013002BB1
:1022E000F6D10168CA69D243D20601D410220A622B
:1022F000B0F85810FFF73DFA10BD00002DE9F0418D
:102300000446016880682269E66910436269002515
:1023100032431043694B0A68694E324002430A60F7
:1023200020684168E26821F440511143416021680E
:10233000A069994201D0226A10438A6822F430626F
:1023400002438A605F4927685F488F420DD1D0F809
:10235000880010F0030006D0012838D0022834D0BD
:10236000032821D135E001211FE058498F420BD1CC
:10237000D0F8880010F00C0025D0042827D00828B9
:1023800023D00C2810D124E09F420DD1D0F8880032
:1023900010F4406017D0B0F5806F18D0B0F5006F22
:1023A00013D0B0F5406F14D01021494A00264FF4E5
:1023B00000409F422FD171B102290FD004290FD0C4
:1023C000082973D10FE00021EFE70221EDE7042196
:1023D000EBE70821E9E7FEF773FD03E0104602E0B2
:1023E000FEF792FDF0B3626802EB420181425DD8D4
:1023F000B0EB023F5AD8010E030250081818714181
:102400000023FDF7A3FF334AA0F5407191424DD858
:102410002168C8604BE0E3694FF6EF77834228D12B
:10242000092943D2DFE801F005080B420D42424280
:102430001000FEF745FD06E0FEF754FD03E01046F0
:1024400002E0FEF761FD68B14100606801EB5001F8
:10245000B1FBF0F0A0F11001B94227D84FF6F071AE
:10246000014000E023E0C0F3420001432068C16066
:102470001DE009291AD2DFE801F005080B190D1932
:1024800019191000FEF71CFD06E0FEF72BFD03E016
:10249000104602E0FEF738FD48B1616800EB5100DC
:1024A000B0FBF1F0A0F11001B94205D90125666633
:1024B0002846A666BDE8F08180B2A9E7008000400A
:1024C000F369FFEF00380140001002400044004073
:1024D0000024F400FFFC0F0030B54165A0F858203F
:1024E000A0F85A200022426681684FF48055FF23ED
:1024F000A94204D1016971BB40F2FF1131E07F2490
:1025000039B3B1F1805F29D0A0F85C20C0F88020F9
:102510002221C1670168083151E8003F43F00103FF
:1025200041E80034002CF5D18168A94201D101694C
:10253000E9B11549416680F874200169C9B10268A2
:1025400052E8001F41F4907142E80013002BF6D1CD
:1025500018E0016941B9A0F85C30D7E7016919B109
:102560003F21A0F85C10D1E7A0F85C40CEE7074916
:10257000E0E7026852E8001F41F0200142E8001342
:10258000002BF6D1002030BD5D220008BF210008DD
:102590002DE9F0479A4617460E4604464FF00009CB
:1025A0004FF02008089D4AE0681C48D0FEF776F9F5
:1025B000A0EB0A00A8422AD84DB320680168490759
:1025C0003DD5C069C043000539D421684FF400608F
:1025D0000862206850E8001F21F4D07140E8001222
:1025E000002AF6D12068083050E8001F21F00101D0
:1025F00040E80012002AF5D1C4F87880C4F87C8045
:10260000C4F8808084F874900320BDE8F0872168C6
:1026100051E8000F20F4D07041E80002002AF6D102
:102620002068083050E8001F21F0010140E8001246
:10263000002AF5D1C4F87880C4F87C80E2E72068ED
:10264000C06936EA000004D00020B842ACD00020B7
:10265000DBE70120F9E700000148FFF78DB8000033
:102660008C000020FEE70907090E002804DB00F1BA
:10267000E02080F80014704700F00F0000F1E02027
:1026800080F8141D7047000096B0FEF715F9FFF7AB
:102690004BFCFFF70BFBFFF73FFB01221B491C48DC
:1026A000FFF738FA1B4D0DF1380C95E80F008CE858
:1026B0000F0000210EA800F03AF8144C1035641EEB
:1026C0000DF1480CE06095E80F008CE80F00002148
:1026D00012A800F02CF820611C2205F110016846B8
:1026E000FDF7F0FE0021684600F034F860601C221F
:1026F00005F12C0107A8FDF7E5FE002107A800F071
:1027000029F8A06000F00EF8FEE7000001000020AC
:102710008C0000202C3B000801460020842900D0BA
:10272000C81C704710B500F0DFFC002010BD38B5A4
:10273000D0E9011204683AB1C3682BB100200090BF
:10274000204600F0D8FD38BD2046BDE838400022C4
:1027500000F0B0BD7FB50D4604464169B0F90800F0
:1027600081B1A16971B1FFF7D7FFD4E905128DE8F6
:102770000700D4E900102B46226901F049F80390C4
:1027800004B070BDFFF7C8FF03A9CDE90001208A9E
:102790002B4682B2D4E9001001F00AF8012801D0DA
:1027A0000020EDE70398EBE72DE9F041184C0F46C8
:1027B0000546E6682068001D00F058FB38B920681F
:1027C00090F82C1001208840216981432161681C08
:1027D00007D137B12168BDE8F0410E48091D00F06E
:1027E00089BB20683544B5424560216805D2A06B9D
:1027F000BDE8F041091D00F065BB606B091D00F0EC
:1028000061FBA06A854200D2A562BDE8F0810000AC
:10281000240000209C0400202DE9F041054600F032
:1028200075FB2E4CA068401CA06020682C4F10B196
:10283000606940B32DE02560A068012829D10026F9
:1028400006EB860007EB800000F02EFB761C072EBF
:10285000F6D323488C3000F027FB2148A03000F04D
:1028600023FB1F48B43000F01FFB1D48C83000F0A8
:102870001BFB1B48DC3000F017FB19488C306063F1
:102880001430A06305E02068E96AC06A884200D875
:102890002560606A401C6062E96A01202269884004
:1028A0001043206101EB810007EB8000291D00F03F
:1028B00021FB00F04BFB606900280CD02068E96A1E
:1028C000C06A884207D207494FF080500860BFF3C2
:1028D0004F8FBFF36F8FBDE8F08100002400002010
:1028E000C003002004ED00E030B4026C0B46002A67
:1028F0000BD0C1681144C1608468A14201D3016852
:10290000C16030BC1846FDF798BD30BC70472DE95A
:10291000F041856B174604460026026C82B1C7B1B0
:10292000E068FDF78AFDE168206C091AE160226821
:10293000914202D2A168081AE060022F16D017E077
:102940002068A8B9A06801F003F806460020A0603E
:102950000EE06068FDF771FD216C606808446060FE
:10296000A168884204D32068606001E005B16D1E53
:102970006D1CA5633046BDE8F08110B5044690F8A3
:10298000510058B101280CD002280FD0502080F3FC
:102990001188BFF34F8FBFF36F8FFEE7206B00F0FE
:1029A000E9FA2046BDE8104000F0E4BA10BD00008E
:1029B0000F4840F6B831420705D0C01D0C4A20F040
:1029C0000700821A891A0B4A00230144C2E9000356
:1029D0000839183A21F0070111604B600B600B1A9F
:1029E000C0E9001393604FF000405360506170479E
:1029F000B004002078000020144E154CA6F1C80742
:102A00004FF08058DFF84C9012E000BF00F07EFAE3
:102A1000F068C568281D00F029FAA068401EA06073
:102A20006068401E606000F091FA2846FFF7A5FF3D
:102A300060680028EAD138680128F9D9C9F800800F
:102A4000BFF34F8FBFF36F8FF2E7000088040020C1
:102A50002400002004ED00E00346009829B1026044
:102A6000C0E90F31012100F079BC0060F8E72DE9E1
:102A7000F0479A46DDE9098481466FF00303206B35
:102A800003EB82021044089E20F00707780707D066
:102A9000502080F31188BFF34F8FBFF36F8FFEE795
:102AA000002561B1002023180A5C83F834200A5CF9
:102AB00012B1401C1028F6D384F8435001E084F88A
:102AC0003450072E00D30626E662C4E91165201DA6
:102AD00000F0F5F904F1180000F0F1F92461C6F1F5
:102AE00007006462A061E56484F85050524649468C
:102AF000384600F005F92060B8F1000F01D0C8F8A1
:102B00000040BDE8F087000030B5114900E01146F3
:102B10000A688242FBD34B685C18844203D1406848
:102B200018444860084643681C18944209D1084C70
:102B3000183C2468A24209D052681A4442600A68CC
:102B400012680260814200D0086030BD0460F9E77D
:102B50007800002010B5044600F0D8F9A06B28B129
:102B60005FF0000400F0F2F9204610BD0124F9E7FF
:102B70000648416B096829B1416BC968C968496851
:102B8000816270474FF0FF31FAE700002400002017
:102B900008484068401C4FF0500080F3118804D072
:102BA000BFF34F8FBFF36F8FFEE7BFF34F8FBFF3BE
:102BB0006F8FFEE7800000202DE9F041044600F011
:102BC000A5F994F9455004F1240609E0606A48B17A
:102BD000304600F009FF08B100F068FA6D1E6DB2D2
:102BE000002DF3DC4FF0FF3684F8456000F0AEF9BD
:102BF00000F08CF994F9445004F1100709E02069C1
:102C000048B1384600F0F0FE08B100F04FFA6D1EF2
:102C10006DB2002DF3DC84F84460BDE8F04100F0B3
:102C200095B900002DE9F0410546002700F092FA21
:102C3000324E306808B9FFF7BBFE706905424ED1CD
:102C4000C5B3083568070ED005F00700C0F10800CD
:102C50000544680707D0502080F31188BFF34F8FD9
:102C6000BFF36F8FFEE72DB37068854237D82348D6
:102C7000183001460C6801E020460C466168A94204
:102C800002D221680029F7D131688C4227D0076829
:102C90002168016060680837411B10290FD960194D
:102CA000420708D0502080F31188BFF34F8FBFF345
:102CB0006F8FFEE713E041606560FFF725FF6168F5
:102CC0007068401A7060B268904200D2B06070695B
:102CD00001430020C4E90001F068401CF06000F0EE
:102CE000BDFE780707D0502080F31188BFF34F8FC7
:102CF000BFF36F8FFEE73846BDE8F081600000202B
:102D000010B5031F4FF080741C601B1F21F00101E0
:102D10001960191F044B0B6014390A60091F6FF00A
:102D2000020244380A6010BD912B00088AB00024CA
:102D3000404E0DF10C084FF00A09671E3A4607A9EC
:102D4000F06800F05FFC01286FD19DF81C000A2894
:102D500006D0072C69D208F80400641CE4B264E0D1
:102D6000002008F80400032C5ED19DF80D002B28EC
:102D700001D02D2858D19DF80C109DF80E20303927
:102D8000303A2B282AD0881A8246002508EB050104
:102D900000233A46306900F025FB6D1CEDB2A542D8
:102DA000F4D30D208DF814908DF818004C460023B4
:102DB0003A4605A9306900F015FB00233A4606A9FA
:102DC000306900F00FFBBAF10A0F09DA0AF130009E
:102DD0008DF8000000233A46694616E08818D3E7CC
:102DE0009AFBF4F09AFBF4F130308DF8000004FB0C
:102DF00011A030308DF8040000233A46694630694E
:102E000000F0F0FA00233A4601A9306900F0EAFA2E
:102E100000233A4605A9306900F0E4FA00233A4657
:102E200006A9306900F0DEFA0024012000F010F954
:102E300084E700000000002008B50A4D4FF0FF3481
:102E400022466946286900F0DDFB0128F8D100F030
:102E50005DF82346012269460348FEF7C9FE00F0EB
:102E600075F8EDE7000000208C000020D0E9013269
:102E700001699A60D0E901235A604A68824201D10F
:102E800082684A60002202610868401E0860086883
:102E900070470000034B036003F15400086080207A
:102EA000106070472001002000F108014FF0FF3250
:102EB000C0E90112C1600161002101607047002179
:102EC0000161704730B50B685A1C02D000F108024E
:102ED00002E0026904E02246546825689D42FAD95E
:102EE00053684B6099608A60516008610168491CB1
:102EF000016030BD42684A6093688B609368596096
:102F0000916008610168491C01607047502080F39E
:102F10001188BFF34F8FBFF36F8F0A494868401C79
:102F2000486001280CD10848006810F0FF0F07D056
:102F3000502080F31188BFF34F8FBFF36F8FFEE7F0
:102F4000704700008000002004ED00E00849486858
:102F500028B1401E486001D180F31188704750208D
:102F600080F31188BFF34F8FBFF36F8FFEE7000030
:102F70008000002070B500282AD0164DA0F108046A
:102F800060686969084207D1502080F31188BFF357
:102F90004F8FBFF36F8FFEE722683AB1502080F366
:102FA0001188BFF34F8FBFF36F8FFEE788436060D8
:102FB00000F0D0F860686968084468602046FFF750
:102FC000A3FD2869401C2861BDE8704000F046BDA3
:102FD00070BD0000600000204FF0E0200021016182
:102FE000816105494FF47A720968B1FBF2F1491E1B
:102FF00041610721016170472000002010B5FDF7F5
:1030000071F9114910280ED300F1E02090F8F00377
:103010000A78904207D2502080F31188BFF34F8F77
:10302000BFF36F8FFEE709480068896800F4E0602D
:10303000884207D9502080F31188BFF34F8FBFF328
:103040006F8FFEE710BD0000800000200CED00E057
:1030500010B5020014D00F48006B38B1502080F337
:103060001188BFF34F8FBFF36F8FFEE700F072F848
:1030700000211046FFF798FB00F0F0FC002807D174
:1030800005494FF080500860BFF34F8FBFF36F8F3B
:1030900010BD00002400002004ED00E002490A6A8F
:1030A0000260C96841607047240000200149012086
:1030B000C86170472400002010B50C4650B1094982
:1030C00009681831FFF7FEFE2046BDE810400121D7
:1030D000FFF76ABB502080F31188BFF34F8FBFF317
:1030E0006F8FFEE72400002010B586B00024039403
:1030F00005AA04A903A80494FFF7CCFEDDE90301A7
:103100000094CDE9011000230EA11048059A00F0AB
:103110007FFB0F490028C86211D0502080F311882E
:10312000BFF34F8FBFF36F8F4FF0FF3088620120E6
:103130004861CC6006B0BDE8104000F041B806B070
:1031400010BD000049444C4500000000F92900086A
:10315000240000200248016B491C016370470000F5
:10316000240000201448016B11B10121C161704796
:103170000021C1610169B1FA81F1C1F11F0101EBC7
:1031800081020E4951F822306BB101EB820101F14D
:1031900008034A6852684A609A4201D152684A60FC
:1031A000D16801607047502080F31188BFF34F8FC2
:1031B000BFF36F8FFEE7000024000020C003002053
:1031C0001CB537480168374A914207D1502080F337
:1031D0001188BFF34F8FBFF36F8FFEE7006831494F
:1031E000491E884207D1502080F31188BFF34F8FCA
:1031F000BFF36F8FFEE72C4908780190FF2008701D
:1032000008788DF800009DF800009DF8002000F07F
:10321000F000904207D0502080F31188BFF34F8F09
:10322000BFF36F8FFEE79DF80000204C00F05000C8
:1032300020700720A06005E09DF8002052008DF866
:103240000020401E9DF800201206F5D4A06003283F
:1032500007D0502080F31188BFF34F8FBFF36F8FDB
:10326000FEE74FF44070A060019808700C482030D1
:10327000016841F470010160016841F07041016032
:10328000FFF7AAFE00206060FCF7F4FF0848016821
:1032900041F040410160FCF7D9FF00201CBD000057
:1032A00000ED00E071C20F4100E400E0800000206A
:1032B00034EF00E0F8B517460E46050013D005FBC5
:1032C00006F04830FFF7AEFC04000AD0002084F876
:1032D000460004F148023B46314628460094FFF779
:1032E000BBFB2046F8BD502080F31188BFF34F8F01
:1032F000BFF36F8FFEE738B5049D18B153B1CAB163
:1033000081B120E0502080F31188BFF34F8FBFF3CD
:103310006F8FFEE7502080F31188BFF34F8FBFF30C
:103320006F8FFEE7502080F31188BFF34F8FBFF3FC
:103330006F8FFEE739B1502080F31188BFF34F8FB4
:10334000BFF36F8FFEE748241C46012384F8463004
:103350002B460094FFF780FB204638BD70B50D4624
:10336000040025D0FFF7D2FDD4E90F20216802FB2D
:103370000011A1600021A163216861600A46D4E9BF
:103380000F01401E00FB0121E16021464FF0FF309C
:1033900001F8440F487004F110008DB1FFF784FD6F
:1033A00004F12400FFF780FDFFF7D0FD012070BD80
:1033B000502080F31188BFF34F8FBFF36F8FFEE76C
:1033C00021690029F0D000F00FFB0028ECD004495F
:1033D0004FF080500860BFF34F8FBFF36F8FE3E76C
:1033E00004ED00E02DE9FF4782B01D468A464FF00C
:1033F0000008040003D0BAF1000F08D011E05020FB
:1034000080F31188BFF34F8FBFF36F8FFEE7206CFF
:1034100038B1502080F31188BFF34F8FBFF36F8F07
:10342000FEE7022D0AD1E06B012807D0502080F37F
:103430001188BFF34F8FBFF36F8FFEE700F014FAD0
:103440003F4F4FF000094FF0805648B9049838B10B
:10345000502080F31188BFF34F8FBFF36F8FFEE7CB
:10346000FFF754FDA06BE16B884207D3022D05D016
:103470000498D0B1B8F1000F1AD01EE02A46514688
:103480002046FFF744FA616A19B104F1240000F004
:10349000ABFA20B13E60BFF34F8FBFF36F8FFFF7E2
:1034A00055FD012006B0BDE8F087FFF74FFD22E093
:1034B0006846FFF7F3FD4FF00108FFF747FDFFF700
:1034C00049FEFFF723FD94F94400401C01D184F824
:1034D000449094F94500401C01D184F84590FFF7D1
:1034E00035FD04A9684600F029F930B12046FFF700
:1034F00063FB00F0B3FA0020D4E7FFF707FDA06BF1
:10350000E16B884213D1FFF721FD04F1100004990B
:10351000FFF7D2FD2046FFF74FFB00F09FFA00288F
:103520009ED13E60BFF34F8FBFF36F8F98E7FFF7D9
:103530000DFD2046FFF740FB00F090FA90E70000F9
:1035400004ED00E02DE9F0471F469046894604004F
:1035500003D0B9F1000F08D011E0502080F311889A
:10356000BFF34F8FBFF36F8FFEE7206C38B1502051
:1035700080F31188BFF34F8FBFF36F8FFEE7022FE9
:103580000AD1E06B012807D0502080F31188BFF3E7
:103590004F8FBFF36F8FFEE7FFF730FD5020EFF343
:1035A000118680F31188BFF34F8FBFF36F8FA06B2D
:1035B000E16B884206D3022F04D0002086F31188E5
:1035C000BDE8F08794F94550A06B3A46494620463D
:1035D000FFF79DF9681C04D06D1C84F8455001204C
:1035E000ECE7606A0028FAD004F1240000F0FCF94E
:1035F0000028F4D0B8F1000FF1D00121C8F8001074
:10360000EDE700002DE9F747002683B08A46040065
:1036100003D0BAF1000F08D011E0502080F31188D8
:10362000BFF34F8FBFF36F8FFEE7206C38B1502090
:1036300080F31188BFF34F8FBFF36F8FFEE700F069
:1036400013F9DFF8F4804FF000094FF0805748B9C4
:10365000059838B1502080F31188BFF34F8FBFF326
:103660006F8FFEE7FFF752FCA56BC5B151462046B0
:10367000FFF73AF96D1EA563206950B104F11000FF
:1036800000F0B2F928B1C8F80070BFF34F8FBFF354
:103690006F8FFFF75BFC012006B0BDE8F08705984F
:1036A00008B11EB106E0FFF751FC27E06846FFF7BE
:1036B000F5FC0126FFF74AFCFFF74CFDFFF726FC5F
:1036C00094F94400401C01D184F8449094F94500D9
:1036D000401C01D184F84590FFF738FC05A96846E5
:1036E00000F02CF8002820460AD0FFF765FA00F019
:1036F000B5F92046FFF72EFA0028B3D00020CBE71B
:10370000FFF728FA90B104F124000599FFF7D4FCE3
:103710002046FFF751FA00F0A1F90028A2D1C8F81D
:103720000070BFF34F8FBFF36F8F9BE72046FFF70B
:1037300043FA00F093F995E704ED00E02DE9F0413C
:103740000C46050011D0C4B1FFF7E0FB174BDA6857
:103750006E682068911B471C17D02F681B6A9F4218
:1037600019D0964217D8012410E0502080F3118818
:10377000BFF34F8FBFF36F8FFEE7502080F31188A8
:10378000BFF34F8FBFF36F8FFEE70024FFF7DEFB21
:103790002046BDE8F081884205D9401A20602846BD
:1037A000FFF77CFCF1E700202060DCE7240000202C
:1037B0002DE9FF5F8346DDE90E87994616468A4666
:1037C0009000FFF72FFA05001CD05420FFF72AFACB
:1037D000040014D00020256384F85100CDE9024094
:1037E000CDE900874B46324651465846FFF73FF930
:1037F0002046FFF711F8012004B000F006B8284673
:10380000FFF7B8FB4FF0FF30F6E730BCBDE8C09FD4
:10381000F0B585B0DDE90B640A9DA6B1DCB1542793
:1038200000972663022684F85160002604AFCDE994
:103830000246CDE90057FFF71AF92046FEF7ECFFE4
:10384000049805B0F0BD502080F31188BFF34F8F6E
:10385000BFF36F8FFEE7502080F31188BFF34F8FC7
:10386000BFF36F8FFEE700000548416919B1006B97
:1038700018B10020704701207047022070470000F7
:10388000240000202DE9F0412F4C0026206B28B1A8
:10389000A069401CA0613046BDE8F081E5686D1C60
:1038A000E56013D1606B006838B1502080F3118857
:1038B000BFF34F8FBFF36F8FFEE7606BA16B616348
:1038C000A063206A401C2062FFF752F9A06ADFF86B
:1038D0007C80854209D3606B0068A0B1606BC068D2
:1038E000C7687868854211D2A0622068C06A00EB80
:1038F000800158F82100012800D90126E06900283C
:10390000C9D00126C7E74FF0FF30EDE7381DFFF7BC
:10391000ADFAB86A18B107F11800FFF7A7FAF96A0B
:103920000120226988401043206101EB810108EBEE
:103930008100391DFFF7DEFAF86A2168C96A8842FA
:10394000C9D30126C7E7000024000020C0030020DF
:1039500070B504004FF0000140D0214D286884422A
:1039600007D0502080F31188BFF34F8FBFF36F8FC4
:10397000FEE7A06C38B1401EA064636CE26A9A4214
:103980002CD040B12AE0502080F31188BFF34F8F34
:10399000BFF36F8FFEE7201DFFF768FA114A012180
:1039A00050B9E06A00EB800352F8233023B92B6949
:1039B00001FA00F083432B61606CE062C0F1070004
:1039C000A061E06A2B6981401943296100EB800006
:1039D00002EB8000211DFFF78DFA0121084670BD22
:1039E00024000020C00300202DE9F041C068C46815
:1039F000ACB104F118000746FFF738FA154D286BF3
:103A00000126A0B139461448FFF774FAE06A296824
:103A1000C96A88421CD90120EE61BDE8F0815020BE
:103A200080F31188BFF34F8FBFF36F8FFEE7201D28
:103A3000FFF71CFAE16A2A6906FA01F010432861CF
:103A400001EB81000449B43901EB8000211DDBE763
:103A50000020E2E724000020740400202DE9F04754
:103A60002C4D00242746286B38B1FFF74FFA286BFE
:103A7000401E2863286B40B146E0502080F3118837
:103A8000BFF34F8FBFF36F8FFEE7A968224E01206F
:103A9000D1B3A6F1B40980463068E8B1F068C468D3
:103AA00004F11800FFF7E2F9201DFFF7DFF9E06AE3
:103AB0002A6908FA00F11143296100EB800109EB42
:103AC0008100211DFFF716FAE06A2968C96A884259
:103AD000E2D3C5F81C80DFE70CB1FFF749F8AC6909
:103AE00044B14646FFF7CEFE00B1EE61641EF9D147
:103AF0000020A861E86938B1084901273807086043
:103B0000BFF34F8FBFF36F8FFFF720FA3846BDE842
:103B1000F0870000240000207404002004ED00E081
:103B20004FF04070E1EE100A7047000010000000F6
:103B30000100000000000000000000001000000074
:103B4000010000000000000000000000D83B000859
:103B50002D2D000800000000000000008000000083
:103B60000000000000000000CC3B0008392E0008D7
:103B7000FEFF0000000000008000000000000000C8
:103B8000000000000000000000000000010203042B
:103B900006070809A0860100400D0300801A0600F0
:103BA00000350C0040420F0080841E0000093D00DB
:103BB00000127A000024F40000366E010048E8018B
:103BC000006CDC0200000000010203047072696EE8
:103BD000745F7461736B000063616C63756C617416
:103BE000696F6E5F74617300083C0008000000207C
:103BF0008C000000C8010008943C00088C000020E4
:103C00003C160000E4010008000000000000000075
:103C100000000000000000000000000001000000A3
:103C2000100000000000000000093D00000000003E
:103C30000000000000000000000000000000000084
:103C40000000000000000000000000000000000074
:103C50000000000000000000000000000000000064
:103C60000000000000000000000000000000000054
:103C70000000000000000000000000000000000044
:103C8000000000000000000000000000AAAAAAAA8C
:043C90000000000030
:040000050800018D61
:00000001FF
