:020000040800F2
:10000000180800202D0200081B1C0008471A0008D1
:10001000191C0008A9040008AF2400080000000013
:10002000000000000000000000000000B11F0008F8
:10003000AB040008000000001D1C0008B31F0008EE
:10004000470200084702000847020008470200086C
:10005000470200084702000847020008470200085C
:10006000470200084702000847020008470200084C
:10007000470200084702000847020008470200083C
:10008000470200084702000847020008470200082C
:10009000470200084702000847020008470200081C
:1000A000470200084702000847020008470200080C
:1000B000470200080000000000000000470200089E
:1000C000470200080000000000000000470200088E
:1000D000000000004702000847020008000000007E
:1000E000470200084702000800000000000000006E
:1000F0000000000000000000000000000000000000
:10010000000000000000000000000000470200089E
:10011000000000000000000047020008470200083D
:10012000470200084702000847020008470200088B
:10013000470200080000000000000000000000006E
:10014000470200084702000847020008470200086B
:10015000470200084702000847020008470200085B
:10016000470200084702000847020008000000009C
:1001700047020008470200080000000000000000DD
:1001800047020008470200084702000800F002F892
:1001900000F03CF80AA090E8000C82448344AAF1E5
:1001A0000107DA4501D100F031F8AFF2090EBAE8E3
:1001B0000F0013F0010F18BFFB1A43F0010318479B
:1001C0000C2400002C240000103A24BF78C878C109
:1001D000FAD8520724BF30C830C144BF04680C604D
:1001E000704700000023002400250026103A28BF95
:1001F00078C1FBD8520728BF30C148BF0B60704799
:100200001FB502F0B9F91FBD10B510BD00F001F91E
:100210001146FFF7F5FF02F05BF900F01FF903B498
:10022000FFF7F2FF03BC00F027F900000948804700
:1002300009480047FEE7FEE7FEE7FEE7FEE7FEE7C8
:10024000FEE7FEE7FEE7FEE704480549054A064BE0
:1002500070470000492000088D01000818020020A6
:1002600018080020180400201804002053EA020C8B
:1002700000F069802DE9F04B4FF00006002B1FBF06
:10028000B3FA83F503FA05F424FA05F65E4012BFCB
:100290001643B2FA82F502FA05F4C5F120051EBF35
:1002A00022FA05FC44EA0C04203556EA044C4FEAD5
:1002B000144418BF641C4FF000084FF0000990422E
:1002C00071EB030C39D3002919BFB1FA81F701FA98
:1002D00007F6B0FA80F700FA07F6C7F120071EBF4D
:1002E00020FA07FC46EA0C062037B6FBF4FCA7EB25
:1002F0000507103F07F01F0BCBF120060CFA0BFB94
:100300002CFA06F644BFB3460026202FA4BF5E4653
:100310004FF0000B5BEA060C08BF4FF0010B19EB26
:100320000B09ABFB027C48EB0608C01B06FB02CCAA
:100330000BFB03CC71EB0C01C1E70B4602464146B7
:100340004846BDE8F08B13B54FF000004FF00001B8
:10035000AFF30080BDE81C40704710B5203AC0F0F4
:100360000B80B1E81850203AA0E81850B1E81850B6
:10037000A0E81850BFF4F5AF5FEA027C24BFB1E8F3
:100380001850A0E8185044BF18C918C0BDE8104064
:100390005FEA827C24BF51F8043B40F8043B08BF6D
:1003A0007047D20728BF31F8023B48BF11F8012B34
:1003B00028BF20F8023B48BF00F8012B70474FF0E0
:1003C000000200B5134694469646203922BFA0E8A5
:1003D0000C50A0E80C50B1F12001BFF4F7AF0907B1
:1003E00028BFA0E80C5048BF0CC05DF804EB8900A2
:1003F00028BF40F8042B08BF704748BF20F8022BE5
:1004000011F0804F18BF00F8012B704770477047FC
:100410007047754600F02CF8AE4605006946534615
:1004200020F00700854618B020B5FFF70DFFBDE8A6
:1004300020404FF000064FF000074FF000084FF04B
:10044000000B21F00701AC46ACE8C009ACE8C009DC
:10045000ACE8C009ACE8C0098D46704710B5044649
:10046000AFF300802046BDE81040FFF7D8BE000083
:1004700000487047B401002001491820ABBEFEE7D8
:10048000260002007047000001221146014800F0DA
:1004900022B900000004004800220121014800F0B8
:1004A0001AB9000000040048FEE7704772B6FEE784
:1004B00070B5044600F014F90546601C02D00448EB
:1004C0000078044400F00CF9401BA042FAD370BD40
:1004D000040000202DE9F04FDFF8E0910023012710
:1004E0000326A9F1040B85B00F2509F1040AABF12D
:1004F000040EDBE007FA03FC12EA0C027ED00C7952
:1005000004F00304012C01D0022C20D18468009453
:100510005C0006FA04F80494009C24EA08040094A1
:10052000D1F80C80049C08FA04F8009C48EA0408FE
:10053000C0F80880446824EA0C0491F804C0CCF3A5
:10054000001C0CFA03FC4CEA040CC0F804C00C7943
:10055000E443A4070DD0D0F80CC04FEA430806FAD4
:1005600008F42CEA040C8C6804FA08F444EA0C043D
:10057000C4600C7904F00304022C19D1DC0800EBF0
:1005800084040294246A4FEA437C4FEADC6CCDF881
:1005900010C005FA0CFC24EA0C04D1F81080DDF838
:1005A00010C008FA0CF848EA0408029CC4F820803D
:1005B00004684FEA430806FA08FC24EA0C0491F8A0
:1005C00004C00CF0030C0CFA08FC4CEA040CC0F854
:1005D00000C04C6814F4403F67D0394CD4F860C078
:1005E0004CF0010CC4F860C0246E23F0030C04F03E
:1005F00001040094334C6444029400E055E0A46884
:100600004FEA837C4FEA1C7805FA08FC24EA0C04C4
:10061000B0F1904F06D0DFF8B0C0604505D14FF083
:10062000010C0BE04FF0000C08E0DFF8A0C06045C3
:1006300002D14FF0020C01E04FF0070C0CFA08FC5D
:100640004CEA040C029CC4F808C0D9F80040CC461F
:10065000D1F8048094435FEAC82800D51443CCF84D
:100660000040DAF80040D446D1F8048094435FEAB1
:10067000882800D51443CCF80040DBF80040DC4665
:10068000D1F8048094435FEA883800D51443CCF84D
:100690000040DEF80040F446D1F8048094435FEA5D
:1006A000C83800D51443CCF800405B1C0C682246C7
:1006B000DC407FF41FAF05B000F00AB80804014029
:1006C00000100240000001400004004800080048FB
:1006D00030BCBDE8C08F0AB181617047816270474C
:1006E00001488068704700000400002090F8412015
:1006F000202A24D190F84020012A20D0012280F81D
:100700004020242280F841200268136823F001036E
:1007100013600268136823F480531360026813683F
:100720000B43136001680A6842F001020A6020214D
:1007300080F84110002180F84010084670470220E0
:10074000704790F84120202A22D190F84020012AB9
:100750001ED0012280F84020242280F84120026827
:10076000136823F0010313600268136823F47063B5
:1007700043EA0121116001680A6842F001020A603F
:10078000202180F84110002180F840100846704771
:100790000220704770B5040004D094F84100002591
:1007A00010B106E0012070BD84F84050204600F0F2
:1007B0004DF8242084F841002068016821F00101EF
:1007C00001606068216820F07060086120688168BD
:1007D00021F400418160E0680128A06807D040F45E
:1007E000044021688860E068022803D006E040F4F5
:1007F0000040F6E721684FF40060486020684168D7
:10080000114A114341602068C16821F40041C16070
:10081000D4E904010843A16940EA01202168C860C5
:10082000D4E907010843216808602068016841F0A5
:10083000010101606564202084F84100256384F88B
:100840004250002070BD00000080000230B59BB017
:100850000446142115A8FFF7B2FD54216846FFF79E
:10086000AEFD18492068884229D14020002500901B
:100870000B95684600F0F8F808B1FFF717FE124C28
:10088000E06C40F00100E064E06C15A900F00100AC
:100890001A904FF4C06015901220CDE91605032080
:1008A0001890042019904FF09040FFF713FEA06DB0
:1008B00040F40010A065A06D00F400101A901BB069
:1008C00030BD000000540040001002400248816822
:1008D00002781144816070470400002010B50024A4
:1008E000032000F063F8002000F008F808B10124AC
:1008F00001E000F025F8204610BD000070B50E4E56
:1009000005460024307898B14FF47A71B1FBF0F0CD
:100910000A490968B1FBF0F000F0AAFF40B9102DB8
:1009200006D200222946501E00F020F8756000E033
:100930000124204670BD00000400002010000020AB
:10094000094808B5016E41F001010166016E01F030
:1009500001010091816D41F080518165806D00F051
:100960008050009008BD000000100240F0B40E4B13
:100970001B680C46C3F30223C3F10705042D00D9FD
:100980000425191D072901D2002300E0DB1E0126E2
:1009900006FA05F1491E214099409E40761E1640F8
:1009A0003143F0BC01F084BD0CED00E0064900F0DD
:1009B000070208684FF6FF03184040EA0220034A86
:1009C00010430860704700000CED00E00000FA05DD
:1009D0001649B0F5007F0868C0F3412009D002280D
:1009E00005D0086820F4C06040F4806008600020F2
:1009F00070470128FBD0086820F4C06040F4007004
:100A000008600B483222006850430A4AB0FBF2F0FB
:100A1000401C00E0401E4A69520501D50028F9D16A
:100A200048694005E3D5032070470000007000408E
:100A30001000002040420F000248006800F4C0602F
:100A400070470000007000400248016841F4807166
:100A500001607047007000400248016841F00401E5
:100A600001607047001002402DE9F84F044600274E
:100A700000889C4D3E46000515D5E06B60B1B0F591
:100A8000000F04D0B0F5400F2BD001270AE0E86832
:100A900040F48030E86024E00021201D01F0C0F81F
:100AA00007001ED03E462068800338D5A86D4FF061
:100AB0000008C00009D4A86D40F08050A865A86D5A
:100AC0004FF0010800F080500090DFF81CA2DAF827
:100AD000001041F48071CAF80010FFF701FE814652
:100AE00010E0D5F88800E16B20F440000843C5F819
:100AF0008800D8E7FFF7F4FDA0EB0900022801D930
:100B0000032704E0DAF80000C005F3D5EFB33E4652
:100B1000B8F1000F03D0A86D20F08050A8652078B0
:100B2000C00707D0D5F88800216A20F003000843E9
:100B3000C5F888002078800707D5D5F88800616A55
:100B400020F00C000843C5F888002078800607D5FF
:100B5000D5F88800A16A20F440600843C5F88800F1
:100B60002088800507D5D5F88800616B20F44020E7
:100B70000843C5F888002088400509D5D5F88800C5
:100B8000A16B20F44010084300E02EE0C5F8880077
:100B90002078400607D5D5F88800E16A20F4405057
:100BA0000843C5F888002088C00507D5D5F8880017
:100BB000216B20F440300843C5F8880020884FF0AE
:100BC000006780044FF080684ED5D5F88800216C0E
:100BD00020F040600843C5F88800206CB8423BD143
:100BE000E86840F48010E8603EE0D5F8900010F42A
:100BF000407014D0216D814211D0D5F89000D5F805
:100C0000901020F4407041F48031C5F89010D5F870
:100C1000901021F48031C5F89010C5F89000C007FD
:100C200011D0FFF75DFD074641F2883907E000BFAC
:100C3000FFF756FDC11B494501D9032668E7D5F8E2
:100C400090008007F4D5D5F89000216D20F4407015
:100C50000843C5F890005BE7404505D10121201D00
:100C600000F0DEFF00B106462068400317D5D5F836
:100C70008800616C20F040600843C5F88800606C13
:100C8000B84204D1E86840F48010E86007E04045CD
:100C900005D10121201D00F0C3FF00B106462088C8
:100CA000400411D5D5F88800A16C20F040500843CD
:100CB000C5F88800A06CB0F1805F05D10221201D2D
:100CC00000F0AEFF00B106462088000406D555F8B6
:100CD000880FE16C20F0804008432860304600F027
:100CE00005B80000001002400070004018BCBDE8CC
:100CF000E08F00002DE9F0470F4605006BD0494E0C
:100D0000306800F00700B84209D2306820F00700D0
:100D100038433060306800F00700B8425BD1287873
:100D2000414C80070AD5A868A16801F0F00188420B
:100D300004D9A16821F0F0010143A1602878C0071F
:100D40002CD06868032811D0022812D0216898B1ED
:100D5000490500293FDAA16821F003010143A160A0
:100D6000FFF7BEFC804641F2883910E02168890116
:100D7000EFE721688903ECE78907EAE7FFF7B0FCB2
:100D8000A0EB0801494502D90320BDE8F087A0681F
:100D9000696800F00C00B0EB810FEFD12878800774
:100DA0000AD5A868A16801F0F001884204D2A168C0
:100DB00021F0F0010143A160306800F00700B84263
:100DC0000BD9306820F0070038433060306800F0FD
:100DD0000700B84201D00120D7E72878400705D5A1
:100DE000A068E96820F4E0600843A0602878000764
:100DF00006D5A068296920F4605040EAC100A060CF
:100E000000F03EF8A168094AC1F30311515C01F0FA
:100E10001F01C8400649086006480068BDE8F04761
:100E2000FFF76CBD0020024000100240842500083E
:100E30001000002008000020054806490068896865
:100E4000054AC1F30221515C01F01F01C8407047FF
:100E50001000002000100240C42500080548064983
:100E600000688968054AC1F3C221515C01F01F0185
:100E7000C84070471000002000100240C425000840
:100E800070B52549002318468A68CC6812F00C0218
:100E900004F00306214C4FEA640509D00C2A05D062
:100EA000042A32D0082A00D1284670BD012E10D164
:100EB0000B681B0704D4D1F89430C3F3032302E07A
:100EC0000B68C3F30313164E56F82330DAB10C2A1D
:100ED000EBD1C86800F00300022818D0032818D00E
:100EE0001846CA68CB68C2F30212C3F30623434311
:100EF000521CB3FBF2F2C868C0F34160401C4000D2
:100F0000B2FBF0F070BD184670BD204670BD2046A3
:100F1000E7E72846E5E70000001002400024F4005F
:100F2000942500082DE9F84304006FD0FA4DA86815
:100F300000F00C06E86800F003072078C00664D5CE
:100F400076B10C2E01D1012F0AD0A06900282868A3
:100F50007AD040F001002860FFF7C2FB80465DE0D8
:100F60002868800702D5A0690028DED0216A286899
:100F7000000703D5286800F0F00004E0D5F89400DD
:100F8000F02202EA1010814216D9084600F0DEFE77
:100F900000283BD1286840F0080028602868216AB2
:100FA00020F0F000084328606868E16920F47F4081
:100FB00040EA0120686016E0286840F008002860D8
:100FC0002868216A20F0F000084328606868E16919
:100FD00020F47F4040EA0120686026B9206A00F0D2
:100FE000B5FE0028D5D1FFF74BFFA968CB4AC1F366
:100FF0000311515C01F01F01C840C9490860C9488C
:101000000068FFF77BFC00287ED12EE0CAE000BF1D
:10101000FFF766FBA0EB0800022876D82868800757
:10102000F6D5286840F0080028602868216A20F07A
:10103000F000084328606868E16920F47F4040EAD6
:101040000120686011E0FFE720F001002860FFF751
:1010500047FB804606E000BFFFF742FBA0EB08001D
:101060000228DAD828688007F6D42078C00740D054
:10107000082E18D00C2E01D1032F14D06068B0F5C3
:10108000803F17D0B0F5A02F286817D020F480300B
:101090002860286820F4802028606068E0B1FFF7AD
:1010A0001FFB804614E02868800322D56068002872
:1010B00078D01EE0286840F48030EDE740F48020CE
:1010C0002860F7E7FFF70CFBA0EB08006428A4D822
:1010D00028688003F6D50CE0FFF702FB804605E0A8
:1010E000FFF7FEFAA0EB0800642896D82868800372
:1010F000F6D4207880073BD5042E11D00C2E01D1D8
:10110000022F0DD0E06801E0AAE1FFE00028286886
:101110001ED040F480702860FFF7E2FA07460CE02A
:10112000286840050CD5E0680028C1D008E000BF61
:10113000FFF7D6FAC01B022893D828684005F7D5D8
:101140006868217C20F0F85040EA016068600FE098
:1011500020F480702860FFF7C3FA074605E000BF5F
:10116000FFF7BEFAC01B0228B1D828684005F7D4A3
:101170002078000729D560690028D5F8940012D09E
:1011800040F00100C5F89400FFF7AAFA074604E012
:10119000FFF7A6FAC01B022899D8D5F8940080075B
:1011A000F6D512E02BE120F00100C5F89400FFF71E
:1011B00097FA074605E000BFFFF792FAC01B022826
:1011C00085D8D5F894008007F6D42078400766D5F6
:1011D000A86D0027C00008D4A86D40F08050A86515
:1011E000A86D012700F0805000904F480168C905A4
:1011F00012D40168814641F480710160FFF770FAF2
:10120000804605E0FFF76CFAA0EB080002287DD8C5
:10121000D9F80000C005F5D5A068012816D005282A
:10122000D5F8900017D020F00100C5F89000D5F84F
:10123000900020F0040000BFC5F89000A06841F2C3
:101240008839C0B1FFF74CFA80460FE0D5F890001E
:1012500040F00100F0E740F00400C5F89000F5E729
:10126000FFF73EFAA0EB080149454FD8D5F89000AA
:101270008007F5D50EE0FFF733FA804606E000BFA1
:10128000FFF72EFAA0EB080149453FD8D5F89000AA
:101290008007F5D41FB1A86D20F08050A865207894
:1012A000800628D5606A0028D5F8980012D040F052
:1012B0000100C5F89800FFF713FA074605E000BFE4
:1012C000FFF70EFAC01B022820D8D5F89800800737
:1012D000F6D510E020F00100C5F89800FFF700FAFD
:1012E000074604E0FFF7FCF9C01B02280ED8D5F82A
:1012F00098008007F6D4A06AF0B3022816D00C2E0E
:101300007DD0286820F08070286000E0A7E0FFF71B
:10131000E7F90446A6E0000000100240842500081A
:10132000100000200800002000700040E868E26A19
:1013300000F00301914228D1216B00F070020901F5
:101340001039914221D1626B00F4FE41B1EB022FC2
:101350001BD194F8382000F07841B1EBC26F14D162
:10136000A18F00F4C00249084905A1F5001191427E
:101370000BD194F8401000E06AE04908490600F0FB
:10138000C060A1F1007181424BD00C2E73D028684F
:10139000400170D4286820F080702860FFF7A0F921
:1013A000064604E0FFF79CF9801B022857D82868FE
:1013B0008001F7D4F4E90B016FF00F0202EB011189
:1013C0000843218A5204490802EB4151A26841EACC
:1013D00002210843217D4FF07E42490802EB416122
:1013E0000843217B40EAC160E968244A1140084370
:1013F000E860286840F080702860E86800E03AE023
:1014000040F08070E860FFF76BF9044605E000BF2C
:10141000FFF766F9001B022821D828688001F7D55C
:1014200027E02868800124D4286840F08070286074
:10143000E86840F08070E860FFF752F9044604E085
:10144000FFF74EF9001B022809D828688001F7D55C
:101450000FE000BFFFF744F9001B022802D9032068
:10146000BDE8F88328688001F4D4E868044908409E
:10147000E8600020F4E70120F2E700008C809D0185
:10148000FCFFEEFE70B5040009D0606A002540B193
:1014900025616561A56294F85D0040B10CE0012012
:1014A00070BD6068B0F5827FF4D0E561F2E784F842
:1014B0005C50204600F056F8022084F85D00206859
:1014C000016821F040010160E1684FF4E06291425F
:1014D00001D9002001E04FF48050B1F5706F02D0C7
:1014E000914200D0A562A188228901F4827102F4A0
:1014F00004421143227C02F002021143227D02F0D9
:1015000001021143228B02F400721143227F02F088
:101510003802114394F8202002F080021143228DFA
:1015200002F40052114322681160A169042202EA08
:10153000114194F8242000F4805002F0100211436D
:1015400094F8342002F008021143A28902F4706278
:1015500011430143206841602566012084F85D0045
:10156000002070BD30B587B0044614216846FEF7F0
:1015700026FF2468204D0021204802220323AC428C
:101580001AD1046E44F480540466046E04F480544A
:101590000594C46C44F00104C464C06CCDE902132A
:1015A00000F001000590C220CDE900020520049062
:1015B00069464FF090401BE0114DAC421AD1846D4A
:1015C00044F400448465846D04F400440594C46CC0
:1015D00044F00204C464C06CCDE9021300F00200C0
:1015E00005903820CDE900020620049069460548A0
:1015F000FEF770FF07B030BD003001400010024020
:10160000003C0040000400482DE9F05F044690F8DB
:101610005C0000270A9E1D4692468B464FF001094A
:1016200001280ED0012084F85C00FFF759F88046AD
:1016300094F85D00616801280CD0B1F5827F07D174
:1016400002E0022000F011B9A16809B9042801D014
:10165000022700E1BBF1000F24D0BAF1000F21D026
:1016600005B394F85D00042802D0052084F85D00DD
:1016700000202066C4F840A0A4F84650A4F84450C6
:10168000C4F838B0E587A587E0642065E0684FF4CA
:10169000E061884201D8012D06D92068426822F411
:1016A000805205E00127D6E02068426842F480526B
:1016B000426020680268520603D4026842F0400289
:1016C0000260E0688842606845D908B1012D3AD1CE
:1016D000A06B21680088C860A06B801CA063E08FAD
:1016E000401EE0872FE02068816889070FD5E18FD1
:1016F00069B1B9F1010F0AD1A16B0988C160A06B72
:10170000801CA063E08F401EE0874FF00009206836
:101710008168C9070FD0B4F8461061B1C068216C68
:101720000880206C801C2064B4F84600401EA4F899
:1017300046004FF00109FEF7D3FFA0EB0800B042CE
:1017400001D3701C75D1E08F0028CCD1B4F84600CD
:101750000028C8D176E008B1012D6CD1E08F0128B6
:10176000A06B08D921680088C860A06B801CA063AA
:10177000E08F801E07E0216800780873A06B401C92
:10178000A063E08F401EE08755E0206881688907EC
:101790001AD5E18FC1B1B9F1010F15D1E18F01293E
:1017A000A16B07D90988C160A06B801CA063E08F82
:1017B000801E06E009780173A06B401CA063E08FD7
:1017C000401EE0874FF0000920688168C90728D0D3
:1017D000B4F8461029B3B4F84610012914D9C068EA
:1017E000216C0880206C801C2064B4F84600801EA8
:1017F000A4F84600B4F84600012810D820684168D3
:1018000041F4805141600AE0007B216C0870206C3B
:10181000401C2064B4F84600401EA4F846004FF077
:101820000109FEF75DFFA0EB0800B04202D3701C77
:1018300001D018E0BEB1E08F0028A6D1B4F8460070
:101840000028A2D142463146204600F0BDFA10B130
:10185000012720202066012084F85D00002084F804
:101860005C003846EEE60327F5E730BCBDE8C09FD4
:1018700010B5401EB0F1807F01D3012010BD4FF0A4
:10188000E02460610F21601700F012FE0020A061CB
:1018900007202061002010BD10B5040002D0A06F09
:1018A00010B107E0012010BD002084F8740020462C
:1018B00000F026F82420A0672068016821F00101CB
:1018C0000160204600F0A2FC0128ECD0606A10B153
:1018D000204600F0C1FB2068416821F4904141603E
:1018E0002068816821F02A0181602068016841F048
:1018F000010101602046BDE8104000F011BC00006D
:10190000F0B59BB00446142115A8FEF758FD5421EC
:101910006846FEF754FD1C492068884232D10224F3
:101920000026684609960094FFF79EF808B1FEF776
:10193000BDFD1648816D41F400318165816D01F472
:1019400000311A91C16C41F00101C164C06C15A94C
:1019500000F001001A90042081E8510003250720BF
:10196000CDE918504FF090473846FEF7B3FDCDE96A
:1019700017654FF400401995CDE9150415A93846AF
:10198000FEF7A8FD1BB0F0BD00440040001002406F
:101990002DE9F8430446806F1F4616460D46202861
:1019A0004FD1CDB1C6B194F87400012849D00120BF
:1019B00084F874004FF00008C4F880802120A067EC
:1019C000FEF78EFEA4F850608146A4F85260A0682D
:1019D000B0F5805F03D004E00120BDE8F883206902
:1019E00028B12E465FF0000584F8748010E00026D0
:1019F000FAE78021204600F0F7FCB8B9C6B116F826
:101A0000010B21680885B4F85200401EA4F852006A
:101A1000B4F852004B464FF0000200970028E8D17E
:101A20004FF04001204600F0DFFC30B10320D4E746
:101A300035F8020BC0F30800E3E72020A067002080
:101A4000CBE70220C9E7FEE70EB501218DF80410AF
:101A5000D0B1C0208DF8050000208DF80600FEF7FB
:101A60001BFD64200090032302AA01A90748FFF789
:101A7000CBFDFEF709FD9DF809109DF80A0001F065
:101A80000F0140EA01200EBD8020E3E7680000203E
:101A900010B586B014216846FEF791FC1548C16C5C
:101AA00041F00401C164C16C01F004010591C16CF5
:101AB00041F00101C164C16C01F001010591C16CEB
:101AC00041F00201C164C06C0B4C00F00200012225
:101AD000059011462046FEF7FEFD0121009101917F
:101AE00000210291039169462046FEF7F3FC06B0FF
:101AF00010BD00000010024000040048134810B55B
:101B00001149016040F61241416000210122C0E903
:101B10000212016141618161C1610162FEF73AFE19
:101B200008B172B6FEE700210848FEF7DFFD08B1F4
:101B300072B6FEE700210548FEF703FE002801D03B
:101B400072B6FEE710BD00000054004014000020F3
:101B5000114810B50F4901604FF4827141600021B6
:101B60004FF4E062C0E902124FF400720161C0E973
:101B700005122022C0E9072107224162C0E90A12AA
:101B800001634163FFF77EFC002801D072B6FEE7D7
:101B900010BD000000300140680000200F4810B563
:101BA0000D49016000214FF4E0624160C0E902127A
:101BB0004FF400720161C0E905120162072241621F
:101BC000C0E90A1201634163FFF75CFC002801D001
:101BD00072B6FEE710BD0000003C0040CC000020C3
:101BE0000C4810B50A4901604FF4E1314160002111
:101BF00081600C22C160C0E904128161C16101628F
:101C00004162FFF749FE002801D072B6FEE710BD21
:101C10000044004030010020FEE7FEE7704700006E
:101C20002DE9F041444C05468846E06800268107CE
:101C300028680DD0E16801F00301814216D1A8B1F6
:101C4000E0686968C0F30210401C88420ED120E0B1
:101C5000012804D0022805D0032807D108E0216814
:101C6000890701E021684905002907DB01265FE0BB
:101C70002168890302D421684903F5E7E1686A68AD
:101C80006FF00F0321F0730103EB021211430143C4
:101C9000E160206820F080602060FEF721FD0746AB
:101CA00005E000BFFEF71CFDC01B022837D82068E6
:101CB0000001F7D4B8F1000F18D0B8F1010F1DD012
:101CC000287D4FF07E41400801EB4060A96840EA62
:101CD00001202169194A114008432061206840F021
:101CE00080602060FEF7FCFC07461AE0A868297BAC
:101CF000000240EAC1602169114AECE7288A1149D3
:101D0000400801EB4050A96840EA012021690E4AD1
:101D1000E1E700BFFEF7E4FCC01B022801D903265F
:101D200006E020680001F5D52069A9690843206113
:101D30003046BDE8F081000000100240FF80FFF94E
:101D4000FF80FF070000E0FFFF809FFFF8B51C4DFC
:101D500006460024A86DC00002D5FEF76DFE0DE01A
:101D6000A86D40F08050A865A86D00F080500090EC
:101D7000FEF762FEA96D21F08051A965B0F5007FE4
:101D800004D0802E07D94FF003040AE0802E08D932
:101D9000A02E01D804E001D1022402E0702E00D16F
:101DA00001240848016821F007012143016000680F
:101DB00000F00700A04201D00120F8BD0020F8BDCE
:101DC0000010024000200240F8B515460E460B46B2
:101DD0000092044600224FF4C05100F019F888B96F
:101DE0003346002280212046009500F085F848B94E
:101DF000334600224FF4C0612046009500F008F8F9
:101E0000002804D0206E40F0200020660320F8BD9A
:101E10002DE9FE4F4FF0000A984617460E4604463D
:101E20000C9D8DF804A0FEF75BFC411BA8EB01059F
:101E3000FEF756FC814620684FF4C06B0C300290D0
:101E40002A480068C0EBC00000EB8000000D68432A
:101E5000009043E05E4506D12FB9029800788DF8D6
:101E600004009DF80400B8F1FF3F37D0FEF738FCBE
:101E7000A0EB0900A84203D215B1009858B32BE09B
:101E80002068416821F0E00141606068B0F5827F20
:101E90000BD1A068B0F5004F02D0B0F5806F04D12F
:101EA0002068016821F040010160A06AB0F5005F80
:101EB00009D12068016821F400510160206801689F
:101EC00041F400510160012084F85D0084F85CA0B9
:101ED000032000F00DB80025401E009020688068A7
:101EE0003040B842B6D10020F3E7000010000020D7
:101EF0001EBCBDE8E08F00002DE9F8431E46914668
:101F000088460446089DFEF7EBFB401B351AFEF79A
:101F1000E7FB074625480068C0F3CB30684338E04C
:101F2000701C37D0FEF7DCFBC01BA84203D215B1F2
:101F3000009860B32CE02068416821F0E001416026
:101F40006068B0F5827F0BD1A068B0F5004F02D079
:101F5000B0F5806F04D12068016821F04001016074
:101F6000A06AB0F5005F09D12068016821F4005132
:101F700001602068016841F400510160012084F88B
:101F80005D00002084F85C000320BDE8F883002594
:101F9000401E00902068816838EA010004D00021CA
:101FA0004945BDD10020F0E70121F9E710000020EC
:101FB0007047FEF78BBC000030B597B044216846EF
:101FC000FEF7FDF9142111A8FEF7F9F94FF400709E
:101FD000FEF7FEFC08B172B6FEE7FEF735FD1948C4
:101FE00050F8901F21F0180101601420009001208A
:101FF00006AA00249025029082E831000221CDE952
:102000000A1005200C9012200D900720CDE90E013A
:10201000062010906846FEF785FF08B172B6FEE70D
:102020000F20119003201290CDE91354002111A824
:102030001594FEF75FFE08B172B6FEE7FEF70CFDE1
:1020400017B030BD001002400248016841F4700131
:102050000160704788ED00E090F82410C90706D0B1
:1020600001684A68836A22F400321A434A6090F891
:102070002410890706D501684A68C36A22F48032B1
:102080001A434A6090F82410490706D501684A6847
:10209000036B22F480221A434A6090F82410090747
:1020A00006D501684A68436B22F400421A434A602D
:1020B00090F82410C90606D501688A68836B22F45B
:1020C00080521A438A6090F82410890606D5016868
:1020D0008A68C36B22F400521A438A6090F8241075
:1020E000490611D501684A68036C22F480121A432C
:1020F0004A60016CB1F5801F06D101684A68436CE3
:1021000022F4C0021A434A6090F82410090606D54A
:1021100001684A68806C22F4002202434A607047DA
:10212000F8B500260446C0F88060FEF7D9FA0546E7
:10213000206800686FF07E47000708D52B46002214
:102140004FF400112046009700F04EF960B9206866
:10215000006840070AD52B4600224FF48001204634
:10216000009700F041F908B10320F8BD2020A067D6
:10217000E067266684F874600020F8BD10B588B06A
:102180000446142214A16846FEF7E7F830208DF8C3
:1021900014007820C4F303218DF815001DF80110F8
:1021A0008DF81610C4F3031107221DF801108DF8E5
:1021B000171004F00F0164231DF801008DF81800BA
:1021C0000D208DF819000A208DF81A0005A907487E
:1021D000FFF7DEFB08B010BD30313233343536370F
:1021E0003839414243444546000000003001002098
:1021F000002201E0521CD2B2815C0029FAD10146D2
:1022000064230148FFF7C4BB300100202DE9F041F1
:102210000446016880682269E66910436269002506
:1022200032431043694B0A68694E324002430A60E8
:1022300020684168E26821F44051114341602168FF
:10224000A069994201D0226A10438A6822F4306260
:1022500002438A605F4927685F488F420DD1D0F8FA
:10226000880010F0030006D0012838D0022834D0AE
:10227000032821D135E001211FE058498F420BD1BD
:10228000D0F8880010F00C0025D0042827D00828AA
:1022900023D00C2810D124E09F420DD1D0F8880023
:1022A00010F4406017D0B0F5806F18D0B0F5006F13
:1022B00013D0B0F5406F14D01021494A00264FF4D6
:1022C00000409F422FD171B102290FD004290FD0B5
:1022D000082973D10FE00021EFE70221EDE7042187
:1022E000EBE70821E9E7FEF7A7FD03E0104602E06F
:1022F000FEF7C6FDF0B3626802EB420181425DD891
:10230000B0EB023F5AD8010E030250081818714171
:102310000023FDF7ABFF334AA0F5407191424DD841
:102320002168C8604BE0E3694FF6EF77834228D11C
:10233000092943D2DFE801F005080B420D42424271
:102340001000FEF779FD06E0FEF788FD03E0104679
:1023500002E0FEF795FD68B14100606801EB5001B5
:10236000B1FBF0F0A0F11001B94227D84FF6F0719F
:10237000014000E023E0C0F3420001432068C16057
:102380001DE009291AD2DFE801F005080B190D1923
:1023900019191000FEF750FD06E0FEF75FFD03E09F
:1023A000104602E0FEF76CFD48B1616800EB510099
:1023B000B0FBF1F0A0F11001B94205D90125666624
:1023C0002846A666BDE8F08180B2A9E700800040FB
:1023D000F369FFEF00380140001002400044004064
:1023E0000024F400FFFC0F002DE9F0479A46174641
:1023F0000E4604464FF000094FF02008089D4AE0C1
:10240000681C48D0FEF76CF9A0EB0A00A8422AD855
:102410004DB32068016849073DD5C069C043000538
:1024200039D421684FF400600862206850E8001F2A
:1024300021F4D07140E80012002AF6D1206808305B
:1024400050E8001F21F0010140E80012002AF5D1F8
:10245000C4F87880C4F87C80C4F8808084F87490D4
:102460000320BDE8F087216851E8000F20F4D07008
:1024700041E80002002AF6D12068083050E8001F29
:1024800021F0010140E80012002AF5D1C4F878805B
:10249000C4F87C80E2E72068C06936EA000004D016
:1024A0000020B842ACD00020DBE70120F9E7FEE7CE
:1024B0000907090E002804DB00F1E02080F8001471
:1024C000704700F00F0000F1E02080F8141D704705
:1024D000FEF704FAFFF770FDFFF7DAFAFFF780FB6B
:1024E000FFF736FBFFF75AFBFFF708FBFDF7CCFFC2
:1024F0000BA0FFF77DFE12A0FFF77AFE184C4FF4F9
:10250000FA750020FFF7A0FA208016A0FFF770FEF2
:102510002088FFF733FE2846FDF7CAFFF1E70000E9
:102520004D43503332303220414443205265616480
:10253000696E6720537461727465640D0A0000004F
:102540003D3D3D3D3D3D3D3D3D3D3D3D3D3D3D3DBB
:102550003D3D3D3D3D3D3D3D3D3D3D3D3D0D0A004B
:10256000000000204144432056616C7565202843DB
:102570004830293A200000004FF04070E1EE100A88
:10258000704700000000000000000000010203048A
:1025900006070809A0860100400D0300801A060006
:1025A00000350C0040420F0080841E0000093D00F1
:1025B00000127A000024F40000366E010048E801A1
:1025C000006CDC020000000001020304EC2500089E
:1025D0000000002014000000C801000800260008C8
:1025E0001400002004080000E401000800000000BE
:1025F00001000000100000000000000000093D0084
:040000050800018D61
:00000001FF
