:020000040800F2
:10000000780800203D02000897220008731E0008AF
:1000100095220008A7070008B72C00080000000080
:10002000000000000000000000000000C7270008DA
:10003000A90700080000000099220008C92700084D
:10004000570200085702000857020008570200082C
:10005000570200085702000857020008570200081C
:10006000570200085702000857020008570200080C
:1000700057020008570200085702000857020008FC
:1000800057020008570200085702000857020008EC
:1000900057020008570200085702000857020008DC
:1000A00057020008570200085702000857020008CC
:1000B000570200080000000000000000570200087E
:1000C000570200080000000000000000570200086E
:1000D000000000005702000857020008000000005E
:1000E000570200085702000800000000000000004E
:1000F0000000000000000000000000000000000000
:10010000000000000000000000000000570200088E
:10011000000000000000000057020008570200081D
:10012000570200085702000857020008570200084B
:10013000570200080000000000000000000000005E
:10014000570200085702000857020008570200082B
:10015000570200085702000857020008570200081B
:10016000570200085702000857020008000000006C
:1001700057020008570200080000000000000000BD
:1001800057020008570200085702000800F002F862
:1001900000F044F80AA090E8000C82448344AAF1DD
:1001A0000107DA4501D100F039F8AFF2090EBAE8DB
:1001B0000F0013F0010F18BFFB1A43F0010318479B
:1001C000F82C0000182D0000103A24BF78C878C120
:1001D000FAD8520724BF30C830C144BF04680C604D
:1001E000704700000023002400250026103A28BF95
:1001F00078C1FBD8520728BF30C148BF0B60704799
:10020000642900F0EF80782900F0288100207047F1
:100210001FB502F009FE1FBD10B510BD00F089FA30
:100220001146FFF7F5FF02F05FFD00F0A7FA03B4F7
:10023000FFF7F2FF03BC00F0AFFA00000948804767
:1002400009480047FEE7FEE7FEE7FEE7FEE7FEE7B8
:10025000FEE7FEE7FEE7FEE704480549054A064BD0
:10026000704700005D2800088D010008780200201A
:1002700078080020780400207804002053EA020C5B
:1002800000F069802DE9F04B4FF00006002B1FBFF6
:10029000B3FA83F503FA05F424FA05F65E4012BFBB
:1002A0001643B2FA82F502FA05F4C5F120051EBF25
:1002B00022FA05FC44EA0C04203556EA044C4FEAC5
:1002C000144418BF641C4FF000084FF0000990421E
:1002D00071EB030C39D3002919BFB1FA81F701FA88
:1002E00007F6B0FA80F700FA07F6C7F120071EBF3D
:1002F00020FA07FC46EA0C062037B6FBF4FCA7EB15
:100300000507103F07F01F0BCBF120060CFA0BFB83
:100310002CFA06F644BFB3460026202FA4BF5E4643
:100320004FF0000B5BEA060C08BF4FF0010B19EB16
:100330000B09ABFB027C48EB0608C01B06FB02CC9A
:100340000BFB03CC71EB0C01C1E70B4602464146A7
:100350004846BDE8F08B13B54FF000004FF00001A8
:10036000AFF30080BDE81C40704700000FB41CB51F
:10037000074B06AA7B4469460090059800F0C1F936
:100380000020694600F0D0F91CBC5DF814FB0000A9
:10039000B103000070B5044685690068C10601D547
:1003A000302600E02026C00707D070BDD4E9012127
:1003B00030469047206A401C20626D1EF6D570BD05
:1003C00070B5044685690078C00707D170BDD4E9CF
:1003D000012120209047206A401C20626D1EF6D526
:1003E00070BD00002DE9F041064600241068752913
:1003F000314616A510D0AFF30080002802DA404243
:1004000013A507E031688A0701D512A502E0490764
:1004100004D511A5012401E0AFF3008000210A22D8
:1004200006F1240709E0B0FBF2FCB0FBF2F302FB9B
:100430001C00303078541846491C0028F3D123465C
:100440002A463046BDE8F04100F0FDB8000000004B
:100450002D0000002B0000002000000070B50446B5
:100460000D4621461068AFF300802188090502D5AA
:100470000F4A7A4402E00E4A7A440E32002104F117
:10048000240305E000F00F060009965D5E54491C48
:100490000028F7D120780023000704D5702D02D062
:1004A00009B1022311322046BDE8704000F0CBB8FC
:1004B000062A00002DE9F05F894604464FF0000A45
:1004C000DFF824B1FB44C0F820A02046E16888474B
:1004D00000287DD0252806D0D4E901219047206A44
:1004E000401C2062F1E700255F462046E16888470E
:1004F0002028064607DB312E05D2B81910F8200C4B
:1005000008B10543F1E7A80701D525F00405C4F8B3
:100510001CA00027C4F818A02A2E09D0304602F0EB
:10052000DBFB38B304EB8708303EC8F8186019E0ED
:1005300059F8041B204604EB87029161E168884763
:10054000012F064618D1E069002820DA25F02005A1
:100550001DE0D8F8180000EB800006EB40003038B2
:10056000C8F818002046E1688847064602F0B4FB48
:100570000028EED1012F0AD02E2E08D12046E168A6
:1005800088477F1C0646022F45F02005C4DBA06982
:10059000002803DA404245F00105A061E80701D0D8
:1005A00025F01005A6B1A6F14100192802D8203681
:1005B00045F400654A463146204625604D46FFF722
:1005C0001FFE60B1012807D0ED1D25F0070000E0F7
:1005D00007E000F1080978E705F1040975E73046FE
:1005E0007AE7206A00F002B8DC29000030BCBDE8E0
:1005F000C09F4FF0000200B513469446964620393E
:1006000022BFA0E80C50A0E80C50B1F12001BFF4CB
:10061000F7AF090728BFA0E80C5048BF0CC05DF831
:1006200004EB890028BF40F8042B08BF704748BF7F
:1006300020F8022B11F0804F18BF00F8012B7047F3
:100640007047704770472DE9F0470D46994692462E
:10065000044600F124080168880604D5E06921F009
:100660001001216000E00120A84201DD471B00E0ED
:100670000027A1697A1902EB0900081AA061207805
:10068000C00602D42046FFF785FE002608E0D4E924
:1006900001211AF806009047206A401C761C20624F
:1006A0004E45F4DB2078C0060AD52046FFF772FEDF
:1006B00006E0D4E9012130209047206A401C2062E6
:1006C000381EA7F10107F4DC07E0D4E9012118F88E
:1006D00005009047206A401C2062281EA5F10105F4
:1006E000F3DC2046FFF76CFE2078000602D50220DE
:1006F000BDE8F0870120FBE701694A1C0261087828
:10070000704700B58FB0CDE9013100210591054951
:100710007944CDE9031011466846FFF7CBFE0FB0D0
:1007200000BD0000E5FFFFFF0A6802F8010B0A6048
:100730007047754600F02CF8AE46050069465346F2
:1007400020F00700854618B020B5FFF785FDBDE80D
:1007500020404FF000064FF000074FF000084FF028
:10076000000B21F00701AC46ACE8C009ACE8C009B9
:10077000ACE8C009ACE8C0098D46704710B5044626
:10078000AFF300802046BDE81040FFF750BD0000E9
:10079000004870471802002001491820ABBEFEE750
:1007A000260002007047FEE7704772B6FEE70000C1
:1007B00070B5044600F01CF90546601C02D00448E0
:1007C0000078044400F014F9401BA042FAD370BD35
:1007D000040000202DE9F04FDFF8E091002301270D
:1007E0000326A9F1040B85B00F2509F1040AABF12A
:1007F000040EDBE007FA03FC12EA0C027ED00C794F
:1008000004F00304012C01D0022C20D18468009450
:100810005C0006FA04F80494009C24EA080400949E
:10082000D1F80C80049C08FA04F8009C48EA0408FB
:10083000C0F80880446824EA0C0491F804C0CCF3A2
:10084000001C0CFA03FC4CEA040CC0F804C00C7940
:10085000E443A4070DD0D0F80CC04FEA430806FAD1
:1008600008F42CEA040C8C6804FA08F444EA0C043A
:10087000C4600C7904F00304022C19D1DC0800EBED
:1008800084040294246A4FEA437C4FEADC6CCDF87E
:1008900010C005FA0CFC24EA0C04D1F81080DDF835
:1008A00010C008FA0CF848EA0408029CC4F820803A
:1008B00004684FEA430806FA08FC24EA0C0491F89D
:1008C00004C00CF0030C0CFA08FC4CEA040CC0F851
:1008D00000C04C6814F4403F67D0394CD4F860C075
:1008E0004CF0010CC4F860C0246E23F0030C04F03B
:1008F00001040094334C6444029400E055E0A46881
:100900004FEA837C4FEA1C7805FA08FC24EA0C04C1
:10091000B0F1904F06D0DFF8B0C0604505D14FF080
:10092000010C0BE04FF0000C08E0DFF8A0C06045C0
:1009300002D14FF0020C01E04FF0070C0CFA08FC5A
:100940004CEA040C029CC4F808C0D9F80040CC461C
:10095000D1F8048094435FEAC82800D51443CCF84A
:100960000040DAF80040D446D1F8048094435FEAAE
:10097000882800D51443CCF80040DBF80040DC4662
:10098000D1F8048094435FEA883800D51443CCF84A
:100990000040DEF80040F446D1F8048094435FEA5A
:1009A000C83800D51443CCF800405B1C0C682246C4
:1009B000DC407FF41FAF05B000F00AB80804014026
:1009C00000100240000001400004004800080048F8
:1009D00030BCBDE8C08F426921EA02030A4043EA05
:1009E0000241816170470AB181617047816270473D
:1009F00001488068704700000400002090F8412002
:100A0000202A24D190F84020012A20D0012280F809
:100A10004020242280F841200268136823F001035B
:100A200013600268136823F480531360026813682C
:100A30000B43136001680A6842F001020A6020213A
:100A400080F84110002180F84010084670470220CD
:100A5000704790F84120202A22D190F84020012AA6
:100A60001ED0012280F84020242280F84120026814
:100A7000136823F0010313600268136823F47063A2
:100A800043EA0121116001680A6842F001020A602C
:100A9000202180F84110002180F84010084670475E
:100AA0000220704770B5040004D094F8410000257E
:100AB00010B106E0012070BD84F84050204600F0DF
:100AC0000FFA242084F841002068016821F0010118
:100AD00001606068216820F07060086120688168AA
:100AE00021F400418160E0680128A06807D040F44B
:100AF000044021688860E068022803D006E040F4E2
:100B00000040F6E721684FF40060486020684168C3
:100B1000114A114341602068C16821F40041C1605D
:100B2000D4E904010843A16940EA01202168C860B2
:100B3000D4E907010843216808602068016841F092
:100B4000010101606564202084F84100256384F878
:100B50004250002070BD0000008000022DE9FC47DB
:100B600000260446019690F841001F4692468946A9
:100B700020287ED120688069C043000479D594F88C
:100B80004000012875D0012084F84000242084F81A
:100B9000410066644FF02008E068012809D029F47C
:100BA000544040F4205021684860FFF721FF05467B
:100BB0000DE0314949EA010030490840F3E7781C6B
:100BC00005D0FFF715FF401BB84219D8C7B12168FF
:100BD00088698969C0F34010C1F300110843EED061
:100BE000206880693B46C043C0064FF000024FF0CA
:100BF00020012046009517D501F0F6F968BB09E001
:100C000084F8418054F8440F40F0200044F804096F
:100C1000267022E02168C1F81C8084F8418084F8A5
:100C20004060002000F02CB801F0DEF9A8B921687E
:100C30001020C8612168C1F81C800198504512D16C
:100C40002068416841F4804141603B4600222021F8
:100C50002046009501F0C8F910B10120E2E708E054
:100C60002168C1F81C800198401C0190504593D325
:100C7000C6E70220D6E7000000200002FF230002A2
:100C80000CBCBDE8F08700002DE9F84F044690F851
:100C90004100DDF828A01F4690468B4620287ED1D3
:100CA00094F8400001287AD0012084F84000FFF732
:100CB0009FFE0646012200901923D103204601F031
:100CC00093F9E0BB222084F84100102084F8420010
:100CD00000256564C4F8248067856563618D3148AB
:100CE000FF274FF080784FF00079FF2903D927853F
:100CF0003A46009039E0618D218500903AE05946EE
:100D0000204601F059F913E001F09AF9B8B92068CA
:100D1000406A616A0870606A401C6062208D401EF3
:100D200080B22085618D491E6185618D01B168B1F8
:100D3000608D3246002851462046E5D100E002E0B1
:100D400001F0CCF9D0B1012000F030B853460022B8
:100D500080212046009601F047F90028F3D1608DEC
:100D6000FF2804D927853A4600954346C7E7608D9A
:100D70002085009594F828204B46C0E72168202064
:100D8000C86121684A68084B1A404A6084F84100EB
:100D900084F8425084F840500020D5E7FFE7022055
:100DA000D2E700000024008000E800FE18BCBDE887
:100DB000E08F00002DE9F84F044690F84100DDF87F
:100DC00028A01F4690468B4620287ED194F84000EC
:100DD00001287AD0012084F84000FFF709FE06467A
:100DE000012200901923D103204601F0FDF8E0BB59
:100DF000212084F84100102084F842000025656419
:100E0000C4F8248067856563618D3148FF274FF002
:100E100080784FF00079FF2903D927853A46009062
:100E200039E0618D218500903AE05946204601F075
:100E3000C3F813E001F078F9B8B9606A2168007866
:100E40008862606A401C6062608D401E6085208DF3
:100E5000401E80B22085618D01B168B1608D32463F
:100E6000002851462046E5D100E002E001F036F9C5
:100E7000D0B1012000F030B8534600228021204636
:100E8000009601F0B1F80028F3D1608DFF2804D955
:100E900027853A4600954346C7E7608D2085009533
:100EA00094F828204B46C0E721682020C8612168BB
:100EB0004A68084B1A404A6084F8410084F842505E
:100EC00084F840500020D5E7FFE70220D2E7000079
:100ED0000020008000E800FE18BCBDE8E08F0000A4
:100EE00030B59BB00446142115A8FFF782FB5421AE
:100EF0006846FFF77EFB18492068884229D14020C8
:100F0000002500900B95684600F0F8F808B1FFF74F
:100F10004CFC124CE06C40F00100E064E06C15A960
:100F200000F001001A904FF4C06015901220CDE936
:100F3000160503201890042019904FF09040FFF7F9
:100F400049FCA06D40F40010A065A06D00F40010F5
:100F50001A901BB030BD0000005400400010024049
:100F600002488168027811448160704704000020C3
:100F700010B50024032000F063F8002000F008F80A
:100F800008B1012401E000F025F8204610BD000062
:100F900070B50E4E05460024307898B14FF47A7142
:100FA000B1FBF0F00A490968B1FBF0F000F076FE01
:100FB00040B9102D06D200222946501E00F020F81C
:100FC000756000E00124204670BD00000400002090
:100FD00010000020094808B5016E41F001010166CA
:100FE000016E01F001010091816D41F08051816538
:100FF000806D00F08050009008BD0000001002409D
:10100000F0B40E4B1B680C46C3F30223C3F1070573
:10101000042D00D90425191D072901D2002300E061
:10102000DB1E012606FA05F1491E214099409E402B
:10103000761E16403143F0BC01F03EBE0CED00E0E0
:10104000064900F0070208684FF6FF03184040EA1F
:101050000220034A10430860704700000CED00E0D6
:101060000000FA051649B0F5007F0868C0F341207A
:1010700009D0022805D0086820F4C06040F48060E0
:101080000860002070470128FBD0086820F4C06089
:1010900040F4007008600B483222006850430A4A4E
:1010A000B0FBF2F0401C00E0401E4A69520501D539
:1010B0000028F9D148694005E3D5032070470000B6
:1010C000007000401000002040420F0002480068FD
:1010D00000F4C060704700000070004002480168E2
:1010E00041F480710160704700700040024801685F
:1010F00041F0040101607047001002402DE9F84FF3
:101100000446002700889C4D3E46000515D5E06B3F
:1011100060B1B0F5000F04D0B0F5400F2BD001271F
:101120000AE0E86840F48030E86024E00021201DF7
:1011300001F0B4F807001ED03E462068800338D581
:10114000A86D4FF00008C00009D4A86D40F0805091
:10115000A865A86D4FF0010800F080500090DFF8FE
:101160001CA2DAF8001041F48071CAF80010FFF7F1
:101170003FFC814610E0D5F88800E16B20F4400088
:101180000843C5F88800D8E7FFF732FCA0EB090058
:10119000022801D9032704E0DAF80000C005F3D5DE
:1011A000EFB33E46B8F1000F03D0A86D20F0805099
:1011B000A8652078C00707D0D5F88800216A20F0FC
:1011C00003000843C5F888002078800707D5D5F8C4
:1011D0008800616A20F00C000843C5F88800207878
:1011E000800607D5D5F88800A16A20F4406008433E
:1011F000C5F888002088800507D5D5F88800616B80
:1012000020F440200843C5F888002088400509D50F
:10121000D5F88800A16B20F44010084300E02EE0D0
:10122000C5F888002078400607D5D5F88800E16A1F
:1012300020F440500843C5F888002088C00507D531
:10124000D5F88800216B20F440300843C5F88800A9
:1012500020884FF0006780044FF080684ED5D5F8A5
:101260008800216C20F040600843C5F88800206C9D
:10127000B8423BD1E86840F48010E8603EE0D5F821
:10128000900010F4407014D0216D814211D0D5F837
:101290009000D5F8901020F4407041F48031C5F8EA
:1012A0009010D5F8901021F48031C5F89010C5F851
:1012B0009000C00711D0FFF79BFB074641F2883929
:1012C00007E000BFFFF794FBC11B494501D9032686
:1012D00068E7D5F890008007F4D5D5F89000216D27
:1012E00020F440700843C5F890005BE7404505D105
:1012F0000121201D00F0D2FF00B106462068400306
:1013000017D5D5F88800616C20F040600843C5F817
:101310008800606CB84204D1E86840F48010E8604E
:1013200007E0404505D10121201D00F0B7FF00B1C5
:1013300006462088400411D5D5F88800A16C20F01D
:1013400040500843C5F88800A06CB0F1805F05D11B
:101350000221201D00F0A2FF00B1064620880004F3
:1013600006D555F8880FE16C20F0804008432860CE
:10137000304600F005B80000001002400070004048
:1013800018BCBDE8E08F00002DE9F0470F460500CE
:101390006BD0494E306800F00700B84209D230687F
:1013A00020F0070038433060306800F00700B84292
:1013B0005BD12878414C80070AD5A868A16801F064
:1013C000F001884204D9A16821F0F0010143A16035
:1013D0002878C0072CD06868032811D0022812D0C2
:1013E000216898B1490500293FDAA16821F003017D
:1013F0000143A160FFF7FCFA804641F2883910E012
:1014000021688901EFE721688903ECE78907EAE7AA
:10141000FFF7EEFAA0EB0801494502D90320BDE829
:10142000F087A068696800F00C00B0EB810FEFD185
:10143000287880070AD5A868A16801F0F0018842E1
:1014400004D2A16821F0F0010143A160306800F0EE
:101450000700B8420BD9306820F0070038433060ED
:10146000306800F00700B84201D00120D7E72878A3
:10147000400705D5A068E96820F4E0600843A06053
:101480002878000706D5A068296920F4605040EA52
:10149000C100A06000F03EF8A168094AC1F3031141
:1014A000515C01F01F01C840064908600648006809
:1014B000BDE8F047FFF76CBD00200240001002407D
:1014C000342E0008100000200800002005480649BE
:1014D00000688968054AC1F30221515C01F01F01CF
:1014E000C84070471000002000100240742E000811
:1014F0000548064900688968054AC1F3C221515C64
:1015000001F01F01C8407047100000200010024089
:10151000742E000870B52549002318468A68CC68E7
:1015200012F00C0204F00306214C4FEA640509D0C6
:101530000C2A05D0042A32D0082A00D1284670BDD2
:10154000012E10D10B681B0704D4D1F89430C3F3DB
:10155000032302E00B68C3F30313164E56F823303F
:10156000DAB10C2AEBD1C86800F00300022818D0C9
:10157000032818D01846CA68CB68C2F30212C3F316
:1015800006234343521CB3FBF2F2C868C0F3416028
:10159000401C4000B2FBF0F070BD184670BD204604
:1015A00070BD2046E7E72846E5E70000001002404E
:1015B0000024F400442E00082DE9F84304006FD005
:1015C000FA4DA86800F00C06E86800F003072078E0
:1015D000C00664D576B10C2E01D1012F0AD0A069C6
:1015E000002828687AD040F001002860FFF700FA50
:1015F00080465DE02868800702D5A0690028DED01B
:10160000216A2868000703D5286800F0F00004E08C
:10161000D5F89400F02202EA1010814216D908464B
:1016200000F0D2FE00283BD1286840F00800286076
:101630002868216A20F0F000084328606868E169A2
:1016400020F47F4040EA0120686016E0286840F0FE
:10165000080028602868216A20F0F000084328600C
:101660006868E16920F47F4040EA0120686026B99B
:10167000206A00F0A9FE0028D5D1FFF74BFFA9682A
:10168000CB4AC1F30311515C01F01F01C840C949A5
:101690000860C9480068FFF77BFC00287ED12EE077
:1016A000CAE000BFFFF7A4F9A0EB0800022876D833
:1016B00028688007F6D5286840F008002860286868
:1016C000216A20F0F000084328606868E16920F48E
:1016D0007F4040EA0120686011E0FFE720F0010050
:1016E0002860FFF785F9804606E000BFFFF780F924
:1016F000A0EB08000228DAD828688007F6D4207802
:10170000C00740D0082E18D00C2E01D1032F14D0C2
:101710006068B0F5803F17D0B0F5A02F286817D0CB
:1017200020F480302860286820F4802028606068D9
:10173000E0B1FFF75DF9804614E02868800322D508
:101740006068002878D01EE0286840F48030EDE71B
:1017500040F480202860F7E7FFF74AF9A0EB080083
:101760006428A4D828688003F6D50CE0FFF740F978
:10177000804605E0FFF73CF9A0EB0800642896D806
:1017800028688003F6D4207880073BD5042E11D03A
:101790000C2E01D1022F0DD0E06801E0AAE1FFE09C
:1017A000002828681ED040F480702860FFF720F9D8
:1017B00007460CE0286840050CD5E0680028C1D039
:1017C00008E000BFFFF714F9C01B022893D828686F
:1017D0004005F7D56868217C20F0F85040EA0160A8
:1017E00068600FE020F480702860FFF701F9074679
:1017F00005E000BFFFF7FCF8C01B0228B1D828683D
:101800004005F7D42078000729D560690028D5F86D
:10181000940012D040F00100C5F89400FFF7E8F8FA
:10182000074604E0FFF7E4F8C01B022899D8D5F872
:1018300094008007F6D512E02BE120F00100C5F8F6
:101840009400FFF7D5F8074605E000BFFFF7D0F892
:10185000C01B022885D8D5F894008007F6D42078DC
:10186000400766D5A86D0027C00008D4A86D40F0D9
:101870008050A865A86D012700F0805000904F4867
:101880000168C90512D40168814641F48071016084
:10189000FFF7AEF8804605E0FFF7AAF8A0EB0800D6
:1018A00002287DD8D9F80000C005F5D5A068012828
:1018B00016D00528D5F8900017D020F00100C5F803
:1018C0009000D5F8900020F0040000BFC5F890000B
:1018D000A06841F28839C0B1FFF78AF880460FE06E
:1018E000D5F8900040F00100F0E740F00400C5F8A2
:1018F0009000F5E7FFF77CF8A0EB080149454FD8C9
:10190000D5F890008007F5D50EE0FFF771F8804616
:1019100006E000BFFFF76CF8A0EB080149453FD88F
:10192000D5F890008007F5D41FB1A86D20F0805045
:10193000A8652078800628D5606A0028D5F8980028
:1019400012D040F00100C5F89800FFF751F80746A3
:1019500005E000BFFFF74CF8C01B022820D8D5F8DF
:1019600098008007F6D510E020F00100C5F8980037
:10197000FFF73EF8074604E0FFF73AF8C01B0228DD
:101980000ED8D5F898008007F6D4A06AF0B30228E4
:1019900016D00C2E7DD0286820F08070286000E0E2
:1019A000A7E0FFF725F80446A6E00000001002407B
:1019B000342E0008100000200800002000700040B5
:1019C000E868E26A00F00301914228D1216B00F03F
:1019D000700209011039914221D1626B00F4FE417D
:1019E000B1EB022F1BD194F8382000F07841B1EB15
:1019F000C26F14D1A18F00F4C00249084905A1F5B6
:101A0000001191420BD194F8401000E06AE04908BF
:101A1000490600F0C060A1F1007181424BD00C2E4C
:101A200073D02868400170D4286820F08070286046
:101A3000FEF7DEFF064604E0FEF7DAFF801B022811
:101A400057D828688001F7D4F4E90B016FF00F0232
:101A500002EB01110843218A5204490802EB41516B
:101A6000A26841EA02210843217D4FF07E424908E5
:101A700002EB41610843217B40EAC160E968244AE6
:101A800011400843E860286840F080702860E868EA
:101A900000E03AE040F08070E860FEF7A9FF0446FD
:101AA00005E000BFFEF7A4FF001B022821D828682C
:101AB0008001F7D527E02868800124D4286840F009
:101AC00080702860E86840F08070E860FEF790FF62
:101AD000044604E0FEF78CFF001B022809D82868A2
:101AE0008001F7D50FE000BFFEF782FF001B022840
:101AF00002D90320BDE8F88328688001F4D4E8689F
:101B000004490840E8600020F4E70120F2E7000003
:101B10008C809D01FCFFEEFE70B5040009D0606A68
:101B2000002540B125616561A56294F85D0040B172
:101B30000CE0012070BD6068B0F5827FF4D0E561F3
:101B4000F2E784F85C50204600F056F8022084F852
:101B50005D002068016821F040010160E1684FF4F8
:101B6000E062914201D9002001E04FF48050B1F5CC
:101B7000706F02D0914200D0A562A188228901F441
:101B8000827102F404421143227C02F002021143EA
:101B9000227D02F001021143228B02F400721143F4
:101BA000227F02F03802114394F8202002F08002D4
:101BB0001143228D02F40052114322681160A16981
:101BC000042202EA114194F8242000F4805002F02B
:101BD0001002114394F8342002F008021143A28944
:101BE00002F47062114301432068416025660120C0
:101BF00084F85D00002070BD30B587B00446142124
:101C00006846FEF7F6FC2468204D00212048022299
:101C10000323AC421AD1046E44F480540466046E6B
:101C200004F480540594C46C44F00104C464C06C92
:101C3000CDE9021300F001000590C220CDE90002B9
:101C40000520049069464FF090401BE0114DAC42D6
:101C50001AD1846D44F400448465846D04F4004416
:101C60000594C46C44F00204C464C06CCDE9021352
:101C700000F0020005903820CDE900020620049013
:101C800069460548FEF7A6FD07B030BD00300140AB
:101C900000100240003C00400004004810B5401E07
:101CA000B0F1807F01D3012010BD4FF0E0246061CE
:101CB0000F21601701F000F80020A06107202061CB
:101CC000002010BD10B5040002D0A06F10B107E0D5
:101CD000012010BD002084F87400204600F026F892
:101CE0002420A0672068016821F0010101602046DE
:101CF00000F090FE0128ECD0606A10B1204600F0A0
:101D0000B5FD2068416821F49041416020688168F8
:101D100021F02A0181602068016841F00101016021
:101D20002046BDE8104000F005BE0000F0B59BB0B5
:101D30000446142115A8FEF75CFC54216846FEF702
:101D400058FC1C492068884232D10224002668468B
:101D500009960094FFF7D2F908B1FEF726FD164860
:101D6000816D41F400318165816D01F400311A917A
:101D7000C16C41F00101C164C06C15A900F0010003
:101D80001A90042081E8510003250720CDE918505E
:101D90004FF090473846FEF71DFDCDE917654FF42B
:101DA00000401995CDE9150415A93846FEF712FD36
:101DB0001BB0F0BD00440040001002402DE9F84384
:101DC0000446806F1F4616460D4620284FD1CDB1E0
:101DD000C6B194F87400012849D0012084F8740039
:101DE0004FF00008C4F880802120A067FEF700FEB5
:101DF000A4F850608146A4F85260A068B0F5805FF6
:101E000003D004E00120BDE8F883206928B12E4604
:101E10005FF0000584F8748010E00026FAE7802166
:101E2000204600F0E5FEB8B9C6B116F8010B2168EE
:101E30000885B4F85200401EA4F85200B4F85200CD
:101E40004B464FF0000200970028E8D14FF04001C8
:101E5000204600F0CDFE30B10320D4E735F8020B68
:101E6000C0F30800E3E72020A0670020CBE70220B2
:101E7000C9E7FEE701688A69D243920701D40022CC
:101E80008A6200688169C943C90703D0816941F04A
:101E900001018161704700002DE9F04704460068A8
:101EA0008A461746816900252E46C906A9464FF085
:101EB000200849D51021C16137E000BFBAF1FF3FCA
:101EC00033D0FEF795FDC11B514502D8BAF1000F82
:101ED0002BD12068416894F8422001F48041836945
:101EE000DB431B041CD4B1F5804F19D0202A17D036
:101EF000416841F480414160FEF77AFD07460FE0FA
:101F0000FEF776FDC01B19280AD9606C40F020004E
:101F1000606484F8418084F8429084F84090012500
:101F200020688069C0438006EAD420688069C04385
:101F3000800602D5002DC1D003E015B92168C1F893
:101F40001C8046F00406012521688869C20505D574
:101F50004FF4807246F00106CA610125410509D59A
:101F600022684FF4806146F00806D16101258005A2
:101F700002D40AE0800507D521684FF4007046F0CE
:101F80000206C861012500E08DB12046FFF772FF0F
:101F900054F8240B4168074A11404160206A3043DD
:101FA000206284F81D8084F81E9084F81C902846D6
:101FB000BDE8F08700E800FE10B5C1F3090141EA71
:101FC00002410268029C19432143506821F00041FC
:101FD0004FF4806303EA5453024C2343984308436D
:101FE000506010BDFF63FF032DE9F0411D46174609
:101FF0000E460446DDF8188008E0681C06D0FEF79F
:10200000F7FCA0EB0800A8420BD855B12068806906
:1020100036EA000012D00020B842EED00020BDE821
:10202000F08154F8440F40F0200044F804092020C7
:1020300060700020A07020700120F0E70120EBE725
:102040002DE9F041202690460F460446002530E059
:10205000424639462046FFF71FFF10BB20688069C3
:10206000C04380061ED420688169C943490701D452
:10207000218D19BB8169C943C90604D41021C161EE
:102080000420606400E065642068C66120684168DF
:10209000114A1140416084F8416084F8425084F84C
:1020A000405016E0FEF7A4FCA0EB0800B84208D8A8
:1020B0003FB120688069C0434007C9D40020BDE813
:1020C000F08154F8440F40F0200044F80409667091
:1020D00025700120F3E7000000E800FE70B5164609
:1020E0000D4604460DE0324629462046FFF7D4FE51
:1020F00008B1012070BDFEF77BFC801BA84207D809
:1021000035B120688069C0438006ECD4002070BDE2
:1021100054F8440F40F0200044F804092020607077
:102120000020A0702070E4E770B516460D46044606
:102130000FE0324629462046FFF7AEFE08B10120E7
:1021400070BD681C05D0FEF753FC801BA84207D861
:1021500035B120688069C0438007EAD4002070BD93
:1021600054F8440F40F0200044F804092020607027
:102170000020A0702070E2E7134810B511490160FB
:1021800040F61241416000210122C0E902120161C2
:1021900041618161C1610162FEF784FC08B172B6E0
:1021A000FEE700210848FEF729FC08B172B6FEE7F9
:1021B00000210548FEF74DFC002801D072B6FEE76D
:1021C00010BD00000054004014000020114810B55C
:1021D0000F4901604FF48271416000214FF4E062C9
:1021E000C0E902124FF400720161C0E90512C16139
:1021F000016207224162C0E90A12016308214163BA
:10220000FFF78AFC002801D072B6FEE710BD00007F
:1022100000300140680000200F4810B50D490160F2
:1022200000214FF4E0624160C0E902124FF40072F5
:102230000161C0E90512016207224162C0E90A1288
:1022400001634163FFF768FC002801D072B6FEE726
:1022500010BD0000003C0040CC0000200C4810B530
:102260000A4901604FF4E1314160002181600C2294
:10227000C160C0E904128161C16101624162FFF77E
:1022800021FD002801D072B6FEE710BD00440040D9
:1022900030010020FEE7FEE7704700002DE9F04125
:1022A000444C05468846E0680026810728680DD022
:1022B000E16801F00301814216D1A8B1E0686968C4
:1022C000C0F30210401C88420ED120E0012804D047
:1022D000022805D0032807D108E02168890701E01A
:1022E00021684905002907DB01265FE02168890391
:1022F00002D421684903F5E7E1686A686FF00F03CB
:1023000021F0730103EB021211430143E1602068E5
:1023100020F080602060FEF76BFB074605E000BF01
:10232000FEF766FBC01B022837D820680001F7D4EF
:10233000B8F1000F18D0B8F1010F1DD0287D4FF073
:102340007E41400801EB4060A96840EA0120216914
:10235000194A114008432061206840F080602060E5
:10236000FEF746FB07461AE0A868297B000240EA10
:10237000C1602169114AECE7288A1149400801EB44
:102380004050A96840EA012021690E4AE1E700BFF8
:10239000FEF72EFBC01B022801D9032606E02068A9
:1023A0000001F5D52069A969084320613046BDE8E0
:1023B000F081000000100240FF80FFF9FF80FF075E
:1023C0000000E0FFFF809FFFF8B51C4D064600248B
:1023D000A86DC00002D5FEF779FE0DE0A86D40F0B3
:1023E0008050A865A86D00F080500090FEF76EFE4A
:1023F000A96D21F08051A965B0F5007F04D0802E31
:1024000007D94FF003040AE0802E08D9A02E01D886
:1024100004E001D1022402E0702E00D1012408481A
:10242000016821F0070121430160006800F0070006
:10243000A04201D00120F8BD0020F8BD00100240EC
:10244000002002401CB50B490F200A2408700A46E0
:102450000123D02108480094FEF7ACFC012301AA17
:10246000D12105480094FEF70FFC9DF8040000F010
:1024700002001CBD00000020140000207CB5114C9F
:102480000F260A25267001232246D0210E480095EA
:10249000FEF790FC012301AAD1210B480095FEF71D
:1024A000F3FB9DF80400022320F002008DF80400E5
:1024B000267060702246D02103480095FEF77AFC12
:1024C0007CBD0000000000201400002038B50D4C39
:1024D0000E204FF0FF3520701E2060700223224630
:1024E000D02109480095FEF765FC0F2020700020E0
:1024F000607002232246D02103480095FEF75AFC63
:1025000038BD0000000000201400002010B54FF07E
:10251000FF330A22D0210548FEF720FB002803D113
:10252000BDE8104000F0AAB810BD00001400002063
:102530002DE9FC5F8146DDE90CAB00201E46174605
:1025400088468DF804000A24012301AAD0214848B6
:102550000094FEF72FFC01AD0123D12144486A1CF1
:102560000094FEF791FB9DF80500387001208DF86E
:102570000400034601AAD0213D480094FEF71AFC4E
:1025800001236A1CD1213A480094FEF77DFB9DF897
:10259000051088F8001002208DF80400012301AA1C
:1025A000D02133480094FEF705FC01236A1CD12199
:1025B0002F480094FEF768FB9DF80500012300F00A
:1025C0003F0189F8001003208DF8040001AAD021F2
:1025D00027480094FEF7EEFB01236A1CD121244812
:1025E0000094FEF751FB9DF80500307004208DF833
:1025F0000400012301AAD0211D480094FEF7DAFB54
:1026000001236A1CD1211A480094FEF73DFB9DF876
:1026100005108AF8001005208DF80400012301AA96
:10262000D02113480094FEF7C5FB01236A1CD12179
:102630000F480094FEF728FB9DF805108BF800105A
:1026400006208DF80400012301AAD0210848009437
:10265000FEF7B0FB01236A1CD12105480094FEF768
:1026600013FB0E989DF80510017000F003B80000F0
:10267000140000203CBCBDE8C09F000070B5064DB2
:10268000002408212846FEF7A6F9FA20FEF790F864
:10269000641C0A2CF5DB70BD00040048F8B5154C2D
:1026A00007460B20207002F07F0060700E464FF04E
:1026B000FF3502232246D0210F480095FEF77AFB12
:1026C0000C20207006F03F00607002232246D021CB
:1026D00009480095FEF76EFB0D20207007F03F00C3
:1026E000607002232246D02103480095FEF762FB6A
:1026F000F8BD000000000020140000202DE9FC4778
:1027000007460AA81D4690E8000700208DF804003F
:102710000E468DF805200A24022301AAD02127485D
:102720000094FEF747FB01208DF804008DF805604A
:10273000022301AAD02121480094FEF73BFB02208E
:102740008DF8040003468DF8057001AAD0211B48BE
:102750000094FEF72FFB03208DF804008DF8055040
:10276000022301AAD02115480094FEF723FB042080
:102770008DF804008DF80580022301AAD0210F48AE
:102780000094FEF717FB05208DF804008DF80590E6
:10279000022301AAD02109480094FEF70BFB062072
:1027A0008DF804008DF805A0022301AAD02103486A
:1027B0000094FEF7FFFA00F003B8000014000020B8
:1027C0000CBCBDE8F0877047FEF7CABB30B597B0C8
:1027D00044216846FDF70DFF142111A8FDF709FFFC
:1027E0004FF40070FEF73EFC08B172B6FEE7FEF74C
:1027F00075FC194850F8901F21F018010160142051
:102800000090012006AA00249025029082E8310061
:102810000221CDE90A1005200C9012200D9007200E
:10282000CDE90E01062010906846FEF7C5FE08B1FE
:1028300072B6FEE70F20119003201290CDE91354D9
:10284000002111A81594FEF79FFD08B172B6FEE7AE
:10285000FEF74CFC17B030BD001002400248016882
:1028600041F470010160704788ED00E090F8241099
:10287000C90706D001684A68836A22F400321A4305
:102880004A6090F82410890706D501684A68C36A2F
:1028900022F480321A434A6090F82410490706D582
:1028A00001684A68036B22F480221A434A6090F858
:1028B0002410090706D501684A68436B22F40042D8
:1028C0001A434A6090F82410C90606D501688A6840
:1028D000836B22F480521A438A6090F82410890690
:1028E00006D501688A68C36B22F400521A438A60D5
:1028F00090F82410490611D501684A68036C22F447
:1029000080121A434A60016CB1F5801F06D101683C
:102910004A68436C22F4C0021A434A6090F82410BB
:10292000090606D501684A68806C22F40022024339
:102930004A607047F8B500260446C0F88060FEF78C
:1029400057F80546206800686FF07E47000708D5F5
:102950002B4600224FF400112046009700F048F962
:1029600060B92068006840070AD52B4600224FF462
:1029700080012046009700F03BF908B10320F8BD24
:102980002020A067E067266684F874600020F8BD08
:1029900070B586B00DF1280C9CE87000CDE90030D0
:1029A0000DF1080C23468CE846002A4606A1114882
:1029B000FDF7DCFC06B00F49BDE870400A23642235
:1029C000A1F18400FFF7FAB93230253032782D2595
:1029D0003032782D2530327820253032783A253043
:1029E00032783A25303278202844617920256429CC
:1029F0000D0A0000B4010020002200E0521C815C9E
:102A00000029FBD1014692B20A230148FFF7D6B94B
:102A1000300100202DE9F0410446016880682269F8
:102A2000E66910436269002532431043694B0A6826
:102A3000694E324002430A6020684168E26821F42E
:102A40004051114341602168A069994201D0226A36
:102A500010438A6822F4306202438A605F49276823
:102A60005F488F420DD1D0F8880010F0030006D0E7
:102A7000012838D0022834D0032821D135E00121A3
:102A80001FE058498F420BD1D0F8880010F00C009D
:102A900025D0042827D0082823D00C2810D124E0E2
:102AA0009F420DD1D0F8880010F4406017D0B0F5E7
:102AB000806F18D0B0F5006F13D0B0F5406F14D010
:102AC0001021494A00264FF400409F422FD171B196
:102AD00002290FD004290FD0082973D10FE000215B
:102AE000EFE70221EDE70421EBE70821E9E7FEF734
:102AF000EDFC03E0104602E0FEF70CFDF0B3626867
:102B000002EB420181425DD8B0EB023F5AD8010E80
:102B100003025008181871410023FDF7AFFB334A38
:102B2000A0F5407191424DD82168C8604BE0E3693F
:102B30004FF6EF77834228D1092943D2DFE801F02D
:102B400005080B420D4242421000FEF7BFFC06E0B2
:102B5000FEF7CEFC03E0104602E0FEF7DBFC68B1B6
:102B60004100606801EB5001B1FBF0F0A0F11001F1
:102B7000B94227D84FF6F071014000E023E0C0F3DE
:102B8000420001432068C1601DE009291AD2DFE834
:102B900001F005080B190D1919191000FEF796FC24
:102BA00006E0FEF7A5FC03E0104602E0FEF7B2FCEB
:102BB00048B1616800EB5100B0FBF1F0A0F11001E9
:102BC000B94205D9012566662846A666BDE8F081AA
:102BD00080B2A9E700800040F369FFEF00380140B0
:102BE00000100240004400400024F400FFFC0F00ED
:102BF0002DE9F0479A4617460E4604464FF0000965
:102C00004FF02008089D4AE0681C48D0FDF7F0FE10
:102C1000A0EB0A00A8422AD84DB3206801684907F2
:102C20003DD5C069C043000539D421684FF4006028
:102C30000862206850E8001F21F4D07140E80012BB
:102C4000002AF6D12068083050E8001F21F0010169
:102C500040E80012002AF5D1C4F87880C4F87C80DE
:102C6000C4F8808084F874900320BDE8F087216860
:102C700051E8000F20F4D07041E80002002AF6D19C
:102C80002068083050E8001F21F0010140E80012E0
:102C9000002AF5D1C4F87880C4F87C80E2E7206887
:102CA000C06936EA000004D00020B842ACD0002051
:102CB000DBE70120F9E7FEE70907090E002804DB3E
:102CC00000F1E02080F80014704700F00F0000F1E0
:102CD000E02080F8141D704730380A2801D2012006
:102CE00070470020704700008AB0FEF741F9FFF7F7
:102CF0006DFD3A48C16C41F00401C164C16C01F042
:102D000004010091C16C41F00101C164C16C01F08A
:102D100001010091C16C41F00201C164C06C00F07E
:102D200002000090FFF79AFAFFF750FAFFF774FAE3
:102D3000FFF722FAFFF7EAFB29A0FFF75DFE252245
:102D4000112117208DE807000223002256211820A8
:102D5000FFF7D4FC572218211720FFF79FFCFFF73D
:102D6000B5FB294C05AD04AE03AF41F288384FF4F2
:102D70007A790097CDE9016509AB06AA07A908A8E9
:102D8000FFF7D6FB9DF810009DF824209DF8141045
:102D90008DE807009DF80C309DF818209DF81C1058
:102DA0009DF82000FFF7F4FDFFF74CFB88B117A05A
:102DB000FFF722FE012210212046FDF714FE4046B7
:102DC000FDF7F6FC002210212046FDF70CFEFFF770
:102DD00055FB4846FDF7ECFCCBE700000010024035
:102DE0005254432044656D6F3A2046756C6C204404
:102DF0006174652F54696D65202620416C61726D88
:102E000020322E0D0A00000000040048414C4152BF
:102E10004D2032204D41544348212042757A7A6931
:102E20006E672E0D0A0000004FF04070E1EE100AB0
:102E300070470000000000000000000001020304D1
:102E400006070809A0860100400D0300801A06004D
:102E500000350C0040420F0080841E0000093D0038
:102E600000127A000024F40000366E010048E801E8
:102E7000006CDC0200000000010203043031323338
:102E8000343536373839414243444546403058009E
:102E900030313233343536373839616263646566D0
:102EA000403078000400000800000000000000022C
:102EB0000001000010000000D82E000800000020D3
:102EC00014000000C8010008EC2E000814000020C7
:102ED00064080000E4010008000000000100000098
:0C2EE000100000000000000000093D0090
:040000050800018D61
:00000001FF
