:020000040800F2
:10000000080800203502000863210008F31C0008DE
:100010006121000827070008272A000800000000C7
:10002000000000000000000000000000552500084E
:100030002907000800000000652100085725000876
:100040004F0200084F0200084F0200084F0200084C
:100050004F0200084F0200084F0200084F0200083C
:100060004F0200084F0200084F0200084F0200082C
:100070004F0200084F0200084F0200084F0200081C
:100080004F0200084F0200084F0200084F0200080C
:100090004F0200084F0200084F0200084F020008FC
:1000A0004F0200084F0200084F0200084F020008EC
:1000B0004F02000800000000000000004F0200088E
:1000C0004F02000800000000000000004F0200087E
:1000D000000000004F0200084F020008000000006E
:1000E0004F0200084F02000800000000000000005E
:1000F0000000000000000000000000000000000000
:100100000000000000000000000000004F02000896
:1001100000000000000000004F0200084F0200082D
:100120004F0200084F0200084F0200084F0200086B
:100130004F02000800000000000000000000000066
:100140004F0200084F0200084F0200084F0200084B
:100150004F0200084F0200084F0200084F0200083B
:100160004F0200084F0200084F0200080000000084
:100170004F0200084F0200080000000000000000CD
:100180004F0200084F0200084F02000800F002F87A
:1001900000F041F80AA090E8000C82448344AAF1E0
:1001A0000107DA4501D100F036F8AFF2090EBAE8DE
:1001B0000F0013F0010F18BFFB1A43F0010318479B
:1001C000F0290000102A0000103A24BF78C878C136
:1001D000FAD8520724BF30C830C144BF04680C604D
:1001E000704700000023002400250026103A28BF95
:1001F00078C1FBD8520728BF30C148BF0B60704799
:10020000782900F0EB80002070471FB502F088FCD1
:100210001FBD10B510BD00F04CFA1146FFF7F5FFF9
:1002200002F01AFC00F06AFA03B4FFF7F2FF03BC15
:1002300000F072FA0948804709480047FEE7FEE7E8
:10024000FEE7FEE7FEE7FEE7FEE7FEE7FEE7FEE786
:1002500004480549054A064B70470000E925000897
:100260008D01000808020020080800200804002072
:100270000804002053EA020C00F069802DE9F04BDD
:100280004FF00006002B1FBFB3FA83F503FA05F405
:1002900024FA05F65E4012BF1643B2FA82F502FA5E
:1002A00005F4C5F120051EBF22FA05FC44EA0C0442
:1002B000203556EA044C4FEA144418BF641C4FF032
:1002C00000084FF00009904271EB030C39D300296C
:1002D00019BFB1FA81F701FA07F6B0FA80F700FA10
:1002E00007F6C7F120071EBF20FA07FC46EA0C06F6
:1002F0002037B6FBF4FCA7EB0507103F07F01F0BF8
:10030000CBF120060CFA0BFB2CFA06F644BFB346E1
:100310000026202FA4BF5E464FF0000B5BEA060CC0
:1003200008BF4FF0010B19EB0B09ABFB027C48EB4C
:100330000608C01B06FB02CC0BFB03CC71EB0C01C7
:10034000C1E70B46024641464846BDE8F08B13B56F
:100350004FF000004FF00001AFF30080BDE81C40FB
:10036000704700000FB41CB5074B06AA7B446946D2
:100370000090059800F085F90020694600F094F996
:100380001CBC5DF814FB00003903000070B5044686
:1003900085690068C10601D5302600E02026C00727
:1003A00007D070BDD4E9012130469047206A401C37
:1003B00020626D1EF6D570BD70B504468569007863
:1003C000C00707D170BDD4E9012120209047206AE1
:1003D000401C20626D1EF6D570BD000070B504464D
:1003E0000D4621461068AFF300802188090502D52B
:1003F0000F4A7A4402E00E4A7A440E32002104F198
:10040000240305E000F00F060009965D5E54491CC8
:100410000028F7D120780023000704D5702D02D0E2
:1004200009B1022311322046BDE8704000F0CBB87C
:100430007E2700002DE9F05F894604464FF0000A50
:10044000DFF824B1FB44C0F820A02046E1688847CB
:1004500000287DD0252806D0D4E901219047206AC4
:10046000401C2062F1E700255F462046E16888478E
:100470002028064607DB312E05D2B81910F8200CCB
:1004800008B10543F1E7A80701D525F00405C4F834
:100490001CA00027C4F818A02A2E09D0304602F06C
:1004A000D3FA38B304EB8708303EC8F8186019E077
:1004B00059F8041B204604EB87029161E1688847E4
:1004C000012F064618D1E069002820DA25F0200522
:1004D0001DE0D8F8180000EB800006EB4000303833
:1004E000C8F818002046E1688847064602F0ACFAD2
:1004F0000028EED1012F0AD02E2E08D12046E16827
:1005000088477F1C0646022F45F02005C4DBA06902
:10051000002803DA404245F00105A061E80701D058
:1005200025F01005A6B1A6F14100192802D8203601
:1005300045F400654A463146204625604D46FFF7A2
:100540005FFE60B1012807D0ED1D25F0070000E037
:1005500007E000F1080978E705F1040975E730467E
:100560007AE7206A00F002B85427000030BCBDE8EA
:10057000C09F4FF0000200B51346944696462039BE
:1005800022BFA0E80C50A0E80C50B1F12001BFF44C
:10059000F7AF090728BFA0E80C5048BF0CC05DF8B2
:1005A00004EB890028BF40F8042B08BF704748BF00
:1005B00020F8022B11F0804F18BF00F8012B704774
:1005C0007047704770472DE9F0470D4699469246AF
:1005D000044600F124080168880604D5E06921F08A
:1005E0001001216000E00120A84201DD471B00E06E
:1005F0000027A1697A1902EB0900081AA061207886
:10060000C00602D42046FFF7C1FE002608E0D4E968
:1006100001211AF806009047206A401C761C2062CF
:100620004E45F4DB2078C0060AD52046FFF7AEFE23
:1006300006E0D4E9012130209047206A401C206266
:10064000381EA7F10107F4DC07E0D4E9012118F80E
:1006500005009047206A401C2062281EA5F1010574
:10066000F3DC2046FFF7A8FE2078000602D5022022
:10067000BDE8F0870120FBE701694A1C02610878A8
:10068000704700B58FB0CDE90131002105910549D2
:100690007944CDE9031011466846FFF7CBFE0FB051
:1006A00000BD0000E5FFFFFF0A6802F8010B0A60C9
:1006B0007047754600F02CF8AE4605006946534673
:1006C00020F00700854618B020B5FFF7C1FDBDE852
:1006D00020404FF000064FF000074FF000084FF0A9
:1006E000000B21F00701AC46ACE8C009ACE8C0093A
:1006F000ACE8C009ACE8C0098D46704710B50446A7
:10070000AFF300802046BDE81040FFF78DBD00002C
:1007100000487047A801002001491820ABBEFEE741
:10072000260002007047FEE7704772B6FEE7000041
:1007300070B5044600F01CF90546601C02D0044860
:100740000078044400F014F9401BA042FAD370BDB5
:10075000080000202DE9F04FDFF8E0910023012789
:100760000326A9F1040B85B00F2509F1040AABF1AA
:10077000040EDBE007FA03FC12EA0C027ED00C79CF
:1007800004F00304012C01D0022C20D184680094D1
:100790005C0006FA04F80494009C24EA080400941F
:1007A000D1F80C80049C08FA04F8009C48EA04087C
:1007B000C0F80880446824EA0C0491F804C0CCF323
:1007C000001C0CFA03FC4CEA040CC0F804C00C79C1
:1007D000E443A4070DD0D0F80CC04FEA430806FA52
:1007E00008F42CEA040C8C6804FA08F444EA0C04BB
:1007F000C4600C7904F00304022C19D1DC0800EB6E
:1008000084040294246A4FEA437C4FEADC6CCDF8FE
:1008100010C005FA0CFC24EA0C04D1F81080DDF8B5
:1008200010C008FA0CF848EA0408029CC4F82080BA
:1008300004684FEA430806FA08FC24EA0C0491F81D
:1008400004C00CF0030C0CFA08FC4CEA040CC0F8D1
:1008500000C04C6814F4403F67D0394CD4F860C0F5
:100860004CF0010CC4F860C0246E23F0030C04F0BB
:1008700001040094334C6444029400E055E0A46801
:100880004FEA837C4FEA1C7805FA08FC24EA0C0442
:10089000B0F1904F06D0DFF8B0C0604505D14FF001
:1008A000010C0BE04FF0000C08E0DFF8A0C0604541
:1008B00002D14FF0020C01E04FF0070C0CFA08FCDB
:1008C0004CEA040C029CC4F808C0D9F80040CC469D
:1008D000D1F8048094435FEAC82800D51443CCF8CB
:1008E0000040DAF80040D446D1F8048094435FEA2F
:1008F000882800D51443CCF80040DBF80040DC46E3
:10090000D1F8048094435FEA883800D51443CCF8CA
:100910000040DEF80040F446D1F8048094435FEADA
:10092000C83800D51443CCF800405B1C0C68224644
:10093000DC407FF41FAF05B000F00AB808040140A6
:100940000010024000000140000400480008004878
:1009500030BCBDE8C08F426921EA02030A4043EA85
:100960000241816170470AB18161704781627047BD
:1009700001488068704700000800002090F841207E
:10098000202A24D190F84020012A20D0012280F88A
:100990004020242280F841200268136823F00103DC
:1009A00013600268136823F48053136002681368AD
:1009B0000B43136001680A6842F001020A602021BB
:1009C00080F84110002180F840100846704702204E
:1009D000704790F84120202A22D190F84020012A27
:1009E0001ED0012280F84020242280F84120026895
:1009F000136823F0010313600268136823F4706323
:100A000043EA0121116001680A6842F001020A60AC
:100A1000202180F84110002180F8401008467047DE
:100A20000220704770B5040004D094F841000025FE
:100A300010B106E0012070BD84F84050204600F05F
:100A40000FFA242084F841002068016821F0010198
:100A500001606068216820F070600861206881682A
:100A600021F400418160E0680128A06807D040F4CB
:100A7000044021688860E068022803D006E040F462
:100A80000040F6E721684FF4006048602068416844
:100A9000114A114341602068C16821F40041C160DE
:100AA000D4E904010843A16940EA01202168C86033
:100AB000D4E907010843216808602068016841F013
:100AC000010101606564202084F84100256384F8F9
:100AD0004250002070BD0000008000022DE9FC475C
:100AE00000260446019690F841001F46924689462A
:100AF00020287ED120688069C043000479D594F80D
:100B00004000012875D0012084F84000242084F89A
:100B1000410066644FF02008E068012809D029F4FC
:100B2000544040F4205021684860FFF721FF0546FB
:100B30000DE0314949EA010030490840F3E7781CEB
:100B400005D0FFF715FF401BB84219D8C7B121687F
:100B500088698969C0F34010C1F300110843EED0E1
:100B6000206880693B46C043C0064FF000024FF04A
:100B700020012046009517D501F076F968BB09E001
:100B800084F8418054F8440F40F0200044F80409F0
:100B9000267022E02168C1F81C8084F8418084F826
:100BA0004060002000F02CB801F05EF9A8B921687F
:100BB0001020C8612168C1F81C800198504512D1ED
:100BC0002068416841F4804141603B460022202179
:100BD0002046009501F048F910B10120E2E708E055
:100BE0002168C1F81C800198401C0190504593D3A6
:100BF000C6E70220D6E7000000200002FF23000223
:100C00000CBCBDE8F08700002DE9F84F044690F8D1
:100C10004100DDF828A01F4690468B4620287ED153
:100C200094F8400001287AD0012084F84000FFF7B2
:100C30009FFE0646012200901923D103204601F0B1
:100C400013F9E0BB222084F84100102084F8420010
:100C500000256564C4F8248067856563618D31482B
:100C6000FF274FF080784FF00079FF2903D92785BF
:100C70003A46009039E0618D218500903AE059466E
:100C8000204601F0D9F813E001F01AF9B8B920684C
:100C9000406A616A0870606A401C6062208D401E74
:100CA00080B22085618D491E6185618D01B168B179
:100CB000608D3246002851462046E5D100E002E032
:100CC00001F04CF9D0B1012000F030B853460022B9
:100CD00080212046009601F0C7F80028F3D1608DEE
:100CE000FF2804D927853A4600954346C7E7608D1B
:100CF0002085009594F828204B46C0E721682020E5
:100D0000C86121684A68084B1A404A6084F841006B
:100D100084F8425084F840500020D5E7FFE70220D5
:100D2000D2E700000024008000E800FE18BCBDE807
:100D3000E08F00002DE9F84F044690F84100DDF8FF
:100D400028A01F4690468B4620287ED194F840006C
:100D500001287AD0012084F84000FFF709FE0646FA
:100D6000012200901923D103204601F07DF8E0BB59
:100D7000212084F84100102084F842000025656499
:100D8000C4F8248067856563618D3148FF274FF083
:100D900080784FF00079FF2903D927853A460090E3
:100DA00039E0618D218500903AE05946204601F0F6
:100DB00043F813E001F0F8F8B8B9606A21680078E8
:100DC0008862606A401C6062608D401E6085208D74
:100DD000401E80B22085618D01B168B1608D3246C0
:100DE000002851462046E5D100E002E001F0B6F8C7
:100DF000D0B1012000F030B85346002280212046B7
:100E0000009601F031F80028F3D1608DFF2804D955
:100E100027853A4600954346C7E7608D20850095B3
:100E200094F828204B46C0E721682020C86121683B
:100E30004A68084B1A404A6084F8410084F84250DE
:100E400084F840500020D5E7FFE70220D2E70000F9
:100E50000020008000E800FE18BCBDE8E08F000024
:100E60002DE9F0479CB00446142115A8FFF781FB3B
:100E700054216846FFF77DFB36492068364C12271F
:100E8000032600254FF004094FF0904A884223D1F1
:100E9000402000900B95684600F032F908B1FFF74A
:100EA00044FCE06C40F00100E064E06C17AA00F044
:100EB00001001A904FF4C060CDE9150782E8600286
:100EC00015A95046FFF746FCA06D40F40010A06540
:100ED000A06D00F4001038E02049884236D180151A
:100EE00000900C95684600F00BF908B1FFF71DFC67
:100EF000E06C40F00100E064E06C00F001001A904A
:100F0000E06C40F00200E064E06CB84600F00200E3
:100F10001A908020CDE9150817AA4F4682E8E00014
:100F200015A95046FFF716FC1020CDE9150817AAA1
:100F300015A982E8E0000A48FFF70CFCA06D40F418
:100F40000000A065A06D00F400001A901CB0BDE880
:100F5000F08700000054004000100240005C004098
:100F6000000400480248816802781144816070479B
:100F70000800002010B50024032000F063F80020D2
:100F800000F008F808B1012401E000F025F820463F
:100F900010BD000070B50E4E05460024307898B1A3
:100FA0004FF47A71B1FBF0F00A490968B1FBF0F037
:100FB00000F0B4FD40B9102D06D200222946501E83
:100FC00000F020F8756000E00124204670BD0000AC
:100FD0000800002014000020094808B5016E41F007
:100FE00001010166016E01F001010091816D41F086
:100FF00080518165806D00F08050009008BD000038
:1010000000100240F0B40E4B1B680C46C3F30223E1
:10101000C3F10705042D00D90425191D072901D2A4
:10102000002300E0DB1E012606FA05F1491E2140DF
:1010300099409E40761E16403143F0BC01F0F4BC4E
:101040000CED00E0064900F0070208684FF6FF03C8
:10105000184040EA0220034A10430860704700002D
:101060000CED00E00000FA051649B0F5007F0868B5
:10107000C0F3412009D0022805D0086820F4C060E0
:1010800040F480600860002070470128FBD00868A9
:1010900020F4C06040F4007008600B483222006801
:1010A00050430A4AB0FBF2F0401C00E0401E4A697F
:1010B000520501D50028F9D148694005E3D5032040
:1010C00070470000007000401400002040420F00F4
:1010D0000248006800F4C0607047000000700040E3
:1010E0000248016841F4807101607047007000405F
:1010F0000248016841F0040101607047001002409D
:101100002DE9F84F0446002700889C4D3E46000517
:1011100015D5E06B60B1B0F5000F04D0B0F5400F0D
:101120002BD001270AE0E86840F48030E86024E032
:101130000021201D01F018F807001ED03E4620684F
:10114000800338D5A86D4FF00008C00009D4A86D01
:1011500040F08050A865A86D4FF0010800F0805065
:101160000090DFF81CA2DAF8001041F48071CAF890
:101170000010FFF7FDFB814610E0D5F88800E16B19
:1011800020F440000843C5F88800D8E7FFF7F0FBDB
:10119000A0EB0900022801D9032704E0DAF80000D7
:1011A000C005F3D5EFB33E46B8F1000F03D0A86DEC
:1011B00020F08050A8652078C00707D0D5F88800B7
:1011C000216A20F003000843C5F8880020788007D2
:1011D00007D5D5F88800616A20F00C000843C5F8EF
:1011E00088002078800607D5D5F88800A16A20F409
:1011F00040600843C5F888002088800507D5D5F8E9
:101200008800616B20F440200843C5F888002088DE
:10121000400509D5D5F88800A16B20F4401008439B
:1012200000E02EE0C5F888002078400607D5D5F804
:101230008800E16A20F440500843C5F888002088FF
:10124000C00507D5D5F88800216B20F4403008434D
:10125000C5F8880020884FF0006780044FF0806850
:101260004ED5D5F88800216C20F040600843C5F8C1
:101270008800206CB8423BD1E86840F48010E860F8
:101280003EE0D5F8900010F4407014D0216D8142FA
:1012900011D0D5F89000D5F8901020F4407041F4AA
:1012A0008031C5F89010D5F8901021F48031C5F840
:1012B0009010C5F89000C00711D0FFF759FB074602
:1012C00041F2883907E000BFFFF752FBC11B4945D7
:1012D00001D9032668E7D5F890008007F4D5D5F842
:1012E0009000216D20F440700843C5F890005BE742
:1012F000404505D10121201D00F036FF00B1064612
:101300002068400317D5D5F88800616C20F0406054
:101310000843C5F88800606CB84204D1E86840F41E
:101320008010E86007E0404505D10121201D00F054
:101330001BFF00B106462088400411D5D5F888006F
:10134000A16C20F040500843C5F88800A06CB0F1B3
:10135000805F05D10221201D00F006FF00B1064686
:101360002088000406D555F8880FE16C20F08040F5
:1013700008432860304600F005B800000010024025
:101380000070004018BCBDE8E08F00002DE9F04778
:101390000F4605006BD0494E306800F00700B84298
:1013A00009D2306820F0070038433060306800F020
:1013B0000700B8425BD12878414C80070AD5A8685D
:1013C000A16801F0F001884204D9A16821F0F00180
:1013D0000143A1602878C0072CD06868032811D089
:1013E000022812D0216898B1490500293FDAA16886
:1013F00021F003010143A160FFF7BAFA804641F2F0
:10140000883910E021688901EFE721688903ECE75A
:101410008907EAE7FFF7ACFAA0EB0801494502D9D2
:101420000320BDE8F087A068696800F00C00B0EB0D
:10143000810FEFD1287880070AD5A868A16801F04C
:10144000F001884204D2A16821F0F0010143A160BB
:10145000306800F00700B8420BD9306820F0070070
:1014600038433060306800F00700B84201D00120F6
:10147000D7E72878400705D5A068E96820F4E06040
:101480000843A0602878000706D5A068296920F4E1
:10149000605040EAC100A06000F03EF8A168094A2F
:1014A000C1F30311515C01F01F01C84006490860F7
:1014B00006480068BDE8F047FFF76CBD0020024019
:1014C000001002402C2B0008140000200C0000200B
:1014D0000548064900688968054AC1F30221515C44
:1014E00001F01F01C84070471400002000100240A6
:1014F0006C2B00080548064900688968054AC1F355
:10150000C221515C01F01F01C84070471400002047
:10151000001002406C2B000870B5254900231846C6
:101520008A68CC6812F00C0204F00306214C4FEAE2
:10153000640509D00C2A05D0042A32D0082A00D12B
:10154000284670BD012E10D10B681B0704D4D1F8BA
:101550009430C3F3032302E00B68C3F30313164E66
:1015600056F82330DAB10C2AEBD1C86800F003003A
:10157000022818D0032818D01846CA68CB68C2F3CE
:101580000212C3F306234343521CB3FBF2F2C868B2
:10159000C0F34160401C4000B2FBF0F070BD184643
:1015A00070BD204670BD2046E7E72846E5E700000D
:1015B000001002400024F4003C2B00082DE9F84301
:1015C00004006FD0FA4DA86800F00C06E86800F03F
:1015D00003072078C00664D576B10C2E01D1012F07
:1015E0000AD0A069002828687AD040F0010028605D
:1015F000FFF7BEF980465DE02868800702D5A06944
:101600000028DED0216A2868000703D5286800F08A
:10161000F00004E0D5F89400F02202EA10108142B4
:1016200016D9084600F036FE00283BD1286840F065
:10163000080028602868216A20F0F000084328602C
:101640006868E16920F47F4040EA0120686016E0A4
:10165000286840F0080028602868216A20F0F0001F
:10166000084328606868E16920F47F4040EA01206F
:10167000686026B9206A00F00DFE0028D5D1FFF77A
:101680004BFFA968CB4AC1F30311515C01F01F0164
:10169000C840C9490860C9480068FFF77BFC0028BA
:1016A0007ED12EE0CAE000BFFFF762F9A0EB080090
:1016B000022876D828688007F6D5286840F0080008
:1016C00028602868216A20F0F000084328606868D4
:1016D000E16920F47F4040EA0120686011E0FFE703
:1016E00020F001002860FFF743F9804606E000BFC4
:1016F000FFF73EF9A0EB08000228DAD82868800737
:10170000F6D42078C00740D0082E18D00C2E01D176
:10171000032F14D06068B0F5803F17D0B0F5A02F2C
:10172000286817D020F480302860286820F48020B2
:1017300028606068E0B1FFF71BF9804614E0286874
:10174000800322D56068002878D01EE0286840F425
:101750008030EDE740F480202860F7E7FFF708F9D4
:10176000A0EB08006428A4D828688003F6D50CE014
:10177000FFF7FEF8804605E0FFF7FAF8A0EB080057
:10178000642896D828688003F6D4207880073BD553
:10179000042E11D00C2E01D1022F0DD0E06801E0F3
:1017A000AAE1FFE0002828681ED040F4807028607D
:1017B000FFF7DEF807460CE0286840050CD5E06826
:1017C0000028C1D008E000BFFFF7D2F8C01B0228F4
:1017D00093D828684005F7D56868217C20F0F85038
:1017E00040EA016068600FE020F480702860FFF735
:1017F000BFF8074605E000BFFFF7BAF8C01B022894
:10180000B1D828684005F7D42078000729D5606949
:101810000028D5F8940012D040F00100C5F89400DB
:10182000FFF7A6F8074604E0FFF7A2F8C01B02285E
:1018300099D8D5F894008007F6D512E02BE120F076
:101840000100C5F89400FFF793F8074605E000BFD4
:10185000FFF78EF8C01B022885D8D5F894008007C2
:10186000F6D42078400766D5A86D0027C00008D4BC
:10187000A86D40F08050A865A86D012700F0805049
:1018800000904F480168C90512D40168814641F4AF
:1018900080710160FFF76CF8804605E0FFF768F89B
:1018A000A0EB080002287DD8D9F80000C005F5D5C6
:1018B000A068012816D00528D5F8900017D020F090
:1018C0000100C5F89000D5F8900020F0040000BF9A
:1018D000C5F89000A06841F28839C0B1FFF748F818
:1018E00080460FE0D5F8900040F00100F0E740F0AE
:1018F0000400C5F89000F5E7FFF73AF8A0EB0801FF
:1019000049454FD8D5F890008007F5D50EE0FFF790
:101910002FF8804606E000BFFFF72AF8A0EB080189
:1019200049453FD8D5F890008007F5D41FB1A86D80
:1019300020F08050A8652078800628D5606A0028AD
:10194000D5F8980012D040F00100C5F89800FFF7D4
:101950000FF8074605E000BFFFF70AF8C01B022892
:1019600020D8D5F898008007F6D510E020F00100C7
:10197000C5F89800FEF7FCFF074604E0FEF7F8FF05
:10198000C01B02280ED8D5F898008007F6D4A06AAC
:10199000F0B3022816D00C2E7DD0286820F080707D
:1019A000286000E0A7E0FEF7E3FF0446A6E00000A1
:1019B000001002402C2B0008140000200C00002016
:1019C00000700040E868E26A00F00301914228D10B
:1019D000216B00F0700209011039914221D1626B34
:1019E00000F4FE41B1EB022F1BD194F8382000F037
:1019F0007841B1EBC26F14D1A18F00F4C002490845
:101A00004905A1F5001191420BD194F8401000E076
:101A10006AE04908490600F0C060A1F10071814206
:101A20004BD00C2E73D02868400170D4286820F069
:101A300080702860FEF79CFF064604E0FEF798FFE2
:101A4000801B022857D828688001F7D4F4E90B01DD
:101A50006FF00F0202EB01110843218A520449087A
:101A600002EB4151A26841EA02210843217D4FF077
:101A70007E42490802EB41610843217B40EAC16094
:101A8000E968244A11400843E860286840F0807003
:101A90002860E86800E03AE040F08070E860FEF717
:101AA00067FF044605E000BFFEF762FF001B022847
:101AB00021D828688001F7D527E02868800124D440
:101AC000286840F080702860E86840F08070E86026
:101AD000FEF74EFF044604E0FEF74AFF001B022813
:101AE00009D828688001F7D50FE000BFFEF740FF56
:101AF000001B022802D90320BDE8F8832868800172
:101B0000F4D4E86804490840E8600020F4E70120C4
:101B1000F2E700008C809D01FCFFEEFE10B5401E38
:101B2000B0F1807F01D3012010BD4FF0E02460614F
:101B30000F21601700F078FF0020A06107202061CE
:101B4000002010BD10B5040002D0A06F10B107E056
:101B5000012010BD002084F87400204600F026F813
:101B60002420A0672068016821F00101016020465F
:101B700000F008FE0128ECD0606A10B1204600F0A9
:101B80003BFD2068416821F49041416020688168F4
:101B900021F02A0181602068016841F001010160A3
:101BA0002046BDE8104000F08BBD0000F0B59BB0B2
:101BB0000446142115A8FEF7DCFC54216846FEF704
:101BC000D8FC1C492068884232D10224002668468D
:101BD00009960094FFF794FA08B1FEF7A6FD16489F
:101BE000816D41F400318165816D01F400311A91FC
:101BF000C16C41F00101C164C06C15A900F0010085
:101C00001A90042081E8510003250720CDE91850DF
:101C10004FF090473846FEF79DFDCDE917654FF42C
:101C200000401995CDE9150415A93846FEF792FD37
:101C30001BB0F0BD00440040001002402DE9F84305
:101C40000446806F1F4616460D4620284FD1CDB161
:101C5000C6B194F87400012849D0012084F87400BA
:101C60004FF00008C4F880802120A067FEF780FEB6
:101C7000A4F850608146A4F85260A068B0F5805F77
:101C800003D004E00120BDE8F883206928B12E4686
:101C90005FF0000584F8748010E00026FAE78021E8
:101CA000204600F05DFEB8B9C6B116F8010B2168F8
:101CB0000885B4F85200401EA4F85200B4F852004F
:101CC0004B464FF0000200970028E8D14FF040014A
:101CD000204600F045FE30B10320D4E735F8020B72
:101CE000C0F30800E3E72020A0670020CBE7022034
:101CF000C9E7FEE701688A69D243920701D400224E
:101D00008A6200688169C943C90703D0816941F0CB
:101D100001018161704700002DE9F0470446006829
:101D20008A461746816900252E46C906A9464FF006
:101D3000200849D51021C16137E000BFBAF1FF3F4B
:101D400033D0FEF715FEC11B514502D8BAF1000F82
:101D50002BD12068416894F8422001F480418369C6
:101D6000DB431B041CD4B1F5804F19D0202A17D0B7
:101D7000416841F480414160FEF7FAFD07460FE0FB
:101D8000FEF7F6FDC01B19280AD9606C40F0200050
:101D9000606484F8418084F8429084F84090012582
:101DA00020688069C0438006EAD420688069C04307
:101DB000800602D5002DC1D003E015B92168C1F815
:101DC0001C8046F00406012521688869C20505D5F6
:101DD0004FF4807246F00106CA610125410509D51C
:101DE00022684FF4806146F00806D1610125800524
:101DF00002D40AE0800507D521684FF4007046F050
:101E00000206C861012500E08DB12046FFF772FF90
:101E100054F8240B4168074A11404160206A30435E
:101E2000206284F81D8084F81E9084F81C90284657
:101E3000BDE8F08700E800FE10B5C1F3090141EAF2
:101E400002410268029C19432143506821F000417D
:101E50004FF4806303EA5453024C234398430843EE
:101E6000506010BDFF63FF032DE9F0411D4617468A
:101E70000E460446DDF8188008E0681C06D0FEF720
:101E800077FDA0EB0800A8420BD855B12068806907
:101E900036EA000012D00020B842EED00020BDE8A3
:101EA000F08154F8440F40F0200044F80409202049
:101EB00060700020A07020700120F0E70120EBE7A7
:101EC0002DE9F041202690460F460446002530E0DB
:101ED000424639462046FFF71FFF10BB2068806945
:101EE000C04380061ED420688169C943490701D4D4
:101EF000218D19BB8169C943C90604D41021C16170
:101F00000420606400E065642068C6612068416860
:101F1000114A1140416084F8416084F8425084F8CD
:101F2000405016E0FEF724FDA0EB0800B84208D8A8
:101F30003FB120688069C0434007C9D40020BDE894
:101F4000F08154F8440F40F0200044F80409667012
:101F500025700120F3E7000000E800FE70B516468A
:101F60000D4604460DE0324629462046FFF7D4FED2
:101F700008B1012070BDFEF7FBFC801BA84207D80A
:101F800035B120688069C0438006ECD4002070BD64
:101F900054F8440F40F0200044F8040920206070F9
:101FA0000020A0702070E4E770B516460D46044688
:101FB0000FE0324629462046FFF7AEFE08B1012069
:101FC00070BD681C05D0FEF7D3FC801BA84207D863
:101FD00035B120688069C0438007EAD4002070BD15
:101FE00054F8440F40F0200044F8040920206070A9
:101FF0000020A0702070E2E770B586B0142168461A
:10200000FEF7B7FA1C48C16C41F00401C164C16C11
:1020100001F004010591C16C41F00101C164C16C82
:1020200001F001010591C16C41F00201C164C06C75
:10203000124E00F002000590002208213046FEF703
:1020400092FC002210213046FEF78DFC0820009003
:1020500001250024CDE90154694630460394FEF77A
:1020600079FB10200090CDE9015469463046039475
:10207000FEF770FB06B070BD00100240000400487F
:10208000124810B510490160114941600021012238
:10209000C0E90212016141618161C1610162FEF723
:1020A000C1FC08B172B6FEE700210848FEF766FCE5
:1020B00008B172B6FEE700210448FEF78AFC00284A
:1020C00001D072B6FEE710BD005400401800002099
:1020D000380F3000124810B51049016011494160B5
:1020E00000210122C0E90212016141618161C161E7
:1020F0000162FEF797FC08B172B6FEE700210848BE
:10210000FEF73CFC08B172B6FEE700210448FEF77A
:1021100060FC002801D072B6FEE710BD005C0040F4
:102120006C000020BB7C70000C4810B50A490160AF
:102130004FF4E1314160002181600C22C160C0E9AF
:1021400004128161C16101624162FFF7FBFC00285A
:1021500001D072B6FEE710BD00440040C000002070
:10216000FEE7FEE7704700002DE9F041444C0546CC
:102170008846E0680026810728680DD0E16801F0F4
:102180000301814216D1A8B1E0686968C0F302106A
:10219000401C88420ED120E0012804D0022805D03E
:1021A000032807D108E02168890701E02168490573
:1021B000002907DB01265FE02168890302D421683A
:1021C0004903F5E7E1686A686FF00F0321F07301D6
:1021D00003EB021211430143E160206820F08060AC
:1021E0002060FEF7C5FB074605E000BFFEF7C0FB19
:1021F000C01B022837D820680001F7D4B8F1000FBF
:1022000018D0B8F1010F1DD0287D4FF07E41400855
:1022100001EB4060A96840EA01202169194A114098
:1022200008432061206840F080602060FEF7A0FB3A
:1022300007461AE0A868297B000240EAC1602169CC
:10224000114AECE7288A1149400801EB4050A9687F
:1022500040EA012021690E4AE1E700BFFEF788FB52
:10226000C01B022801D9032606E020680001F5D52D
:102270002069A969084320613046BDE8F08100006B
:1022800000100240FF80FFF9FF80FF070000E0FF21
:10229000FF809FFFF8B51C4D06460024A86DC000C6
:1022A00002D5FEF715FF0DE0A86D40F08050A8653F
:1022B000A86D00F080500090FEF70AFFA96D21F094
:1022C0008051A965B0F5007F04D0802E07D94FF06A
:1022D00003040AE0802E08D9A02E01D804E001D121
:1022E000022402E0702E00D101240848016821F088
:1022F000070121430160006800F00700A04201D0FF
:102300000120F8BD0020F8BD00100240002002406E
:102310001CB50B490F200A2408700A460123D0215E
:1023200008480094FEF706FD012301AAD1210548C3
:102330000094FEF769FC9DF8040000F001001CBD4C
:1023400006000020180000207CB5114C0F260A253D
:10235000267001232246D0210E480095FEF7EAFCA4
:10236000012301AAD1210B480095FEF74DFC9DF8F1
:102370000400022320F001008DF804002670607034
:102380002246D02103480095FEF7D4FC7CBD000016
:10239000060000201800002038B50D4C0E204FF02C
:1023A000FF3520701D20607002232246D02109488D
:1023B0000095FEF7BFFC0F20207000206070022304
:1023C0002246D02103480095FEF7B4FC38BD00003A
:1023D000060000201800002010B54FF0FF330A223D
:1023E000D0210548FEF77AFB002803D1BDE8104054
:1023F00000F040B810BD00001800002038B50A24D5
:1024000001231A4AD0211A480094FEF793FC174A78
:102410000123521CD12116480094FEF7F5FB134A04
:102420000123921CD02112480094FEF783FC0F4A2E
:102430000123D21CD1210E480094FEF7E5FB0B4A84
:102440000123121DD0210A480094FEF773FC00946A
:10245000064C0123241D621CD1210548FEF7D4FB44
:10246000607800F01F00607038BD000000000020A0
:102470001800002070B5064D002408212846FEF7FC
:102480006AFAFA20FEF754F9641C0A2CF5DB70BDD9
:1024900000040048F8B5174C07460720207062700A
:1024A0000E464FF0FF3502232246D02112480095F8
:1024B000FEF740FC08202070667002232246D021DF
:1024C0000D480095FEF736FC092020706770022346
:1024D0002246D02108480095FEF72CFC0A202070E7
:1024E0008020607002232246D02103480095FEF729
:1024F00021FCF8BD0600002018000020F8B50646B3
:1025000012480D460021017042700A24024602233F
:10251000D0210F480094FEF70DFC0C480121801CCF
:102520000246017045700223D02109480094FEF74D
:1025300001FC06480221001D0B4601704670024650
:10254000D02103480094FEF7F5FBF8BD0000002001
:10255000180000207047FEF705BD000010B596B0CA
:1025600044216846FEF705F8142111A8FEF701F88A
:102570004FF40070FEF778FD08B172B6FEE7FEF783
:10258000AFFD184850F8901F21F018010160142089
:10259000009001200290002460210690CDE90741BF
:1025A0000221CDE90A100C9010200D900720CDE9F2
:1025B0000E0168461091FFF701F808B172B6FEE708
:1025C0000F2011900320CDE912041494012111A8C9
:1025D0001594FEF7DBFE08B172B6FEE7FEF788FD44
:1025E00016B010BD001002400248016841F47001AD
:1025F0000160704788ED00E090F82410C90706D00C
:1026000001684A68836A22F400321A434A6090F8EB
:102610002410890706D501684A68C36A22F480320B
:102620001A434A6090F82410490706D501684A68A1
:10263000036B22F480221A434A6090F824100907A1
:1026400006D501684A68436B22F400421A434A6087
:1026500090F82410C90606D501688A68836B22F4B5
:1026600080521A438A6090F82410890606D50168C2
:102670008A68C36B22F400521A438A6090F82410CF
:10268000490611D501684A68036C22F480121A4386
:102690004A60016CB1F5801F06D101684A68436C3D
:1026A00022F4C0021A434A6090F82410090606D5A5
:1026B00001684A68806C22F4002202434A60704735
:1026C000F8B500260446C0F88060FEF751F90546CB
:1026D000206800686FF07E47000708D52B4600226F
:1026E0004FF400112046009700F03AF960B92068D5
:1026F000006840070AD52B4600224FF4800120468F
:10270000009700F02DF908B10320F8BD2020A06744
:10271000E067266684F874600020F8BD002200E0BF
:10272000521C815C0029FBD1014692B20A23014868
:10273000FFF784BAC000002008B50B480BA1407811
:1027400000900948801C4378801C42780C48FDF7B3
:1027500009FE0B4901B00A236422A1F184005DF84F
:1027600004EBFFF76BBA0000000000202530327840
:102770003A253032783A253032780D0A00000000D0
:10278000440100202DE9F041044601688068226977
:10279000E66910436269002532431043694B0A68B9
:1027A000694E324002430A6020684168E26821F4C1
:1027B0004051114341602168A069994201D0226AC9
:1027C00010438A6822F4306202438A605F492768B6
:1027D0005F488F420DD1D0F8880010F0030006D07A
:1027E000012838D0022834D0032821D135E0012136
:1027F0001FE058498F420BD1D0F8880010F00C0030
:1028000025D0042827D0082823D00C2810D124E074
:102810009F420DD1D0F8880010F4406017D0B0F579
:10282000806F18D0B0F5006F13D0B0F5406F14D0A2
:102830001021494A00264FF400409F422FD171B128
:1028400002290FD004290FD0082973D10FE00021ED
:10285000EFE70221EDE70421EBE70821E9E7FEF7C6
:1028600037FE03E0104602E0FEF756FEF0B3626862
:1028700002EB420181425DD8B0EB023F5AD8010E13
:1028800003025008181871410023FDF7F3FC334A86
:10289000A0F5407191424DD82168C8604BE0E369D2
:1028A0004FF6EF77834228D1092943D2DFE801F0C0
:1028B00005080B420D4242421000FEF709FE06E0F9
:1028C000FEF718FE03E0104602E0FEF725FE68B1B1
:1028D0004100606801EB5001B1FBF0F0A0F1100184
:1028E000B94227D84FF6F071014000E023E0C0F371
:1028F000420001432068C1601DE009291AD2DFE8C7
:1029000001F005080B190D1919191000FEF7E0FD6B
:1029100006E0FEF7EFFD03E0104602E0FEF7FCFDE7
:1029200048B1616800EB5100B0FBF1F0A0F110017B
:10293000B94205D9012566662846A666BDE8F0813C
:1029400080B2A9E700800040F369FFEF0038014042
:1029500000100240004400400024F400FFFC0F007F
:102960002DE9F0479A4617460E4604464FF00009F7
:102970004FF02008089D4AE0681C48D0FDF7F8FF9A
:10298000A0EB0A00A8422AD84DB320680168490785
:102990003DD5C069C043000539D421684FF40060BB
:1029A0000862206850E8001F21F4D07140E800124E
:1029B000002AF6D12068083050E8001F21F00101FC
:1029C00040E80012002AF5D1C4F87880C4F87C8071
:1029D000C4F8808084F874900320BDE8F0872168F3
:1029E00051E8000F20F4D07041E80002002AF6D12F
:1029F0002068083050E8001F21F0010140E8001273
:102A0000002AF5D1C4F87880C4F87C80E2E7206819
:102A1000C06936EA000004D00020B842ACD00020E3
:102A2000DBE70120F9E7FEE70907090E002804DBD0
:102A300000F1E02080F80014704700F00F0000F172
:102A4000E02080F8141D704730380A2801D2012098
:102A50007047002070470000FEF78CFAFFF77EFDFC
:102A6000FFF7CAFAFFF760FBFFF70AFBFFF732FB3D
:102A7000FFF7B2FC552259217220FFF73FFD0022DB
:102A800011466120FFF706FDFFF786FC12A0FFF755
:102A900045FE1D4C41F288354FF47A76FFF7AEFCC7
:102AA000FFF74AFEFFF734FC88B118A0FFF736FEA7
:102AB000012210212046FDF756FF2846FDF738FE7B
:102AC000002210212046FDF74EFFFFF73DFC304667
:102AD000FDF72EFEE2E70000525443207365742098
:102AE000746F2031323A35393A353520504D2C202B
:102AF000416C61726D20617420313A30303A30306F
:102B000020504D0D0A00000000040048414C415285
:102B10004D20545249474745524544210D0A000073
:102B20004FF04070E1EE100A704700000000000016
:102B3000000000000102030406070809A086010046
:102B4000400D0300801A060000350C0040420F00C3
:102B500080841E0000093D0000127A000024F40069
:102B600000366E010048E801006CDC020000000045
:102B700001020304303132333435363738394142BB
:102B800043444546403058003031323334353637CF
:102B9000383961626364656640307800040000087B
:102BA0000000000000000002000100001000000012
:102BB000D02B00080000002018000000C801000809
:102BC000E82B000818000020F0070000E4010008CE
:102BD00000000000000000000100000010000000E4
:082BE0000000000000093D00A7
:040000050800018D61
:00000001FF
