:020000040800F2
:10000000180800204D020008FB2800088924000879
:10001000F9280008E7090008F5350008000000008D
:10002000000000000000000000000000B52E0008E5
:10003000E909000800000000FD280008B72E0008AC
:1000400067020008670200086702000867020008EC
:1000500067020008670200086702000867020008DC
:1000600067020008670200086702000867020008CC
:1000700067020008670200086702000867020008BC
:1000800067020008670200086702000867020008AC
:10009000670200086702000867020008670200089C
:1000A000670200086702000867020008670200088C
:1000B000670200080000000000000000670200085E
:1000C000670200080000000000000000670200084E
:1000D0000000000067020008E93500080000000089
:1000E000670200086702000800000000000000002E
:1000F0000000000000000000000000000000000000
:10010000000000000000000000000000670200087E
:1001100000000000000000006702000867020008FD
:10012000670200086702000867020008670200080B
:10013000670200080000000000000000000000004E
:1001400067020008670200086702000867020008EB
:1001500067020008670200086702000867020008DB
:10016000670200086702000867020008000000003C
:10017000670200086702000800000000000000009D
:1001800067020008670200086702000800F002F832
:1001900000F04DF80AA090E8000C82448344AAF1D4
:1001A0000107DA4501D100F042F8AFF2090EBAE8D2
:1001B0000F0013F0010F18BFFB1A43F0010318479B
:1001C0002C3700004C370000103A24BF78C878C1A3
:1001D000FAD8520724BF30C830C144BF04680C604D
:1001E000704700000023002400250026103A28BF95
:1001F00078C1FBD8520728BF30C148BF0B60704799
:10020000642900F0F780782900F0308100207047E1
:100210001FB503F023FB00F083FB04000020002146
:1002200003F006FB401C60601FBD10B510BD00F060
:1002300051FB1146FFF7ECFF03F000FA00F082FBE0
:1002400003B4FFF7F2FF03BC00F0C6FB0948804788
:1002500009480047FEE7FEE7FEE7FEE7FEE7FEE7A8
:10026000FEE7FEE7FEE7FEE704480549054A064BC0
:10027000704700004D2F00088D0100081802002073
:1002800018080020180400201804002053EA020C6B
:1002900000F069802DE9F04B4FF00006002B1FBFE6
:1002A000B3FA83F503FA05F424FA05F65E4012BFAB
:1002B0001643B2FA82F502FA05F4C5F120051EBF15
:1002C00022FA05FC44EA0C04203556EA044C4FEAB5
:1002D000144418BF641C4FF000084FF0000990420E
:1002E00071EB030C39D3002919BFB1FA81F701FA78
:1002F00007F6B0FA80F700FA07F6C7F120071EBF2D
:1003000020FA07FC46EA0C062037B6FBF4FCA7EB04
:100310000507103F07F01F0BCBF120060CFA0BFB73
:100320002CFA06F644BFB3460026202FA4BF5E4633
:100330004FF0000B5BEA060C08BF4FF0010B19EB06
:100340000B09ABFB027C48EB0608C01B06FB02CC8A
:100350000BFB03CC71EB0C01C1E70B460246414697
:100360004846BDE8F08B13B54FF000004FF0000198
:10037000AFF30080BDE81C40704700000FB41CB50F
:10038000074B06AA7B4469460090059800F0F3F9F4
:100390000020694600F002FA1CBC5DF814FB000066
:1003A0001504000070B5044685690068C10601D5D2
:1003B000302600E02026C00707D070BDD4E9012117
:1003C00030469047206A401C20626D1EF6D570BDF5
:1003D00070B5044685690078C00707D170BDD4E9BF
:1003E000012120209047206A401C20626D1EF6D516
:1003F00070BD00002DE9F041064600241068752903
:10040000314616A510D0AFF30080002802DA404232
:1004100013A507E031688A0701D512A502E0490754
:1004200004D511A5012401E0AFF3008000210A22C8
:1004300006F1240709E0B0FBF2FCB0FBF2F302FB8B
:100440001C00303078541846491C0028F3D123464C
:100450002A463046BDE8F04100F02EB90000000009
:100460002D0000002B0000002000000070B50446A5
:100470000D4621461068AFF300802188090502D59A
:100480000F4A7A4402E00E4A7A440E32002104F107
:10049000240305E000F00F060009965D5E54491C38
:1004A0000028F7D120780023000704D5702D02D052
:1004B00009B1022311322046BDE8704000F0FCB8BB
:1004C0002A3400002DE9F05F894604464FF0000A07
:1004D000DFF824B1FB44C0F820A02046E16888473B
:1004E00000287DD0252806D0D4E901219047206A34
:1004F000401C2062F1E700255F462046E1688847FE
:100500002028064607DB312E05D2B81910F8200C3A
:1005100008B10543F1E7A80701D525F00405C4F8A3
:100520001CA00027C4F818A02A2E09D0304603F0DA
:1005300072F838B304EB8708303EC8F8186019E049
:1005400059F8041B204604EB87029161E168884753
:10055000012F064618D1E069002820DA25F0200591
:100560001DE0D8F8180000EB800006EB40003038A2
:10057000C8F818002046E1688847064603F04BF8A3
:100580000028EED1012F0AD02E2E08D12046E16896
:1005900088477F1C0646022F45F02005C4DBA06972
:1005A000002803DA404245F00105A061E80701D0C8
:1005B00025F01005A6B1A6F14100192802D8203671
:1005C00045F400654A463146204625604D46FFF712
:1005D00017FE60B1012807D0ED1D25F0070000E0EF
:1005E00007E000F1080978E705F1040975E73046EE
:1005F0007AE7206A00F002B80034000030BCBDE8A1
:10060000C09F70B5064600F053F8046805463046B2
:100610000A22002100F0C7F82C6070BD10B5431C01
:1006200002E010F8011B71B18107FAD14FF00132DD
:1006300002C88C1A8C4314EAC211F9D0C01A0A06F7
:1006400003D0C01E10BDC01A10BD0A0401D0801E08
:1006500010BD0902FCD0401E10BD4FF0000200B5D5
:10066000134694469646203922BFA0E80C50A0E8D5
:100670000C50B1F12001BFF4F7AF090728BFA0E883
:100680000C5048BF0CC05DF804EB890028BF40F84F
:10069000042B08BF704748BF20F8022B11F0804F91
:1006A00018BF00F8012B7047704770477047000073
:1006B00000487047B40100202DE9F0470D469946E7
:1006C0009246044600F124080168880604D5E069D2
:1006D00021F01001216000E00120A84201DD471B4C
:1006E00000E00027A1697A1902EB0900081AA0614D
:1006F0002078C00602D42046FFF754FE002608E00A
:10070000D4E901211AF806009047206A401C761CA3
:1007100020624E45F4DB2078C0060AD52046FFF75C
:1007200041FE06E0D4E9012130209047206A401CB8
:100730002062381EA7F10107F4DC07E0D4E90121AB
:1007400018F805009047206A401C2062281EA5F179
:100750000105F3DC2046FFF73BFE2078000602D5BA
:100760000220BDE8F0870120FBE7000001694A1C78
:1007700002610878704700B58FB0CDE901310021E2
:10078000059105497944CDE9031011466846FFF704
:1007900099FE0FB000BD0000E5FFFFFF0A6802F8F8
:1007A000010B0A6070472DE9F04791460F468046DD
:1007B0000446002614F8015B2DB100F031F8006802
:1007C000405DC007F6D12B2D02D02D2D18D0641E10
:1007D0004A463946204600F02BF827B13968A14235
:1007E00001D1C7F800804FF0020471050BD54042DB
:1007F000002803DDFFF75CFF0460A007BDE8F08779
:1008000046F48066E4E70028F8DAFFF751FF046059
:100810006FF00040F2E7000000487047B40100208C
:1008200010B500F07DF8001D10BD00BF05300000C0
:100830002DE9F05F824615468B4600270AF1010438
:10084000B9460078302801D09DB113E014F8010BAF
:100850000127782803D0582801D045B10AE00DB10E
:10086000102D07D1002714F8010B102502E00825F0
:1008700000E00A250026B0460EE005FB080005FB57
:1008800006F101271FFA80F801EB1046B6F5803F0C
:1008900000D3B94614F8010B294600F045F80028AA
:1008A000EBDABBF1000F05D00FB1641E00E0544637
:1008B000CBF80040B9F1000F06D0FFF7F9FE022196
:1008C0000160C81E00F003B848EA0640FAE730BCF1
:1008D000BDE8C09F7546FFF79FFFAE46050069461D
:1008E000534620F00700854618B020B5FFF7BCFC42
:1008F000BDE820404FF000064FF000074FF0000821
:100900004FF0000B21F00701AC46ACE8C009ACE8A1
:10091000C009ACE8C009ACE8C0098D4670470000CA
:1009200000487047D40100203A2800D2303820F027
:100930002002412A01D3A2F13700884201D34FF0AF
:10094000FF30704710B50446AFF300802046BDE885
:100950001040FFF775BC00004FF0013C50F8042B2D
:1009600051F8043B9A4221D1A2EB0C03934313EAC2
:10097000CC1317D150F8042B51F8043B9A4215D1EF
:10098000A2EB0C03934313EACC130BD150F8042BC6
:1009900051F8043B9A4209D1A2EB0C03934313EAAA
:1009A000CC13DBD04FF00000704700BFD01A01BA63
:1009B000B1FA81F101F0180122FA01F0CB40C1F146
:1009C0002001DBB2C0B2C01A2CFA01F3D11A914354
:1009D00011EAC311E6D1704701491820ABBEFEE70A
:1009E000260002007047FEE7704772B6FEE710B5BA
:1009F00090F825100022022905D00421C16380F857
:100A00002420012010BD01680B6823F00E030B6049
:100A100001680B6823F001030B6090F84410046C2C
:100A200001F01C03012101FA03F3636080F8251033
:100A300080F82420104610BD10B590F82510002431
:100A4000022903D00421C16301241AE001680A6865
:100A500022F00E020A6001680A6822F001020A60B0
:100A600090F84410036C01F01C02012101FA02F21B
:100A70005A6080F82510002180F82410816B01B1A4
:100A80008847204610BD000070B5044600F01CF9F0
:100A90000546601C02D004480078044400F014F9B4
:100AA000401BA042FAD370BD140000202DE9F04F86
:100AB000DFF8E091002301270326A9F1040B85B09C
:100AC0000F2509F1040AABF1040EDBE007FA03FC81
:100AD00012EA0C027ED00C7904F00304012C01D040
:100AE000022C20D1846800945C0006FA04F8049477
:100AF000009C24EA08040094D1F80C80049C08FAB5
:100B000004F8009C48EA0408C0F80880446824EA15
:100B10000C0491F804C0CCF3001C0CFA03FC4CEA62
:100B2000040CC0F804C00C79E443A4070DD0D0F83D
:100B30000CC04FEA430806FA08F42CEA040C8C684F
:100B400004FA08F444EA0C04C4600C7904F00304C9
:100B5000022C19D1DC0800EB84040294246A4FEAC9
:100B6000437C4FEADC6CCDF810C005FA0CFC24EA9B
:100B70000C04D1F81080DDF810C008FA0CF848EA2F
:100B80000408029CC4F8208004684FEA430806FA6F
:100B900008FC24EA0C0491F804C00CF0030C0CFAD5
:100BA00008FC4CEA040CC0F800C04C6814F4403F48
:100BB00067D0394CD4F860C04CF0010CC4F860C068
:100BC000246E23F0030C04F001040094334C6444BD
:100BD000029400E055E0A4684FEA837C4FEA1C7859
:100BE00005FA08FC24EA0C04B0F1904F06D0DFF8B7
:100BF000B0C0604505D14FF0010C0BE04FF0000C88
:100C000008E0DFF8A0C0604502D14FF0020C01E01F
:100C10004FF0070C0CFA08FC4CEA040C029CC4F8D8
:100C200008C0D9F80040CC46D1F8048094435FEA6C
:100C3000C82800D51443CCF80040DAF80040D44668
:100C4000D1F8048094435FEA882800D51443CCF897
:100C50000040DBF80040DC46D1F8048094435FEAB2
:100C6000883800D51443CCF80040DEF80040F44644
:100C7000D1F8048094435FEAC83800D51443CCF817
:100C800000405B1C0C682246DC407FF41FAF05B0BF
:100C900000F00AB8080401400010024000000140C2
:100CA000000400480008004830BCBDE8C08F42691D
:100CB00021EA02030A4043EA0241816170470AB116
:100CC0008161704781627047014880687047000009
:100CD0001400002090F84120202A24D190F84020D0
:100CE000012A20D0012280F84020242280F84120CF
:100CF0000268136823F0010313600268136823F489
:100D000080531360026813680B43136001680A681C
:100D100042F001020A60202180F84110002180F891
:100D20004010084670470220704790F84120202A62
:100D300022D190F84020012A1ED0012280F84020C4
:100D4000242280F841200268136823F00103136015
:100D50000268136823F4706343EA0121116001689B
:100D60000A6842F001020A60202180F84110002147
:100D700080F84010084670470220704770B50400A4
:100D800004D094F84100002510B106E0012070BDA8
:100D900084F84050204600F00FFA242084F84100E7
:100DA0002068016821F0010101606068216820F07D
:100DB000706008612068816821F400418160E0680A
:100DC0000128A06807D040F4044021688860E068EA
:100DD000022803D006E040F40040F6E721684FF413
:100DE0000060486020684168114A114341602068F2
:100DF000C16821F40041C160D4E904010843A1693C
:100E000040EA01202168C860D4E90701084321684D
:100E100008602068016841F00101016065642020DC
:100E200084F84100256384F84250002070BD000022
:100E3000008000022DE9FC4700260446019690F848
:100E400041001F469246894620287ED1206880694D
:100E5000C043000479D594F84000012875D00120E2
:100E600084F84000242084F8410066644FF0200894
:100E7000E068012809D029F4544040F4205021684A
:100E80004860FFF721FF05460DE0314949EA0100BE
:100E900030490840F3E7781C05D0FFF715FF401BE9
:100EA000B84219D8C7B1216888698969C0F3401070
:100EB000C1F300110843EED0206880693B46C0436F
:100EC000C0064FF000024FF020012046009517D5D4
:100ED00001F094FB68BB09E084F8418054F8440FAA
:100EE00040F0200044F80409267022E02168C1F88F
:100EF0001C8084F8418084F84060002000F02CB809
:100F000001F07CFBA8B921681020C8612168C1F8F4
:100F10001C800198504512D12068416841F48041FD
:100F200041603B46002220212046009501F066FBEF
:100F300010B10120E2E708E02168C1F81C800198A7
:100F4000401C0190504593D3C6E70220D6E700002D
:100F500000200002FF2300020CBCBDE8F087000067
:100F60002DE9F84F044690F84100DDF828A01F460F
:100F700090468B4620287ED194F8400001287AD0F4
:100F8000012084F84000FFF79FFE064601220090F2
:100F90001923D103204601F031FBE0BB222084F865
:100FA0004100102084F8420000256564C4F82480C4
:100FB00067856563618D3148FF274FF080784FF07A
:100FC0000079FF2903D927853A46009039E0618DE1
:100FD000218500903AE05946204601F0F7FA13E0E7
:100FE00001F038FBB8B92068406A616A0870606A2D
:100FF000401C6062208D401E80B22085618D491E9C
:101000006185618D01B168B1608D3246002851461D
:101010002046E5D100E002E001F06AFBD0B10120FA
:1010200000F030B85346002280212046009601F09F
:10103000E5FA0028F3D1608DFF2804D927853A46C8
:1010400000954346C7E7608D2085009594F82820D9
:101050004B46C0E721682020C86121684A68084BD8
:101060001A404A6084F8410084F8425084F84050A5
:101070000020D5E7FFE70220D2E70000002400802F
:1010800000E800FE18BCBDE8E08F00002DE9F84F35
:10109000044690F84100DDF828A01F4690468B4694
:1010A00020287ED194F8400001287AD0012084F8CD
:1010B0004000FFF709FE0646012200901923D103E4
:1010C000204601F09BFAE0BB212084F8410010206B
:1010D00084F8420000256564C4F824806785656350
:1010E000618D3148FF274FF080784FF00079FF295C
:1010F00003D927853A46009039E0618D218500901B
:101100003AE05946204601F061FA13E001F016FB7F
:10111000B8B9606A216800788862606A401C6062C1
:10112000608D401E6085208D401E80B22085618DBF
:1011300001B168B1608D3246002851462046E5D1A4
:1011400000E002E001F0D4FAD0B1012000F030B8A4
:101150005346002280212046009601F04FFA0028D5
:10116000F3D1608DFF2804D927853A460095434680
:10117000C7E7608D2085009594F828204B46C0E78E
:1011800021682020C86121684A68084B1A404A60DB
:1011900084F8410084F8425084F840500020D5E79C
:1011A000FFE70220D2E700000020008000E800FEF8
:1011B00018BCBDE8E08F00002DE9F0479CB0044664
:1011C000142115A8FFF749FA54216846FFF745FA9C
:1011D00036492068364C1227032600254FF00409B3
:1011E0004FF0904A884223D1402000900B956846EA
:1011F00000F040F908B1FFF7F8FBE06C40F00100A7
:10120000E064E06C17AA00F001001A904FF4C0608F
:10121000CDE9150782E8600215A95046FFF746FCA4
:10122000A06D40F40010A065A06D00F4001038E03F
:101230002049884236D1801500900C95684600F010
:1012400019F908B1FFF7D1FBE06C40F00100E06450
:10125000E06C00F001001A90E06C40F00200E064E5
:10126000E06CB84600F002001A908020CDE9150825
:1012700017AA4F4682E8E00015A95046FFF716FC72
:101280001020CDE9150817AA15A982E8E0000A4840
:10129000FFF70CFCA06D40F40000A065A06D00F409
:1012A00000001A901CB0BDE8F08700000054004018
:1012B00000100240005C00400004004802488168C1
:1012C00002781144816070471400002010B500249A
:1012D000032000F071F8002000F008F808B10124A4
:1012E00001E000F025F8204610BD000070B50E4E5C
:1012F00005460024307898B14FF47A71B1FBF0F0D4
:101300000A490968B1FBF0F000F0C2FD40B9102DA8
:1013100006D200222946501E00F02EF8756000E02B
:101320000124204670BD0000140000202000002091
:10133000094808B5016E41F001010166016E01F036
:1013400001010091816D41F080518165806D00F057
:101350008050009008BD000000100240002809DB0A
:1013600000F01F02012191404009800000F1E020BF
:10137000C0F8001170470000F0B40E4B1B680C461B
:10138000C3F30223C3F10705042D00D90425191D59
:10139000072901D2002300E0DB1E012606FA05F131
:1013A000491E214099409E40761E16403143F0BCB4
:1013B00002F021B90CED00E0064900F007020868D0
:1013C0004FF6FF03184040EA0220034A104308602A
:1013D000704700000CED00E00000FA051649B0F57A
:1013E000007F0868C0F3412009D0022805D00868B2
:1013F00020F4C06040F4806008600020704701283D
:10140000FBD0086820F4C06040F4007008600B480E
:101410003222006850430A4AB0FBF2F0401C00E060
:10142000401E4A69520501D50028F9D14869400596
:10143000E3D503207047000000700040200000202A
:1014400040420F000248006800F4C060704700008E
:10145000007000400248016841F4807101607047EB
:10146000007000400248016841F0040101607047CB
:10147000001002402DE9F84F0446002700889C4DDB
:101480003E46000515D5E06B60B1B0F5000F04D005
:10149000B0F5400F2BD001270AE0E86840F4803017
:1014A000E86024E00021201D01F0FAFA07001ED0B8
:1014B0003E462068800338D5A86D4FF00008C00074
:1014C00009D4A86D40F08050A865A86D4FF00108C0
:1014D00000F080500090DFF81CA2DAF8001041F410
:1014E0008071CAF80010FFF7EFFB814610E0D5F8D5
:1014F0008800E16B20F440000843C5F88800D8E775
:10150000FFF7E2FBA0EB0900022801D9032704E062
:10151000DAF80000C005F3D5EFB33E46B8F1000F8E
:1015200003D0A86D20F08050A8652078C00707D0B0
:10153000D5F88800216A20F003000843C5F8880028
:101540002078800707D5D5F88800616A20F00C0064
:101550000843C5F888002078800607D5D5F88800AC
:10156000A16A20F440600843C5F8880020888005FF
:1015700007D5D5F88800616B20F440200843C5F8F2
:1015800088002088400509D5D5F88800A16B20F493
:101590004010084300E02EE0C5F88800207840069F
:1015A00007D5D5F88800E16A20F440500843C5F813
:1015B00088002088C00507D5D5F88800216B20F465
:1015C00040300843C5F8880020884FF00067800449
:1015D0004FF080684ED5D5F88800216C20F040602F
:1015E0000843C5F88800206CB8423BD1E86840F455
:1015F0008010E8603EE0D5F8900010F4407014D000
:10160000216D814211D0D5F89000D5F8901020F4CA
:10161000407041F48031C5F89010D5F8901021F455
:101620008031C5F89010C5F89000C00711D0FFF7C1
:101630004BFB074641F2883907E000BFFFF744FB48
:10164000C11B494501D9032668E7D5F890008007FA
:10165000F4D5D5F89000216D20F440700843C5F80A
:1016600090005BE7404505D10121201D01F018FAEB
:1016700000B106462068400317D5D5F88800616C94
:1016800020F040600843C5F88800606CB84204D17F
:10169000E86840F48010E86007E0404505D101218A
:1016A000201D01F0FDF900B106462088400411D547
:1016B000D5F88800A16C20F040500843C5F8880098
:1016C000A06CB0F1805F05D10221201D01F0E8F986
:1016D00000B106462088000406D555F8880FE16C55
:1016E00020F0804008432860304600F005B8000034
:1016F000001002400070004018BCBDE8E08F000000
:101700002DE9F0470F4605006BD0494E306800F0D8
:101710000700B84209D2306820F007003843306033
:10172000306800F00700B8425BD12878414C800750
:101730000AD5A868A16801F0F001884204D9A1681F
:1017400021F0F0010143A1602878C0072CD068681F
:10175000032811D0022812D0216898B14905002928
:101760003FDAA16821F003010143A160FFF7ACFA61
:10177000804641F2883910E021688901EFE721684D
:101780008903ECE78907EAE7FFF79EFAA0EB080177
:10179000494502D90320BDE8F087A068696800F0D8
:1017A0000C00B0EB810FEFD1287880070AD5A8682C
:1017B000A16801F0F001884204D2A16821F0F00193
:1017C0000143A160306800F00700B8420BD93068CF
:1017D00020F0070038433060306800F00700B8425E
:1017E00001D00120D7E72878400705D5A068E9682F
:1017F00020F4E0600843A0602878000706D5A068C0
:10180000296920F4605040EAC100A06000F03EF871
:10181000A168094AC1F30311515C01F01F01C840DE
:101820000649086006480068BDE8F047FFF75EBD5E
:10183000002002400010024068380008200000200C
:10184000180000200548064900688968054AC1F368
:101850000221515C01F01F01C840704720000020A8
:1018600000100240A8380008054806490068896849
:10187000054AC1F3C221515C01F01F01C840704705
:101880002000002000100240A838000870B525494B
:10189000002318468A68CC6812F00C0204F0030694
:1018A000214C4FEA640509D00C2A05D0042A32D015
:1018B000082A00D1284670BD012E10D10B681B07E5
:1018C00004D4D1F89430C3F3032302E00B68C3F3CC
:1018D0000313164E56F82330DAB10C2AEBD1C86840
:1018E00000F00300022818D0032818D01846CA6850
:1018F000CB68C2F30212C3F306234343521CB3FB6B
:10190000F2F2C868C0F34160401C4000B2FBF0F046
:1019100070BD184670BD204670BD2046E7E72846DA
:10192000E5E70000001002400024F40078380008C9
:101930002DE9F84304006FD0FA4DA86800F00C06BA
:10194000E86800F003072078C00664D576B10C2E55
:1019500001D1012F0AD0A069002828687AD040F070
:1019600001002860FFF7B0F980465DE02868800735
:1019700002D5A0690028DED0216A2868000703D5B7
:10198000286800F0F00004E0D5F89400F02202EAA4
:101990001010814216D9084601F018F900283BD1F1
:1019A000286840F0080028602868216A20F0F000CC
:1019B000084328606868E16920F47F4040EA01201C
:1019C000686016E0286840F0080028602868216AEE
:1019D00020F0F000084328606868E16920F47F4047
:1019E00040EA0120686026B9206A01F0EFF800287B
:1019F000D5D1FFF74BFFA968CB4AC1F30311515C66
:101A000001F01F01C840C9490860C9480068FFF7D4
:101A10006DFC00287ED12EE0CAE000BFFFF754F92C
:101A2000A0EB0800022876D828688007F6D5286839
:101A300040F0080028602868216A20F0F000084380
:101A400028606868E16920F47F4040EA012068600E
:101A500011E0FFE720F001002860FFF735F980462C
:101A600006E000BFFFF730F9A0EB08000228DAD843
:101A700028688007F6D42078C00740D0082E18D0F8
:101A80000C2E01D1032F14D06068B0F5803F17D021
:101A9000B0F5A02F286817D020F48030286028687F
:101AA00020F4802028606068E0B1FFF70DF98046DF
:101AB00014E02868800322D56068002878D01EE0F2
:101AC000286840F48030EDE740F480202860F7E794
:101AD000FFF7FAF8A0EB08006428A4D82868800370
:101AE000F6D50CE0FFF7F0F8804605E0FFF7ECF8DC
:101AF000A0EB0800642896D828688003F6D42078E4
:101B000080073BD5042E11D00C2E01D1022F0DD011
:101B1000E06801E0AAE1FFE0002828681ED040F458
:101B200080702860FFF7D0F807460CE02868400571
:101B30000CD5E0680028C1D008E000BFFFF7C4F86A
:101B4000C01B022893D828684005F7D56868217C17
:101B500020F0F85040EA016068600FE020F48070E7
:101B60002860FFF7B1F8074605E000BFFFF7ACF8C3
:101B7000C01B0228B1D828684005F7D42078000798
:101B800029D560690028D5F8940012D040F00100F2
:101B9000C5F89400FFF798F8074604E0FFF794F8BB
:101BA000C01B022899D8D5F894008007F6D512E01A
:101BB0002BE120F00100C5F89400FFF785F80746F7
:101BC00005E000BFFFF780F8C01B022885D8D5F8D4
:101BD00094008007F6D42078400766D5A86D0027CA
:101BE000C00008D4A86D40F08050A865A86D0127FA
:101BF00000F0805000904F480168C90512D4016878
:101C0000814641F480710160FFF75EF8804605E08F
:101C1000FFF75AF8A0EB080002287DD8D9F8000099
:101C2000C005F5D5A068012816D00528D5F8900084
:101C300017D020F00100C5F89000D5F8900020F0F2
:101C4000040000BFC5F89000A06841F28839C0B117
:101C5000FFF73AF880460FE0D5F8900040F0010019
:101C6000F0E740F00400C5F89000F5E7FFF72CF826
:101C7000A0EB080149454FD8D5F890008007F5D56D
:101C80000EE0FFF721F8804606E000BFFFF71CF8E2
:101C9000A0EB080149453FD8D5F890008007F5D45E
:101CA0001FB1A86D20F08050A8652078800628D547
:101CB000606A0028D5F8980012D040F00100C5F8FD
:101CC0009800FFF701F8074605E000BFFEF7FCFFAC
:101CD000C01B022820D8D5F898008007F6D510E060
:101CE00020F00100C5F89800FEF7EEFF074604E07B
:101CF000FEF7EAFFC01B02280ED8D5F8980080072F
:101D0000F6D4A06AF0B3022816D00C2E7DD0286835
:101D100020F08070286000E0A7E0FEF7D5FF0446C1
:101D2000A6E00000001002406838000820000020F3
:101D30001800002000700040E868E26A00F003012B
:101D4000914228D1216B00F07002090110399142B3
:101D500021D1626B00F4FE41B1EB022F1BD194F84C
:101D6000382000F07841B1EBC26F14D1A18F00F49C
:101D7000C00249084905A1F5001191420BD194F820
:101D8000401000E06AE04908490600F0C060A1F197
:101D9000007181424BD00C2E73D02868400170D462
:101DA000286820F080702860FEF78EFF064604E069
:101DB000FEF78AFF801B022857D828688001F7D4D5
:101DC000F4E90B016FF00F0202EB01110843218AC5
:101DD0005204490802EB4151A26841EA022108433A
:101DE000217D4FF07E42490802EB41610843217B8F
:101DF00040EAC160E968244A11400843E860286865
:101E000040F080702860E86800E03AE040F08070C0
:101E1000E860FEF759FF044605E000BFFEF754FFF7
:101E2000001B022821D828688001F7D527E0286800
:101E3000800124D4286840F080702860E86840F071
:101E40008070E860FEF740FF044604E0FEF73CFFC8
:101E5000001B022809D828688001F7D50FE000BFD1
:101E6000FEF732FF001B022802D90320BDE8F883E9
:101E700028688001F4D4E86804490840E86000203C
:101E8000F4E70120F2E700008C809D01FCFFEEFEEC
:101E900010B5401EB0F1807F01D3012010BD4FF07E
:101EA000E02460610F21601701F0A5FB0020A06114
:101EB00007202061002010BD704770477047000068
:101EC0002DE9F04102680446D0691168936840F634
:101ED0000F0528424FF0000505D186067ED58E06F7
:101EE0007CD5616E1BE1994F03F001060F4037432B
:101EF00074D0C70709D0CF0507D501271762D4F8DA
:101F0000802042F00102C4F8802082070AD5DA0757
:101F100008D0276802223A62D4F8802042F00402F6
:101F2000C4F8802042070AD5DA0708D023680422C3
:101F30001A62D4F8802042F00202C4F8802002071E
:101F40000CD501F02002324308D0236808221A621F
:101F5000D4F8802042F00802C4F8802002050BD596
:101F60004A0109D523684FF400621A62D4F8802030
:101F700042F02002C4F88020D4F88020002A35D016
:101F8000800605D5880603D5616E09B120468847CD
:101F9000D4F8800021688968490602D410F0280F1F
:101FA00026D0204601F076F82068806840061AD5D1
:101FB0002068083050E8001F21F0400140E800127E
:101FC000002AF5D1206F70B161498163206FFEF75F
:101FD00033FD00280AD0206F816B01E00EE020461F
:101FE000BDE8F04108472046FFF768FFBDE8F081F3
:101FF0002046FFF763FFC4F88050F7E7276E2026DE
:10200000012F7BD1C70679D5CF0677D51020106276
:1020100020688068400641D5216F08684068000448
:10202000000CE3D0B4F858208242DFD9A4F85A005B
:102030000868006880062AD4206850E8001F21F450
:10204000807140E80012002AF6D12068083050E87C
:10205000001F21F0010140E80012002AF5D120689C
:10206000083050E8001F21F0400140E80012002A2B
:10207000F5D1E6672566216851E8000F20F01000D1
:1020800041E80002002AF6D1206FFEF7B0FCB4F858
:102090005800B4F85A10401A81B22AE0B4F8580037
:1020A000B4F85A10401A81B2B4F85A0000289DD0F2
:1020B00000299BD0226852E8000F20F4907042E87B
:1020C0000003002BF6D12068083050E8002F22F0E2
:1020D000010240E80023002BF5D1E667256665661E
:1020E000226852E8000F20F0100042E80003002BA5
:1020F000F6D12046FFF7E0FE78E7FFE7C70209D5F3
:102100005B0207D54FF4801010622046BDE8F04115
:10211000FFF7D3BE020606D50A0604D5A16E002934
:102120007FF45DAF62E74006E6D54806E4D5204679
:10213000026852E8001F21F0400142E80013002B22
:10214000F6D18667856600F09EF94FE7200100040E
:102150008130000810B5040002D0A06F10B107E074
:10216000012010BD002084F87400204600F026F8FD
:102170002420A0672068016821F001010160204649
:1021800001F084F80128ECD0606A10B1204600F01C
:10219000E5FE2068416821F4904141602068816833
:1021A00021F02A0181602068016841F0010101608D
:1021B0002046BDE8104000F035BF0000F0B59BB0F0
:1021C0000446142115A8FEF748FA54216846FEF784
:1021D00044FA2049206888423AD102240026684601
:1021E00009960094FFF746F908B1FEF7FEFB1A487E
:1021F000816D41F400318165816D01F400311A91E6
:10220000C16C41F00101C164C06C15A900F001006E
:102210001A90042081E8510003250720CDE91850C9
:102220004FF090473846FEF741FCCDE917654FF473
:1022300000401995CDE9150415A93846FEF736FC7E
:10224000002211462620FFF797F82620FFF786F890
:102250001BB0F0BD004400400010024030B4C36F1A
:10226000202B20D1E1B1DAB190F87430012B1AD0D3
:10227000012380F87430002303660C4C0368A342EA
:102280000BD05B681B0208D5046854E8003F43F09C
:10229000806344E80035002DF6D130BC01F0E4B88D
:1022A000012030BC70470220FBE7000000800040A6
:1022B00070B500682F4988425AD12F4C04F10B02A7
:1022C000A078A0F13001092916D82178062947D233
:1022D00021780A44491C217010700A230122A11C94
:1022E000264800F075F82078062839D124A000F09F
:1022F000F7FE0120607033E000250D2808D00A2881
:1023000006D0082810D07F280ED01B2817D027E031
:10231000207828B32078062822D21AA000F0E0FE08
:1023200023A000F0DDFE15E02078C8B12078401E23
:1023300020702078155425A000F0D2FE10E02078FF
:1023400070B1002603E021A000F0CAFE761C2078C0
:102350008642F8DB2570C4F80B50A4F80F50657462
:10236000BDE8704004490122891C0448FFF776BF8C
:1023700070BD00000044004000000020CC000020A0
:102380000D0A00000D0A4572726F723A20456E7494
:1023900065722065786163746C79203620646967A2
:1023A000697473202868686D6D737329210D0A00A4
:1023B000456E74657220616C61726D2074696D6523
:1023C000202868686D6D7373293A20000820080082
:1023D0002DE9F8430446806F1F4616460D46202817
:1023E0004FD1CDB1C6B194F87400012849D0012075
:1023F00084F874004FF00008C4F880802120A067A2
:10240000FEF762FCA4F850608146A4F85260A06810
:10241000B0F5805F03D004E00120BDE8F8832069B7
:1024200028B12E465FF0000584F8748010E0002685
:10243000FAE78021204601F073F8B8B9C6B116F862
:10244000010B21680885B4F85200401EA4F8520020
:10245000B4F852004B464FF0000200970028E8D134
:102460004FF04001204601F05BF830B10320D4E783
:1024700035F8020BC0F30800E3E72020A067002036
:10248000CBE70220C9E77047FEE701688A69D243BB
:10249000920701D400228A6200688169C943C90792
:1024A00003D0816941F00101816170472DE9F04756
:1024B000044600688A461746816900252E46C906EB
:1024C000A9464FF0200849D51021C16137E000BF6F
:1024D000BAF1FF3F33D0FEF7F7FBC11B514502D8DD
:1024E000BAF1000F2BD12068416894F8422001F422
:1024F00080418369DB431B041CD4B1F5804F19D0A4
:10250000202A17D0416841F480414160FEF7DCFB8E
:1025100007460FE0FEF7D8FBC01B19280AD9606CEC
:1025200040F02000606484F8418084F8429084F890
:102530004090012520688069C0438006EAD4206865
:102540008069C043800602D5002DC1D003E015B9D3
:102550002168C1F81C8046F00406012521688869BD
:10256000C20505D54FF4807246F00106CA61012507
:10257000410509D522684FF4806146F00806D16113
:102580000125800502D40AE0800507D521684FF4B3
:10259000007046F00206C861012500E08DB12046BA
:1025A000FFF773FF54F8240B4168074A114041605C
:1025B000206A3043206284F81D8084F81E9084F8DD
:1025C0001C902846BDE8F08700E800FE10B5C1F376
:1025D000090141EA02410268029C19432143506803
:1025E00021F000414FF4806303EA5453024C23432B
:1025F00098430843506010BDFF63FF032DE9F0418D
:102600001D4617460E460446DDF8188008E0681C93
:1026100006D0FEF759FBA0EB0800A8420BD855B135
:102620002068806936EA000012D00020B842EED05F
:102630000020BDE8F08154F8440F40F0200044F839
:102640000409202060700020A07020700120F0E7B5
:102650000120EBE72DE9F041202690460F46044685
:10266000002530E0424639462046FFF71FFF10BBE9
:1026700020688069C04380061ED420688169C943F0
:10268000490701D4218D19BB8169C943C90604D406
:102690001021C1610420606400E065642068C661A7
:1026A00020684168114A1140416084F8416084F813
:1026B000425084F8405016E0FEF706FBA0EB0800FD
:1026C000B84208D83FB120688069C0434007C9D4E8
:1026D0000020BDE8F08154F8440F40F0200044F899
:1026E0000409667025700120F3E7000000E800FE91
:1026F00070B516460D4604460DE032462946204682
:10270000FFF7D4FE08B1012070BDFEF7DDFA801B93
:10271000A84207D835B120688069C0438006ECD450
:10272000002070BD54F8440F40F0200044F8040924
:10273000202060700020A0702070E4E770B516467D
:102740000D4604460FE0324629462046FFF7AEFE0E
:1027500008B1012070BD681C05D0FEF7B5FA801BDA
:10276000A84207D835B120688069C0438007EAD401
:10277000002070BD54F8440F40F0200044F80409D4
:10278000202060700020A0702070E2E7F0B587B0D4
:1027900014216846FDF761FF1D48C16C41F004013A
:1027A000C164C16C01F004010591C16C41F00101EB
:1027B000C164C16C01F001010591C16C41F00201DD
:1027C000C164C06C4FF0904600F0020005900022FA
:1027D00020213046FEF773FA0E4F002218213846AA
:1027E000FEF76DFA2020009001250024CDE9015468
:1027F000694630460394FEF759F918200090CDE958
:102800000154694638460394FEF750F907B0F0BD0D
:102810000010024000040048134810B5114901603F
:1028200040F61241416000210122C0E9021201611B
:1028300041618161C1610162FEF7A0FA08B172B61F
:10284000FEE700210848FEF745FA08B172B6FEE738
:1028500000210548FEF769FA002801D072B6FEE7AC
:1028600010BD00000054004024000020134810B5A3
:102870001149016040F61241416000210122C0E986
:102880000212016141618161C1610162FEF776FA64
:1028900008B172B6FEE700210848FEF71BFA08B13E
:1028A00072B6FEE700210548FEF73FFA002801D086
:1028B00072B6FEE710BD0000005C0040780000200A
:1028C0000C4810B50A4901604FF4E1314160002124
:1028D00081600C22C160C0E904128161C1610162A2
:1028E0004162FFF737FC002801D072B6FEE710BD49
:1028F00000440040CC000020FEE7FEE770470000E7
:102900002DE9FF41DFF8E48098F8000006286BD13C
:10291000002408F10B00029401788DF8081041782A
:102920008DF80910019481788DF80410C1788DF824
:102930000510039401798DF80C1040798DF80D0085
:1029400002A8FDF75EFE074601A8FDF75AFE0646FF
:1029500003A8FDF756FE0546182F37D2002E35DBAB
:102960003C2E33DA002D31DB3C2D2FDAF9B20A2070
:10297000B1FBF0F200FB1212B1FBF0F142EA0111DF
:10298000CBB2F1B2B1FBF0F200FB1212B1FBF0F1ED
:1029900042EA0111EAB2B2FBF0FC00FB1C2CB2FBD4
:1029A000F0F04CEA0010C2B2C9B2184600F01EFAAC
:1029B00000F066F933463A460DA119480095FDF737
:1029C000DDFC174800F08CFB16A003E01DA000F012
:1029D00087FB2AA000F084FB88F80040C8F80B4071
:1029E000A8F80F4088F8114000F056B80000002009
:1029F000416C61726D2073657420746F20253032D4
:102A0000643A253032643A25303264202832342D3D
:102A1000686F757220666F726D6174290D0A00000F
:102A200050010020456E746572206E657720616CE0
:102A300061726D2074696D65202868686D6D7373AF
:102A4000293A2000496E76616C69642074696D656D
:102A50002120486F7572733A2030302D32332C208C
:102A60004D696E757465732F5365636F6E64733A49
:102A70002030302D35390D0A00000000456E746598
:102A80007220616C61726D2074696D6520286868C0
:102A90006D6D7373293A200003BCBDE8FC81000012
:102AA0002DE9F041444C05468846E0680026810740
:102AB00028680DD0E16801F00301814216D1A8B168
:102AC000E0686968C0F30210401C88420ED120E023
:102AD000012804D0022805D0032807D108E0216886
:102AE000890701E021684905002907DB01265FE02D
:102AF0002168890302D421684903F5E7E1686A681F
:102B00006FF00F0321F0730103EB02121143014335
:102B1000E160206820F080602060FEF7D5F807466D
:102B200005E000BFFEF7D0F8C01B022837D82068A8
:102B30000001F7D4B8F1000F18D0B8F1010F1DD083
:102B4000287D4FF07E41400801EB4060A96840EAD3
:102B500001202169194A114008432061206840F092
:102B600080602060FEF7B0F807461AE0A868297B6D
:102B7000000240EAC1602169114AECE7288A114944
:102B8000400801EB4050A96840EA012021690E4A43
:102B9000E1E700BFFEF798F8C01B022801D9032621
:102BA00006E020680001F5D52069A9690843206185
:102BB0003046BDE8F081000000100240FF80FFF9C0
:102BC000FF80FF070000E0FFFF809FFFF8B51C4D6E
:102BD00006460024A86DC00002D5FEF733FC0DE0C8
:102BE000A86D40F08050A865A86D00F0805000905E
:102BF000FEF728FCA96D21F08051A965B0F5007F92
:102C000004D0802E07D94FF003040AE0802E08D9A3
:102C1000A02E01D804E001D1022402E0702E00D1E0
:102C200001240848016821F0070121430160006880
:102C300000F00700A04201D00120F8BD0020F8BD3F
:102C400000100240002002401CB50B490F200A244E
:102C500008700A460123D02108480094FEF716FAAE
:102C6000012301AAD12105480094FEF779F99DF8C6
:102C7000040000F001001CBD090000202400002019
:102C80007CB5114C0F260A25267001232246D0213F
:102C90000E480095FEF7FAF9012301AAD1210B484D
:102CA0000095FEF75DF99DF80400022320F0010075
:102CB0008DF80400267060702246D02103480095EC
:102CC000FEF7E4F97CBD000009000020240000208C
:102CD00038B50D4C0E204FF0FF3520701D20607070
:102CE00002232246D02109480095FEF7CFF90F2094
:102CF00020700020607002232246D02103480095F6
:102D0000FEF7C4F938BD00000900002024000020AF
:102D100010B54FF0FF330A22D0210648FEF78AF89B
:102D200020B1BDE8104004A000F0DAB9BDE81040C1
:102D300000F04CB8240000204552524F523A205225
:102D40005443206E6F7420646574656374656421F8
:102D50000D0A000038B50A2401231A4AD0211A4866
:102D60000094FEF793F9174A0123521CD12116480B
:102D70000094FEF7F5F8134A0123921CD021124863
:102D80000094FEF783F90F4A0123D21CD1210E488B
:102D90000094FEF7E5F80B4A0123121DD0210A48E2
:102DA0000094FEF773F90094064C0123241D621C65
:102DB000D1210548FEF7D4F8607800F03F0060703C
:102DC00038BD0000030000202400002070B5064D2F
:102DD000002408212846FDF76AFFFA20FDF754FE7B
:102DE000641C0A2CF5DB70BD00040048F8B5184CD3
:102DF00007460720207062700E464FF0FF35022311
:102E00002246D02113480095FEF740F90820207093
:102E1000667002232246D0210E480095FEF736F94F
:102E20000920207007F03F00607002232246D02165
:102E300008480095FEF72AF90A202070802060706B
:102E400002232246D02103480095FEF71FF9F8BD62
:102E50000900002024000020F8B5064613480D465E
:102E60000021017042700A2402460223D02110483A
:102E70000094FEF70BF90D480121801C02460170F9
:102E800045700223D0210A480094FEF7FFF8074856
:102E90000221001D0246017006F03F01417002232D
:102EA000D02103480094FEF7F1F8F8BD030000209C
:102EB000240000207047FEF701BA000030B597B03B
:102EC00044216846FDF7C9FB142111A8FDF7C5FB95
:102ED0004FF40070FEF782FA08B172B6FEE7FEF713
:102EE000B9FA194850F8901F21F018010160142018
:102EF0000090012006AA00249025029082E831006B
:102F00000221CDE90A1005200C9012200D90072017
:102F1000CDE90E01062010906846FEF709FD08B1C4
:102F200072B6FEE70F20119003201290CDE91354E2
:102F3000002111A81594FEF7E3FB08B172B6FEE775
:102F4000FEF790FA17B030BD001002400248016849
:102F500041F470010160704788ED00E090F82410A2
:102F6000C90706D001684A68836A22F400321A430E
:102F70004A6090F82410890706D501684A68C36A38
:102F800022F480321A434A6090F82410490706D58B
:102F900001684A68036B22F480221A434A6090F861
:102FA0002410090706D501684A68436B22F40042E1
:102FB0001A434A6090F82410C90606D501688A6849
:102FC000836B22F480521A438A6090F82410890699
:102FD00006D501688A68C36B22F400521A438A60DE
:102FE00090F82410490611D501684A68036C22F450
:102FF00080121A434A60016CB1F5801F06D1016846
:103000004A68436C22F4C0021A434A6090F82410C4
:10301000090606D501684A68806C22F40022024342
:103020004A607047F8B500260446C0F88060FDF796
:103030004BFE0546206800686FF07E47000708D504
:103040002B4600224FF400112046009700F068FA4A
:1030500060B92068006840070AD52B4600224FF46B
:1030600080012046009700F05BFA08B10320F8BD0C
:103070002020A067E067266684F874600020F8BD11
:1030800010B5806A0021A0F85A10A0F85210FEF77F
:1030900015FF10BD016851E8002F22F4907241E83D
:1030A0000023002BF6D10168083151E8002F22F0EF
:1030B000010241E80023002BF5D1016E012908D15E
:1030C000026852E8001F21F0100142E80013002BB3
:1030D000F6D12021C16700210166416670470000DA
:1030E00010B50446FDF79AFA214682B2BDE81040B9
:1030F00064230148FFF76CB9CC00002008B50C48E8
:103100000CA1407800900A48801C4378801C4278CB
:103110000E48FDF733F90D48FDF780FA0B4901B071
:1031200082B20A23A1F184005DF804EBFFF750B9E5
:103130000300002054696D653A20253032783A2525
:103140003032783A253032780D0A000050010020E4
:1031500010B5B0F85C20C36F0168222B04D0088B37
:1031600040F00800088310BD898C436D1140198020
:10317000416D891C4165B0F85A10491EA0F85A10DB
:10318000B0F85A100029EED1026852E8001F21F46D
:10319000907142E80013002BF6D10168083151E824
:1031A000002F22F0010241E80023002BF5D120215D
:1031B000C16700214166026E012A02D0FFF778F84C
:1031C00010BD0166026852E8001F21F0100142E8BC
:1031D0000013002BF6D10168CA69D243D20601D48C
:1031E00010220A62B0F85810FEF766FE10BD10B546
:1031F000B0F85C20C36F0168222B04D0088B40F02C
:103200000800088310BD898C1140426D1170416D1A
:10321000491C4165B0F85A10491EA0F85A10B0F880
:103220005A100029EED1026852E8001F21F4907173
:1032300042E80013002BF6D10168083151E8002F55
:1032400022F0010241E80023002BF5D12021C167C3
:1032500000214166026E012A02D0FFF729F810BD55
:103260000166026852E8001F21F0100142E80013D5
:10327000002BF6D10168CA69D243D20601D41022CC
:103280000A62B0F85810FEF717FE10BD2DE9F041A4
:103290000446016880682269E66910436269002576
:1032A00032431043694B0A68694E324002430A6058
:1032B00020684168E26821F440511143416021686F
:1032C000A069994201D0226A10438A6822F43062D0
:1032D00002438A605F4927685F488F420DD1D0F86A
:1032E000880010F0030006D0012838D0022834D01E
:1032F000032821D135E001211FE058498F420BD12D
:10330000D0F8880010F00C0025D0042827D0082819
:1033100023D00C2810D124E09F420DD1D0F8880092
:1033200010F4406017D0B0F5806F18D0B0F5006F82
:1033300013D0B0F5406F14D01021494A00264FF445
:1033400000409F422FD171B102290FD004290FD024
:10335000082973D10FE00021EFE70221EDE70421F6
:10336000EBE70821E9E7FEF76DFA03E0104602E01B
:10337000FEF78CFAF0B3626802EB420181425DD83D
:10338000B0EB023F5AD8010E0302500818187141E1
:103390000023FCF77BFF334AA0F5407191424DD8E2
:1033A0002168C8604BE0E3694FF6EF77834228D18C
:1033B000092943D2DFE801F005080B420D424242E1
:1033C0001000FEF73FFA06E0FEF74EFA03E0104663
:1033D00002E0FEF75BFA68B14100606801EB500162
:1033E000B1FBF0F0A0F11001B94227D84FF6F0710F
:1033F000014000E023E0C0F3420001432068C160C7
:103400001DE009291AD2DFE801F005080B190D1992
:1034100019191000FEF716FA06E0FEF725FA03E088
:10342000104602E0FEF732FA48B1616800EB510045
:10343000B0FBF1F0A0F11001B94205D90125666693
:103440002846A666BDE8F08180B2A9E7008000406A
:10345000F369FFEF003801400010024000440040D3
:103460000024F400FFFC0F0030B54165A0F858209F
:10347000A0F85A200022426681684FF48055FF234D
:10348000A94204D1016971BB40F2FF1131E07F24F0
:1034900039B3B1F1805F29D0A0F85C20C0F880205A
:1034A0002221C1670168083151E8003F43F0010360
:1034B00041E80034002CF5D18168A94201D10169AD
:1034C000E9B11549416680F874200169C9B1026803
:1034D00052E8001F41F4907142E80013002BF6D12E
:1034E00018E0016941B9A0F85C30D7E7016919B16A
:1034F0003F21A0F85C10D1E7A0F85C40CEE7074977
:10350000E0E7026852E8001F41F0200142E80013A2
:10351000002BF6D1002030BDEF31000851310008FA
:103520002DE9F0479A4617460E4604464FF000092B
:103530004FF02008089D4AE0681C48D0FDF7C4FB06
:10354000A0EB0A00A8422AD84DB3206801684907B9
:103550003DD5C069C043000539D421684FF40060EF
:103560000862206850E8001F21F4D07140E8001282
:10357000002AF6D12068083050E8001F21F0010130
:1035800040E80012002AF5D1C4F87880C4F87C80A5
:10359000C4F8808084F874900320BDE8F087216827
:1035A00051E8000F20F4D07041E80002002AF6D163
:1035B0002068083050E8001F21F0010140E80012A7
:1035C000002AF5D1C4F87880C4F87C80E2E720684E
:1035D000C06936EA000004D00020B842ACD0002018
:1035E000DBE70120F9E700000148FEF769BC0000B5
:1035F000CC000020FEE70907090E002804DB00F1DB
:10360000E02080F80014704700F00F0000F1E02087
:1036100080F8141D704730380A2801D20120704705
:10362000002070470A21B0FBF1F201FB1202B0FB4F
:10363000F1F042EA0010C0B270470000FDF746FE0C
:10364000FFF73CFCFFF7A2F8FFF73AF9FFF7E4F8C1
:10365000FFF70CF9FFF75CFB3720FFF7E3FF0446A9
:103660003B20FFF7DFFF03460E20FFF7DBFF22467C
:103670001946FFF7F1FB0020FFF7D4FF04460020B6
:10368000FFF7D0FF03460F20FFF7CCFF2246194675
:10369000FFF7ACFBFFF71CFB28A0FFF721FD33A0D1
:1036A000FFF71EFD38A0FFF71BFD3EA0FFF718FD3A
:1036B000012247494748FEF7D1FD454E4FF4FA77BE
:1036C000454D4FF00008B61E4FF47A79FFF742FBE4
:1036D000FFF714FDFFF7B8FA002824D03FA0FFF74A
:1036E000FFFC012210212846FDF7E9FA00240821F9
:1036F0002846FDF7DCFA3846FDF7C6F9641C0A2CAB
:10370000F5DB002210212846FDF7D9FA0022082116
:103710002846FDF7D4FAFFF7B3FA38A0FFF7E0FC2C
:103720003BA0FFF7DDFC707818B1FFF7E9F886F8E9
:1037300001804846FDF7A8F9C8E700000D0A3D3DA5
:103740003D2044533332333120525443207769743F
:1037500068205541525420416C61726D20496E7051
:103760007574203D3D3D0D0A000000005254432079
:10377000696E697469616C697A65643A2031343ABA
:1037800035393A35350D0A0044656661756C74202B
:10379000616C61726D3A2031353A30303A30300D1B
:1037A0000A000000456E74657220616C61726D20C4
:1037B00074696D65202868686D6D73732C203234D0
:1037C0002D686F757220666F726D6174293A2000E2
:1037D00002000020CC000020000400480D0A2A2A24
:1037E0002A20414C41524D205452494747455245A9
:1037F0004421202A2A2A0D0A00000000416C61722F
:103800006D20636C65617265642E0D0A0000000016
:10381000456E746572206E657720616C61726D20F3
:1038200074696D65202868686D6D7373293A20008E
:1038300010B500290AD00878002807D00548784438
:10384000FDF78AF8002801D0002010BD0248784416
:1038500010BD0000CE000000C60000004FF0407018
:10386000E1EE100A704700000000000000000000B8
:103870000102030406070809A0860100400D0300A9
:10388000801A060000350C0040420F0080841E00A4
:1038900000093D0000127A000024F40000366E0199
:1038A0000048E801006CDC02000000000102030493
:1038B0003031323334353637383941424344454666
:1038C0004030580030313233343536373839616260
:1038D0006364656640307800040000080000000062
:1038E0000000000200010000100000001C3A000867
:1038F0000000002024000000C8010008403A000831
:1039000024000020F4070000E4010008100100007A
:1039100043000000F8FFFFFF0040404040404040AF
:103920004040414141414140404040404040404092
:103930004040404040404040400502020202020236
:103940000202020202020202022020202020202085
:103950002020200202020202020290909090909099
:103960001010101010101010101010101010101057
:1039700010101010020202020202888888888888CB
:1039800008080808080808080808080808080808B7
:1039900008080808020202024000000000000000BF
:1039A0000000000000000000000000000000000017
:1039B0000000000000000000000000000000000007
:1039C00000000000000000000000000000000000F7
:1039D00000000000000000000000000000000000E7
:1039E00000000000000000000000000000000000D7
:1039F00000000000000000000000000000000000C7
:103A000000000000000000000000000000000000B6
:103A100000000000000000000000000000000000A6
:103A20000001000200000000000000000000000093
:103A300001000000100000000000000000093D002F
:040000050800018D61
:00000001FF
